{
  "_format": "hh-sol-artifact-1",
  "contractName": "Formula",
  "sourceName": "contracts/Formula.sol",
  "abi": [
    {
      "inputs": [],
      "name": "init",
      "outputs": [],
      "stateMutability": "nonpayable",
      "type": "function"
    },
    {
      "inputs": [
        {
          "internalType": "uint256",
          "name": "_baseN",
          "type": "uint256"
        },
        {
          "internalType": "uint256",
          "name": "_baseD",
          "type": "uint256"
        },
        {
          "internalType": "uint32",
          "name": "_expN",
          "type": "uint32"
        },
        {
          "internalType": "uint32",
          "name": "_expD",
          "type": "uint32"
        }
      ],
      "name": "power",
      "outputs": [
        {
          "internalType": "uint256",
          "name": "",
          "type": "uint256"
        },
        {
          "internalType": "uint8",
          "name": "",
          "type": "uint8"
        }
      ],
      "stateMutability": "view",
      "type": "function"
    },
    {
      "inputs": [
        {
          "internalType": "uint256",
          "name": "_supply",
          "type": "uint256"
        },
        {
          "internalType": "uint256",
          "name": "_reserveBalance",
          "type": "uint256"
        },
        {
          "internalType": "uint32",
          "name": "_reserveWeight",
          "type": "uint32"
        },
        {
          "internalType": "uint256",
          "name": "_amount",
          "type": "uint256"
        }
      ],
      "name": "purchaseCost",
      "outputs": [
        {
          "internalType": "uint256",
          "name": "",
          "type": "uint256"
        }
      ],
      "stateMutability": "view",
      "type": "function"
    },
    {
      "inputs": [
        {
          "internalType": "uint256",
          "name": "_supply",
          "type": "uint256"
        },
        {
          "internalType": "uint256",
          "name": "_reserveBalance",
          "type": "uint256"
        },
        {
          "internalType": "uint32",
          "name": "_reserveWeight",
          "type": "uint32"
        },
        {
          "internalType": "uint256",
          "name": "_amount",
          "type": "uint256"
        }
      ],
      "name": "purchaseTargetAmount",
      "outputs": [
        {
          "internalType": "uint256",
          "name": "",
          "type": "uint256"
        }
      ],
      "stateMutability": "view",
      "type": "function"
    },
    {
      "inputs": [
        {
          "internalType": "uint256",
          "name": "_supply",
          "type": "uint256"
        },
        {
          "internalType": "uint256",
          "name": "_reserveBalance",
          "type": "uint256"
        },
        {
          "internalType": "uint32",
          "name": "_reserveWeight",
          "type": "uint32"
        },
        {
          "internalType": "uint256",
          "name": "_amount",
          "type": "uint256"
        }
      ],
      "name": "saleTargetAmount",
      "outputs": [
        {
          "internalType": "uint256",
          "name": "",
          "type": "uint256"
        }
      ],
      "stateMutability": "view",
      "type": "function"
    }
  ],
  "bytecode": "0x608060405234801561001057600080fd5b506137a4806100206000396000f3fe608060405234801561001057600080fd5b50600436106100575760003560e01c806332833d511461005c5780635f28fdfc1461008d57806376cf0b56146100bd578063e1c7392a146100ed578063f3250fe2146100f7575b600080fd5b610076600480360381019061007191906131a7565b610127565b604051610084929190613239565b60405180910390f35b6100a760048036038101906100a29190613262565b61023b565b6040516100b491906132c9565b60405180910390f35b6100d760048036038101906100d29190613262565b6103ea565b6040516100e491906132c9565b60405180910390f35b6100f56105d8565b005b610111600480360381019061010c9190613262565b6105e2565b60405161011e91906132c9565b60405180910390f35b600080700200000000000000000000000000000000861061014757600080fd5b600080866f80000000000000000000000000000000896101679190613313565b6101719190613384565b905070015bf0a8b1457695355fb8ac404e7a79e381101561019c5761019581610779565b91506101a8565b6101a581610ef2565b91505b60008563ffffffff168763ffffffff16846101c39190613313565b6101cd9190613384565b90507008000000000000000000000000000000008110156101ff576101f18161104c565b607f94509450505050610232565b600061020a82611850565b905061022881607f61021c91906133b5565b60ff1683901c8261192a565b8195509550505050505b94509492505050565b600080851161027f576040517f08c379a000000000000000000000000000000000000000000000000000000000815260040161027690613447565b60405180910390fd5b600084116102c2576040517f08c379a00000000000000000000000000000000000000000000000000000000081526004016102b9906134b3565b60405180910390fd5b60008363ffffffff161180156102e75750620f424063ffffffff168363ffffffff1611155b610326576040517f08c379a000000000000000000000000000000000000000000000000000000000815260040161031d9061351f565b60405180910390fd5b6000820361033757600090506103e2565b620f424063ffffffff168363ffffffff1603610383576001856001868561035e9190613313565b610368919061353f565b6103729190613384565b61037c9190613573565b90506103e2565b600080600084886103949190613573565b90506103a58189620f424089610127565b809350819450505060008260ff166001858a6103c19190613313565b6103cb919061353f565b901c905087816103db919061353f565b9450505050505b949350505050565b600080851161042e576040517f08c379a000000000000000000000000000000000000000000000000000000000815260040161042590613447565b60405180910390fd5b60008411610471576040517f08c379a0000000000000000000000000000000000000000000000000000000008152600401610468906134b3565b60405180910390fd5b60008363ffffffff161180156104965750620f424063ffffffff168363ffffffff1611155b6104d5576040517f08c379a00000000000000000000000000000000000000000000000000000000081526004016104cc906135f3565b60405180910390fd5b84821115610518576040517f08c379a000000000000000000000000000000000000000000000000000000000815260040161050f9061365f565b60405180910390fd5b6000820361052957600090506105d0565b848203610538578390506105d0565b620f424063ffffffff168363ffffffff160361056c5784828561055b9190613313565b6105659190613384565b90506105d0565b6000806000848861057d919061353f565b905061058e8882620f424089610127565b8093508194505050600083886105a49190613313565b905060008360ff1689901b90508481836105be919061353f565b6105c89190613384565b955050505050505b949350505050565b6105e0612039565b565b6000808511610626576040517f08c379a000000000000000000000000000000000000000000000000000000000815260040161061d90613447565b60405180910390fd5b60008411610669576040517f08c379a0000000000000000000000000000000000000000000000000000000008152600401610660906134b3565b60405180910390fd5b60008363ffffffff1611801561068e5750620f424063ffffffff168363ffffffff1611155b6106cd576040517f08c379a00000000000000000000000000000000000000000000000000000000081526004016106c4906135f3565b60405180910390fd5b600082036106de5760009050610771565b620f424063ffffffff168363ffffffff1603610712578382866107019190613313565b61070b9190613384565b9050610771565b600080600086856107239190613573565b9050610734818888620f4240610127565b8093508194505050600060018360ff16858b6107509190613313565b901c61075c9190613573565b9050888161076a919061353f565b9450505050505b949350505050565b6000806000905060008060006fd3094c70f034de4b96ff7d5b6f99fcd886106107f4576f40000000000000000000000000000000846107b89190613573565b93506fd3094c70f034de4b96ff7d5b6f99fcd86f80000000000000000000000000000000876107e79190613313565b6107f19190613384565b95505b6fa45af1e1f40c333b3de1db4dd55f29a78610610863576f20000000000000000000000000000000846108279190613573565b93506fa45af1e1f40c333b3de1db4dd55f29a76f80000000000000000000000000000000876108569190613313565b6108609190613384565b95505b6f910b022db7ae67ce76b441c27035c6a186106108d2576f10000000000000000000000000000000846108969190613573565b93506f910b022db7ae67ce76b441c27035c6a16f80000000000000000000000000000000876108c59190613313565b6108cf9190613384565b95505b6f88415abbe9a76bead8d00cf112e4d4a88610610941576f08000000000000000000000000000000846109059190613573565b93506f88415abbe9a76bead8d00cf112e4d4a86f80000000000000000000000000000000876109349190613313565b61093e9190613384565b95505b6f84102b00893f64c705e841d5d4064bd386106109b0576f04000000000000000000000000000000846109749190613573565b93506f84102b00893f64c705e841d5d4064bd36f80000000000000000000000000000000876109a39190613313565b6109ad9190613384565b95505b6f8204055aaef1c8bd5c3259f4822735a28610610a1f576f02000000000000000000000000000000846109e39190613573565b93506f8204055aaef1c8bd5c3259f4822735a26f8000000000000000000000000000000087610a129190613313565b610a1c9190613384565b95505b6f810100ab00222d861931c15e39b44e998610610a8e576f0100000000000000000000000000000084610a529190613573565b93506f810100ab00222d861931c15e39b44e996f8000000000000000000000000000000087610a819190613313565b610a8b9190613384565b95505b6f808040155aabbbe9451521693554f7338610610afc576e80000000000000000000000000000084610ac09190613573565b93506f808040155aabbbe9451521693554f7336f8000000000000000000000000000000087610aef9190613313565b610af99190613384565b95505b6f8000000000000000000000000000000086610b18919061353f565b92508291506f800000000000000000000000000000008384610b3a9190613313565b610b449190613384565b905070010000000000000000000000000000000083700100000000000000000000000000000000610b75919061353f565b83610b809190613313565b610b8a9190613384565b84610b959190613573565b93506f800000000000000000000000000000008183610bb49190613313565b610bbe9190613384565b9150700200000000000000000000000000000000836faaaaaaaaaaaaaaaaaaaaaaaaaaaaaaaa610bee919061353f565b83610bf99190613313565b610c039190613384565b84610c0e9190613573565b93506f800000000000000000000000000000008183610c2d9190613313565b610c379190613384565b9150700300000000000000000000000000000000836f99999999999999999999999999999999610c67919061353f565b83610c729190613313565b610c7c9190613384565b84610c879190613573565b93506f800000000000000000000000000000008183610ca69190613313565b610cb09190613384565b9150700400000000000000000000000000000000836f92492492492492492492492492492492610ce0919061353f565b83610ceb9190613313565b610cf59190613384565b84610d009190613573565b93506f800000000000000000000000000000008183610d1f9190613313565b610d299190613384565b9150700500000000000000000000000000000000836f8e38e38e38e38e38e38e38e38e38e38e610d59919061353f565b83610d649190613313565b610d6e9190613384565b84610d799190613573565b93506f800000000000000000000000000000008183610d989190613313565b610da29190613384565b9150700600000000000000000000000000000000836f8ba2e8ba2e8ba2e8ba2e8ba2e8ba2e8b610dd2919061353f565b83610ddd9190613313565b610de79190613384565b84610df29190613573565b93506f800000000000000000000000000000008183610e119190613313565b610e1b9190613384565b9150700700000000000000000000000000000000836f89d89d89d89d89d89d89d89d89d89d89610e4b919061353f565b83610e569190613313565b610e609190613384565b84610e6b9190613573565b93506f800000000000000000000000000000008183610e8a9190613313565b610e949190613384565b9150700800000000000000000000000000000000836f88888888888888888888888888888888610ec4919061353f565b83610ecf9190613313565b610ed99190613384565b84610ee49190613573565b935083945050505050919050565b600080600090507001000000000000000000000000000000008310610f65576000610f376f8000000000000000000000000000000085610f329190613384565b6130ab565b90508060ff1684901c93506f800000000000000000000000000000008160ff16610f619190613313565b9150505b6f8000000000000000000000000000000083111561100d576000607f90505b60008160ff16111561100b576f800000000000000000000000000000008485610fad9190613313565b610fb79190613384565b93507001000000000000000000000000000000008410610ffa57600184901c9350600181610fe591906133b5565b60ff166001901b82610ff79190613573565b91505b806110049061367f565b9050610f84565b505b6f05b9de1d10bf4103d647b0955897ba806f03f80fe03f80fe03f80fe03f80fe03f88261103a9190613313565b6110449190613384565b915050919050565b600080600090506000806f100000000000000000000000000000008561107291906136a8565b91508190506f8000000000000000000000000000000082826110949190613313565b61109e9190613384565b90506710e1b3be415a0000816110b49190613313565b836110bf9190613573565b92506f8000000000000000000000000000000082826110de9190613313565b6110e89190613384565b90506705a0913f6b1e0000816110fe9190613313565b836111099190613573565b92506f8000000000000000000000000000000082826111289190613313565b6111329190613384565b9050670168244fdac78000816111489190613313565b836111539190613573565b92506f8000000000000000000000000000000082826111729190613313565b61117c9190613384565b9050664807432bc18000816111919190613313565b8361119c9190613573565b92506f8000000000000000000000000000000082826111bb9190613313565b6111c59190613384565b9050660c0135dca04000816111da9190613313565b836111e59190613573565b92506f8000000000000000000000000000000082826112049190613313565b61120e9190613384565b90506601b707b1cdc000816112239190613313565b8361122e9190613573565b92506f80000000000000000000000000000000828261124d9190613313565b6112579190613384565b90506536e0f639b8008161126b9190613313565b836112769190613573565b92506f8000000000000000000000000000000082826112959190613313565b61129f9190613384565b9050650618fee9f800816112b39190613313565b836112be9190613573565b92506f8000000000000000000000000000000082826112dd9190613313565b6112e79190613384565b9050649c197dcc00816112fa9190613313565b836113059190613573565b92506f8000000000000000000000000000000082826113249190613313565b61132e9190613384565b9050640e30dce400816113419190613313565b8361134c9190613573565b92506f80000000000000000000000000000000828261136b9190613313565b6113759190613384565b905064012ebd1300816113889190613313565b836113939190613573565b92506f8000000000000000000000000000000082826113b29190613313565b6113bc9190613384565b90506317499f00816113ce9190613313565b836113d99190613573565b92506f8000000000000000000000000000000082826113f89190613313565b6114029190613384565b90506301a9d480816114149190613313565b8361141f9190613573565b92506f80000000000000000000000000000000828261143e9190613313565b6114489190613384565b9050621c6380816114599190613313565b836114649190613573565b92506f8000000000000000000000000000000082826114839190613313565b61148d9190613384565b90506201c6388161149e9190613313565b836114a99190613573565b92506f8000000000000000000000000000000082826114c89190613313565b6114d29190613384565b9050611ab8816114e29190613313565b836114ed9190613573565b92506f80000000000000000000000000000000828261150c9190613313565b6115169190613384565b905061017c816115269190613313565b836115319190613573565b92506f8000000000000000000000000000000082826115509190613313565b61155a9190613384565b90506014816115699190613313565b836115749190613573565b92506f8000000000000000000000000000000082826115939190613313565b61159d9190613384565b90506001816115ac9190613313565b836115b79190613573565b92506f80000000000000000000000000000000826721c3677c82b40000856115df9190613384565b6115e99190613573565b6115f39190613573565b925060006f1000000000000000000000000000000086161461164b5770018ebef9eac820ae8682b9793ac6d1e7767001c3d6a24ed82218787d624d3e5eba95f98461163e9190613313565b6116489190613384565b92505b60006f200000000000000000000000000000008616146116a1577001368b2fc6f9609fe7aceb46aa619baed470018ebef9eac820ae8682b9793ac6d1e778846116949190613313565b61169e9190613384565b92505b60006f400000000000000000000000000000008616146116f6576fbc5ab1b16779be3575bd8f0520a9f21f7001368b2fc6f9609fe7aceb46aa619baed5846116e99190613313565b6116f39190613384565b92505b60006f8000000000000000000000000000000086161461174a576f454aaa8efe072e7f6ddbab84b40a55c96fbc5ab1b16779be3575bd8f0520a9f21e8461173d9190613313565b6117479190613384565b92505b600070010000000000000000000000000000000086161461179f576f0960aadc109e7a3bf4578099615711ea6f454aaa8efe072e7f6ddbab84b40a55c5846117929190613313565b61179c9190613384565b92505b60007002000000000000000000000000000000008616146117f3576e2bf84208204f5977f9a8cf01fdce3d6f0960aadc109e7a3bf4578099615711d7846117e69190613313565b6117f09190613384565b92505b6000700400000000000000000000000000000000861614611845576d03c6ab775dd0b95b4cbee7e65d116e2bf84208204f5977f9a8cf01fdc307846118389190613313565b6118429190613384565b92505b829350505050919050565b600080602090506000607f90505b8060ff1660018361186f91906136d9565b60ff1610156118c55760006002828461188891906136d9565b611892919061370e565b90508460008260ff16608081106118ac576118ab61373f565b5b0154106118bb578092506118bf565b8091505b5061185e565b8360008260ff16608081106118dd576118dc61373f565b5b0154106118ee578092505050611925565b8360008360ff16608081106119065761190561373f565b5b015410611917578192505050611925565b600061192257600080fd5b50505b919050565b60008083905060008360ff1685836119429190613313565b901c91506f03442c4e6074a82f1797f72ac0000000826119629190613313565b8161196d9190613573565b90508360ff16858361197f9190613313565b901c91506f0116b96f757c380fb287fd0e400000008261199f9190613313565b816119aa9190613573565b90508360ff1685836119bc9190613313565b901c91506e45ae5bdd5f0e03eca1ff4390000000826119db9190613313565b816119e69190613573565b90508360ff1685836119f89190613313565b901c91506e0defabf91302cd95b9ffda5000000082611a179190613313565b81611a229190613573565b90508360ff168583611a349190613313565b901c91506e02529ca9832b22439efff9b800000082611a539190613313565b81611a5e9190613573565b90508360ff168583611a709190613313565b901c91506d54f1cf12bd04e516b6da8800000082611a8e9190613313565b81611a999190613573565b90508360ff168583611aab9190613313565b901c91506d0a9e39e257a09ca2d6db5100000082611ac99190613313565b81611ad49190613573565b90508360ff168583611ae69190613313565b901c91506d012e066e7b839fa050c30900000082611b049190613313565b81611b0f9190613573565b90508360ff168583611b219190613313565b901c91506c1e33d7d926c329a1ad1a80000082611b3e9190613313565b81611b499190613573565b90508360ff168583611b5b9190613313565b901c91506c02bee513bdb4a6b19b5f80000082611b789190613313565b81611b839190613573565b90508360ff168583611b959190613313565b901c91506b3a9316fa79b88eccf2a0000082611bb19190613313565b81611bbc9190613573565b90508360ff168583611bce9190613313565b901c91506b048177ebe1fa81237520000082611bea9190613313565b81611bf59190613573565b90508360ff168583611c079190613313565b901c91506a5263fe90242dcbacf0000082611c229190613313565b81611c2d9190613573565b90508360ff168583611c3f9190613313565b901c91506a057e22099c030d9410000082611c5a9190613313565b81611c659190613573565b90508360ff168583611c779190613313565b901c91506957e22099c030d941000082611c919190613313565b81611c9c9190613573565b90508360ff168583611cae9190613313565b901c915069052b6b5456997631000082611cc89190613313565b81611cd39190613573565b90508360ff168583611ce59190613313565b901c9150684985f67696bf74800082611cfe9190613313565b81611d099190613573565b90508360ff168583611d1b9190613313565b901c91506803dea12ea99e49800082611d349190613313565b81611d3f9190613573565b90508360ff168583611d519190613313565b901c91506731880f2214b6e00082611d699190613313565b81611d749190613573565b90508360ff168583611d869190613313565b901c915067025bcff56eb3600082611d9e9190613313565b81611da99190613573565b90508360ff168583611dbb9190613313565b901c9150661b722e10ab100082611dd29190613313565b81611ddd9190613573565b90508360ff168583611def9190613313565b901c91506601317c7007700082611e069190613313565b81611e119190613573565b90508360ff168583611e239190613313565b901c9150650cba84aafa0082611e399190613313565b81611e449190613573565b90508360ff168583611e569190613313565b901c91506482573a0a0082611e6b9190613313565b81611e769190613573565b90508360ff168583611e889190613313565b901c91506405035ad90082611e9d9190613313565b81611ea89190613573565b90508360ff168583611eba9190613313565b901c9150632f881b0082611ece9190613313565b81611ed99190613573565b90508360ff168583611eeb9190613313565b901c91506301b2934082611eff9190613313565b81611f0a9190613573565b90508360ff168583611f1c9190613313565b901c9150620efc4082611f2f9190613313565b81611f3a9190613573565b90508360ff168583611f4c9190613313565b901c9150617fe082611f5e9190613313565b81611f699190613573565b90508360ff168583611f7b9190613313565b901c915061042082611f8d9190613313565b81611f989190613573565b90508360ff168583611faa9190613313565b901c9150602182611fbb9190613313565b81611fc69190613573565b90508360ff168583611fd89190613313565b901c9150600182611fe99190613313565b81611ff49190613573565b90508360ff166001901b856f0688589cc0e9505e2f2fee55800000008361201b9190613384565b6120259190613573565b61202f9190613573565b9250505092915050565b701c35fedd14ffffffffffffffffffffffff60006020608081106120605761205f61373f565b5b0181905550701b0ce43b323fffffffffffffffffffffff600060216080811061208c5761208b61373f565b5b01819055507019f0028ec1ffffffffffffffffffffffff60006022608081106120b8576120b761373f565b5b01819055507018ded91f0e7fffffffffffffffffffffff60006023608081106120e4576120e361373f565b5b01819055507017d8ec7f0417ffffffffffffffffffffff60006024608081106121105761210f61373f565b5b01819055507016ddc6556cdbffffffffffffffffffffff600060256080811061213c5761213b61373f565b5b01819055507015ecf52776a1ffffffffffffffffffffff60006026608081106121685761216761373f565b5b01819055507015060c256cb2ffffffffffffffffffffff60006027608081106121945761219361373f565b5b0181905550701428a2f98d72ffffffffffffffffffffff60006028608081106121c0576121bf61373f565b5b01819055507013545598e5c23fffffffffffffffffffff60006029608081106121ec576121eb61373f565b5b0181905550701288c4161ce1dfffffffffffffffffffff6000602a608081106122185761221761373f565b5b01819055507011c592761c666fffffffffffffffffffff6000602b608081106122445761224361373f565b5b018190555070110a688680a757ffffffffffffffffffff6000602c608081106122705761226f61373f565b5b0181905550701056f1b5bedf77ffffffffffffffffffff6000602d6080811061229c5761229b61373f565b5b0181905550700faadceceeff8bffffffffffffffffffff6000602e608081106122c8576122c761373f565b5b0181905550700f05dc6b27edadffffffffffffffffffff6000602f608081106122f4576122f361373f565b5b0181905550700e67a5a25da4107fffffffffffffffffff60006030608081106123205761231f61373f565b5b0181905550700dcff115b14eedffffffffffffffffffff600060316080811061234c5761234b61373f565b5b0181905550700d3e7a392431239fffffffffffffffffff60006032608081106123785761237761373f565b5b0181905550700cb2ff529eb71e4fffffffffffffffffff60006033608081106123a4576123a361373f565b5b0181905550700c2d415c3db974afffffffffffffffffff60006034608081106123d0576123cf61373f565b5b0181905550700bad03e7d883f69bffffffffffffffffff60006035608081106123fc576123fb61373f565b5b0181905550700b320d03b2c343d5ffffffffffffffffff60006036608081106124285761242761373f565b5b0181905550700abc25204e02828dffffffffffffffffff60006037608081106124545761245361373f565b5b0181905550700a4b16f74ee4bb207fffffffffffffffff60006038608081106124805761247f61373f565b5b01819055507009deaf736ac1f569ffffffffffffffffff60006039608081106124ac576124ab61373f565b5b0181905550700976bd9952c7aa957fffffffffffffffff6000603a608081106124d8576124d761373f565b5b01819055507009131271922eaa606fffffffffffffffff6000603b608081106125045761250361373f565b5b01819055507008b380f3558668c46fffffffffffffffff6000603c608081106125305761252f61373f565b5b0181905550700857ddf0117efa215bffffffffffffffff6000603d6080811061255c5761255b61373f565b5b01819055507007ffffffffffffffffffffffffffffffff6000603e608081106125885761258761373f565b5b01819055507007abbf6f6abb9d087fffffffffffffffff6000603f608081106125b4576125b361373f565b5b018190555070075af62cbac95f7dfa7fffffffffffffff60006040608081106125e0576125df61373f565b5b018190555070070d7fb7452e187ac13fffffffffffffff600060416080811061260c5761260b61373f565b5b01819055507006c3390ecc8af379295fffffffffffffff60006042608081106126385761263761373f565b5b018190555070067c00a3b07ffc01fd6fffffffffffffff60006043608081106126645761266361373f565b5b0181905550700637b647c39cbb9d3d27ffffffffffffff60006044608081106126905761268f61373f565b5b01819055507005f63b1fc104dbd39587ffffffffffffff60006045608081106126bc576126bb61373f565b5b01819055507005b771955b36e12f7235ffffffffffffff60006046608081106126e8576126e761373f565b5b018190555070057b3d49dda84556d6f6ffffffffffffff60006047608081106127145761271361373f565b5b018190555070054183095b2c8ececf30ffffffffffffff60006048608081106127405761273f61373f565b5b018190555070050a28be635ca2b888f77fffffffffffff600060496080811061276c5761276b61373f565b5b01819055507004d5156639708c9db33c3fffffffffffff6000604a608081106127985761279761373f565b5b01819055507004a23105873875bd52dfdfffffffffffff6000604b608081106127c4576127c361373f565b5b0181905550700471649d87199aa990756fffffffffffff6000604c608081106127f0576127ef61373f565b5b01819055507004429a21a029d4c1457cfbffffffffffff6000604d6080811061281c5761281b61373f565b5b0181905550700415bc6d6fb7dd71af2cb3ffffffffffff6000604e608081106128485761284761373f565b5b01819055507003eab73b3bbfe282243ce1ffffffffffff6000604f608081106128745761287361373f565b5b01819055507003c1771ac9fb6b4c18e229ffffffffffff60006050608081106128a05761289f61373f565b5b0181905550700399e96897690418f785257fffffffffff60006051608081106128cc576128cb61373f565b5b0181905550700373fc456c53bb779bf0ea9fffffffffff60006052608081106128f8576128f761373f565b5b018190555070034f9e8e490c48e67e6ab8bfffffffffff60006053608081106129245761292361373f565b5b018190555070032cbfd4a7adc790560b3337ffffffffff60006054608081106129505761294f61373f565b5b018190555070030b50570f6e5d2acca94613ffffffffff600060556080811061297c5761297b61373f565b5b01819055507002eb40f9f620fda6b56c2861ffffffffff60006056608081106129a8576129a761373f565b5b01819055507002cc8340ecb0d0f520a6af58ffffffffff60006057608081106129d4576129d361373f565b5b01819055507002af09481380a0a35cf1ba02ffffffffff6000605860808110612a00576129ff61373f565b5b0181905550700292c5bdd3b92ec810287b1b3fffffffff6000605960808110612a2c57612a2b61373f565b5b0181905550700277abdcdab07d5a77ac6d6b9fffffffff6000605a60808110612a5857612a5761373f565b5b018190555070025daf6654b1eaa55fd64df5efffffffff6000605b60808110612a8457612a8361373f565b5b0181905550700244c49c648baa98192dce88b7ffffffff6000605c60808110612ab057612aaf61373f565b5b018190555070022ce03cd5619a311b2471268bffffffff6000605d60808110612adc57612adb61373f565b5b0181905550700215f77c045fbe885654a44a0fffffffff6000605e60808110612b0857612b0761373f565b5b01819055507001ffffffffffffffffffffffffffffffff6000605f60808110612b3457612b3361373f565b5b01819055507001eaefdbdaaee7421fc4d3ede5ffffffff6000606060808110612b6057612b5f61373f565b5b01819055507001d6bd8b2eb257df7e8ca57b09bfffffff6000606160808110612b8c57612b8b61373f565b5b01819055507001c35fedd14b861eb0443f7f133fffffff6000606260808110612bb857612bb761373f565b5b01819055507001b0ce43b322bcde4a56e8ada5afffffff6000606360808110612be457612be361373f565b5b018190555070019f0028ec1fff007f5a195a39dfffffff6000606460808110612c1057612c0f61373f565b5b018190555070018ded91f0e72ee74f49b15ba527ffffff6000606560808110612c3c57612c3b61373f565b5b018190555070017d8ec7f04136f4e5615fd41a63ffffff6000606660808110612c6857612c6761373f565b5b018190555070016ddc6556cdb84bdc8d12d22e6fffffff6000606760808110612c9457612c9361373f565b5b018190555070015ecf52776a1155b5bd8395814f7fffff6000606860808110612cc057612cbf61373f565b5b018190555070015060c256cb23b3b3cc3754cf40ffffff6000606960808110612cec57612ceb61373f565b5b01819055507001428a2f98d728ae223ddab715be3fffff6000606a60808110612d1857612d1761373f565b5b018190555070013545598e5c23276ccf0ede68034fffff6000606b60808110612d4457612d4361373f565b5b01819055507001288c4161ce1d6f54b7f61081194fffff6000606c60808110612d7057612d6f61373f565b5b018190555070011c592761c666aa641d5a01a40f17ffff6000606d60808110612d9c57612d9b61373f565b5b0181905550700110a688680a7530515f3e6e6cfdcdffff6000606e60808110612dc857612dc761373f565b5b01819055507001056f1b5bedf75c6bcb2ce8aed428ffff6000606f60808110612df457612df361373f565b5b01819055506ffaadceceeff8a0890f3875f008277fff6000607060808110612e1f57612e1e61373f565b5b01819055506ff05dc6b27edad306388a600f6ba0bfff6000607160808110612e4a57612e4961373f565b5b01819055506fe67a5a25da41063de1495d5b18cdbfff6000607260808110612e7557612e7461373f565b5b01819055506fdcff115b14eedde6fc3aa5353f2e4fff6000607360808110612ea057612e9f61373f565b5b01819055506fd3e7a3924312399f9aae2e0f868f8fff6000607460808110612ecb57612eca61373f565b5b01819055506fcb2ff529eb71e41582cccd5a1ee26fff6000607560808110612ef657612ef561373f565b5b01819055506fc2d415c3db974ab32a51840c0b67edff6000607660808110612f2157612f2061373f565b5b01819055506fbad03e7d883f69ad5b0a186184e06bff6000607760808110612f4c57612f4b61373f565b5b01819055506fb320d03b2c343d4829abd6075f0cc5ff6000607860808110612f7757612f7661373f565b5b01819055506fabc25204e02828d73c6e80bcdb1a95bf6000607960808110612fa257612fa161373f565b5b01819055506fa4b16f74ee4bb2040a1ec6c15fbbf2df6000607a60808110612fcd57612fcc61373f565b5b01819055506f9deaf736ac1f569deb1b5ae3f36c130f6000607b60808110612ff857612ff761373f565b5b01819055506f976bd9952c7aa957f5937d790ef650376000607c608081106130235761302261373f565b5b01819055506f9131271922eaa6064b73a22d0bd4f2bf6000607d6080811061304e5761304d61373f565b5b01819055506f8b380f3558668c46c91c49a2f8e967b96000607e608081106130795761307861373f565b5b01819055506f857ddf0117efa215952912839f6473e66000607f608081106130a4576130a361373f565b5b0181905550565b600080600090506101008310156130e6575b60018311156130e157600183901c92506001816130da91906136d9565b90506130bd565b613127565b6000608090505b60008160ff161115613125578060ff166001901b8410613116578060ff1684901c935080821791505b60018160ff16901c90506130ed565b505b80915050919050565b600080fd5b6000819050919050565b61314881613135565b811461315357600080fd5b50565b6000813590506131658161313f565b92915050565b600063ffffffff82169050919050565b6131848161316b565b811461318f57600080fd5b50565b6000813590506131a18161317b565b92915050565b600080600080608085870312156131c1576131c0613130565b5b60006131cf87828801613156565b94505060206131e087828801613156565b93505060406131f187828801613192565b925050606061320287828801613192565b91505092959194509250565b61321781613135565b82525050565b600060ff82169050919050565b6132338161321d565b82525050565b600060408201905061324e600083018561320e565b61325b602083018461322a565b9392505050565b6000806000806080858703121561327c5761327b613130565b5b600061328a87828801613156565b945050602061329b87828801613156565b93505060406132ac87828801613192565b92505060606132bd87828801613156565b91505092959194509250565b60006020820190506132de600083018461320e565b92915050565b7f4e487b7100000000000000000000000000000000000000000000000000000000600052601160045260246000fd5b600061331e82613135565b915061332983613135565b925082820261333781613135565b9150828204841483151761334e5761334d6132e4565b5b5092915050565b7f4e487b7100000000000000000000000000000000000000000000000000000000600052601260045260246000fd5b600061338f82613135565b915061339a83613135565b9250826133aa576133a9613355565b5b828204905092915050565b60006133c08261321d565b91506133cb8361321d565b9250828203905060ff8111156133e4576133e36132e4565b5b92915050565b600082825260208201905092915050565b7f4552525f494e56414c49445f535550504c590000000000000000000000000000600082015250565b60006134316012836133ea565b915061343c826133fb565b602082019050919050565b6000602082019050818103600083015261346081613424565b9050919050565b7f4552525f494e56414c49445f524553455256455f42414c414e43450000000000600082015250565b600061349d601b836133ea565b91506134a882613467565b602082019050919050565b600060208201905081810360008301526134cc81613490565b9050919050565b7f4552525f494e56414c49445f524553455256455f524154494f00000000000000600082015250565b60006135096019836133ea565b9150613514826134d3565b602082019050919050565b60006020820190508181036000830152613538816134fc565b9050919050565b600061354a82613135565b915061355583613135565b925082820390508181111561356d5761356c6132e4565b5b92915050565b600061357e82613135565b915061358983613135565b92508282019050808211156135a1576135a06132e4565b5b92915050565b7f4552525f494e56414c49445f524553455256455f574549474854000000000000600082015250565b60006135dd601a836133ea565b91506135e8826135a7565b602082019050919050565b6000602082019050818103600083015261360c816135d0565b9050919050565b7f4552525f494e56414c49445f414d4f554e540000000000000000000000000000600082015250565b60006136496012836133ea565b915061365482613613565b602082019050919050565b600060208201905081810360008301526136788161363c565b9050919050565b600061368a8261321d565b91506000820361369d5761369c6132e4565b5b600182039050919050565b60006136b382613135565b91506136be83613135565b9250826136ce576136cd613355565b5b828206905092915050565b60006136e48261321d565b91506136ef8361321d565b9250828201905060ff811115613708576137076132e4565b5b92915050565b60006137198261321d565b91506137248361321d565b92508261373457613733613355565b5b828204905092915050565b7f4e487b7100000000000000000000000000000000000000000000000000000000600052603260045260246000fdfea2646970667358221220d7c8ff5d960205cbd0531d8b331b271dafe363ee17ca2ebaceaecb91ea79959664736f6c63430008180033",
  "linkReferences": {},
  "deployedLinkReferences": {}
}