{
  "_format": "hh-sol-artifact-1",
  "contractName": "MemeCoinListingManager",
  "sourceName": "contracts/MemeCoinListingManager.sol",
  "abi": [
    {
      "inputs": [
        {
          "internalType": "address",
          "name": "memez_",
          "type": "address"
        },
        {
          "internalType": "address",
          "name": "treasury_",
          "type": "address"
        }
      ],
      "stateMutability": "nonpayable",
      "type": "constructor"
    },
    {
      "anonymous": false,
      "inputs": [
        {
          "indexed": true,
          "internalType": "address",
          "name": "memecoin",
          "type": "address"
        }
      ],
      "name": "MemeCoinListed",
      "type": "event"
    },
    {
      "inputs": [
        {
          "internalType": "uint256",
          "name": "cap",
          "type": "uint256"
        },
        {
          "internalType": "uint256",
          "name": "price",
          "type": "uint256"
        }
      ],
      "name": "estimateMemeCoinListingWithTwamm",
      "outputs": [
        {
          "internalType": "uint256",
          "name": "amountTokenForListing",
          "type": "uint256"
        },
        {
          "internalType": "uint256",
          "name": "amountTokenForMemez",
          "type": "uint256"
        }
      ],
      "stateMutability": "nonpayable",
      "type": "function"
    },
    {
      "inputs": [],
      "name": "fraxswapFactory",
      "outputs": [
        {
          "internalType": "address",
          "name": "",
          "type": "address"
        }
      ],
      "stateMutability": "view",
      "type": "function"
    },
    {
      "inputs": [],
      "name": "fraxswapRouter",
      "outputs": [
        {
          "internalType": "address",
          "name": "",
          "type": "address"
        }
      ],
      "stateMutability": "view",
      "type": "function"
    },
    {
      "inputs": [
        {
          "internalType": "uint256",
          "name": "amountTokenForListing",
          "type": "uint256"
        },
        {
          "internalType": "uint256",
          "name": "amountTokenForMemez",
          "type": "uint256"
        }
      ],
      "name": "listMemeCoin",
      "outputs": [],
      "stateMutability": "payable",
      "type": "function"
    }
  ],
  "bytecode": "0x60e06040523480156200001157600080fd5b506040516200194a3803806200194a8339818101604052810190620000379190620001ca565b8173ffffffffffffffffffffffffffffffffffffffff1660a08173ffffffffffffffffffffffffffffffffffffffff16815250508073ffffffffffffffffffffffffffffffffffffffff1660808173ffffffffffffffffffffffffffffffffffffffff16815250507339cd4db6460d8b5961f73e997e86ddbb7ca4d5f673ffffffffffffffffffffffffffffffffffffffff1663ad5c46486040518163ffffffff1660e01b8152600401602060405180830381865afa158015620000ff573d6000803e3d6000fd5b505050506040513d601f19601f8201168201806040525081019062000125919062000211565b73ffffffffffffffffffffffffffffffffffffffff1660c08173ffffffffffffffffffffffffffffffffffffffff1681525050505062000243565b600080fd5b600073ffffffffffffffffffffffffffffffffffffffff82169050919050565b6000620001928262000165565b9050919050565b620001a48162000185565b8114620001b057600080fd5b50565b600081519050620001c48162000199565b92915050565b60008060408385031215620001e457620001e362000160565b5b6000620001f485828601620001b3565b92505060206200020785828601620001b3565b9150509250929050565b6000602082840312156200022a576200022962000160565b5b60006200023a84828501620001b3565b91505092915050565b60805160a05160c0516116c962000281600039600081816102fb015261078601526000818161036a01526107f50152600061014601526116c96000f3fe60806040526004361061003f5760003560e01c8063033032a11461004457806375268ff71461006f578063a226f2791461009a578063bac95fff146100b6575b600080fd5b34801561005057600080fd5b506100596100f4565b6040516100669190610d9a565b60405180910390f35b34801561007b57600080fd5b5061008461010c565b6040516100919190610d9a565b60405180910390f35b6100b460048036038101906100af9190610dff565b610124565b005b3480156100c257600080fd5b506100dd60048036038101906100d89190610dff565b610703565b6040516100eb929190610e4e565b60405180910390f35b7339cd4db6460d8b5961f73e997e86ddbb7ca4d5f681565b73e30521fe7f3beb6ad556887b50739d6c7ca667e681565b60006064348161013757610136610e77565b5b049050600081600302905060007f000000000000000000000000000000000000000000000000000000000000000073ffffffffffffffffffffffffffffffffffffffff168260405161018890610ed7565b60006040518083038185875af1925050503d80600081146101c5576040519150601f19603f3d011682016040523d82523d6000602084013e6101ca565b606091505b505090508061020e576040517f08c379a000000000000000000000000000000000000000000000000000000000815260040161020590610f49565b60405180910390fd5b3373ffffffffffffffffffffffffffffffffffffffff1663095ea7b37339cd4db6460d8b5961f73e997e86ddbb7ca4d5f68688016040518363ffffffff1660e01b815260040161025f929190610f69565b6020604051808303816000875af115801561027e573d6000803e3d6000fd5b505050506040513d601f19601f820116820180604052508101906102a29190610fca565b5060008360020290506000600267ffffffffffffffff8111156102c8576102c7610ff7565b5b6040519080825280602002602001820160405280156102f65781602001602082028036833780820191505090505b5090507f00000000000000000000000000000000000000000000000000000000000000008160008151811061032e5761032d611026565b5b602002602001019073ffffffffffffffffffffffffffffffffffffffff16908173ffffffffffffffffffffffffffffffffffffffff16815250507f00000000000000000000000000000000000000000000000000000000000000008160018151811061039d5761039c611026565b5b602002602001019073ffffffffffffffffffffffffffffffffffffffff16908173ffffffffffffffffffffffffffffffffffffffff168152505060007339cd4db6460d8b5961f73e997e86ddbb7ca4d5f673ffffffffffffffffffffffffffffffffffffffff16637ff36ab58460008530426040518663ffffffff1660e01b815260040161042e9493929190611158565b60006040518083038185885af115801561044c573d6000803e3d6000fd5b50505050506040513d6000823e3d601f19601f8201168201806040525081019061047691906112e3565b905060008160018351038151811061049157610490611026565b5b60200260200101519050600088111561061057826001815181106104b8576104b7611026565b5b602002602001015173ffffffffffffffffffffffffffffffffffffffff1663095ea7b37339cd4db6460d8b5961f73e997e86ddbb7ca4d5f6836040518363ffffffff1660e01b815260040161050e929190610f69565b6020604051808303816000875af115801561052d573d6000803e3d6000fd5b505050506040513d601f19601f820116820180604052508101906105519190610fca565b507339cd4db6460d8b5961f73e997e86ddbb7ca4d5f673ffffffffffffffffffffffffffffffffffffffff1663e8e33700338560018151811061059757610596611026565b5b60200260200101518b858d876000426040518963ffffffff1660e01b81526004016105c998979695949392919061132c565b6060604051808303816000875af11580156105e8573d6000803e3d6000fd5b505050506040513d601f19601f8201168201806040525081019061060c91906113aa565b5050505b60004790507339cd4db6460d8b5961f73e997e86ddbb7ca4d5f673ffffffffffffffffffffffffffffffffffffffff1663f305d71982338d8e866000426040518863ffffffff1660e01b815260040161066e969594939291906113fd565b60606040518083038185885af115801561068c573d6000803e3d6000fd5b50505050506040513d601f19601f820116820180604052508101906106b191906113aa565b5050503373ffffffffffffffffffffffffffffffffffffffff167fd7b756d58543b1bf21bdc9f0a68e23b7a01a5affb3f0c41a78c6dbc25d4a085160405160405180910390a250505050505050505050565b600080600084905060006064828161071e5761071d610e77565b5b0490506000816003029050808303925060008260020290506000600267ffffffffffffffff81111561075357610752610ff7565b5b6040519080825280602002602001820160405280156107815781602001602082028036833780820191505090505b5090507f0000000000000000000000000000000000000000000000000000000000000000816000815181106107b9576107b8611026565b5b602002602001019073ffffffffffffffffffffffffffffffffffffffff16908173ffffffffffffffffffffffffffffffffffffffff16815250507f00000000000000000000000000000000000000000000000000000000000000008160018151811061082857610827611026565b5b602002602001019073ffffffffffffffffffffffffffffffffffffffff16908173ffffffffffffffffffffffffffffffffffffffff168152505060007339cd4db6460d8b5961f73e997e86ddbb7ca4d5f673ffffffffffffffffffffffffffffffffffffffff1663704c32cf84846040518363ffffffff1660e01b81526004016108b392919061145e565b6000604051808303816000875af11580156108d2573d6000803e3d6000fd5b505050506040513d6000823e3d601f19601f820116820180604052508101906108fb91906112e3565b9050828603955060008160018351038151811061091b5761091a611026565b5b602002602001015190506000811115610b9557600073e30521fe7f3beb6ad556887b50739d6c7ca667e673ffffffffffffffffffffffffffffffffffffffff1663e6a439058560008151811061097457610973611026565b5b6020026020010151866001815181106109905761098f611026565b5b60200260200101516040518363ffffffff1660e01b81526004016109b592919061148e565b602060405180830381865afa1580156109d2573d6000803e3d6000fd5b505050506040513d601f19601f820116820180604052508101906109f691906114e3565b90506000808273ffffffffffffffffffffffffffffffffffffffff16630902f1ac6040518163ffffffff1660e01b8152600401606060405180830381865afa158015610a46573d6000803e3d6000fd5b505050506040513d601f19601f82011682018060405250810190610a6a9190611592565b50915091506000808473ffffffffffffffffffffffffffffffffffffffff16630dfe16816040518163ffffffff1660e01b8152600401602060405180830381865afa158015610abd573d6000803e3d6000fd5b505050506040513d601f19601f82011682018060405250810190610ae191906114e3565b73ffffffffffffffffffffffffffffffffffffffff1688600081518110610b0b57610b0a611026565b5b602002602001015173ffffffffffffffffffffffffffffffffffffffff1614610b35578284610b38565b83835b915091508e816dffffffffffffffffffffffffffff16836dffffffffffffffffffffffffffff1688670de0b6b3a7640000020281610b7957610b78610e77565b5b0481610b8857610b87610e77565b5b049c505050505050610b9a565b600097505b8987670de0b6b3a76400000281610bb457610bb3610e77565b5b049850610c597339cd4db6460d8b5961f73e997e86ddbb7ca4d5f673ffffffffffffffffffffffffffffffffffffffff1663ad615dec670de0b6b3a76400008c8b6040518463ffffffff1660e01b8152600401610c13939291906115e5565b602060405180830381865afa158015610c30573d6000803e3d6000fd5b505050506040513d601f19601f82011682018060405250810190610c54919061161c565b610c70565b610c628a610c70565b505050505050509250929050565b610d0681604051602401610c849190611649565b6040516020818303038152906040527ff82c50f1000000000000000000000000000000000000000000000000000000007bffffffffffffffffffffffffffffffffffffffffffffffffffffffff19166020820180517bffffffffffffffffffffffffffffffffffffffffffffffffffffffff8381831617835250505050610d09565b50565b610d2081610d18610d23610d44565b63ffffffff16565b50565b60006a636f6e736f6c652e6c6f679050600080835160208501845afa505050565b610d4f819050919050565b610d57611664565b565b600073ffffffffffffffffffffffffffffffffffffffff82169050919050565b6000610d8482610d59565b9050919050565b610d9481610d79565b82525050565b6000602082019050610daf6000830184610d8b565b92915050565b6000604051905090565b600080fd5b600080fd5b6000819050919050565b610ddc81610dc9565b8114610de757600080fd5b50565b600081359050610df981610dd3565b92915050565b60008060408385031215610e1657610e15610dbf565b5b6000610e2485828601610dea565b9250506020610e3585828601610dea565b9150509250929050565b610e4881610dc9565b82525050565b6000604082019050610e636000830185610e3f565b610e706020830184610e3f565b9392505050565b7f4e487b7100000000000000000000000000000000000000000000000000000000600052601260045260246000fd5b600081905092915050565b50565b6000610ec1600083610ea6565b9150610ecc82610eb1565b600082019050919050565b6000610ee282610eb4565b9150819050919050565b600082825260208201905092915050565b7f5472656173757279207472616e73666572206661696c65640000000000000000600082015250565b6000610f33601883610eec565b9150610f3e82610efd565b602082019050919050565b60006020820190508181036000830152610f6281610f26565b9050919050565b6000604082019050610f7e6000830185610d8b565b610f8b6020830184610e3f565b9392505050565b60008115159050919050565b610fa781610f92565b8114610fb257600080fd5b50565b600081519050610fc481610f9e565b92915050565b600060208284031215610fe057610fdf610dbf565b5b6000610fee84828501610fb5565b91505092915050565b7f4e487b7100000000000000000000000000000000000000000000000000000000600052604160045260246000fd5b7f4e487b7100000000000000000000000000000000000000000000000000000000600052603260045260246000fd5b6000819050919050565b6000819050919050565b600061108461107f61107a84611055565b61105f565b610dc9565b9050919050565b61109481611069565b82525050565b600081519050919050565b600082825260208201905092915050565b6000819050602082019050919050565b6110cf81610d79565b82525050565b60006110e183836110c6565b60208301905092915050565b6000602082019050919050565b60006111058261109a565b61110f81856110a5565b935061111a836110b6565b8060005b8381101561114b57815161113288826110d5565b975061113d836110ed565b92505060018101905061111e565b5085935050505092915050565b600060808201905061116d600083018761108b565b818103602083015261117f81866110fa565b905061118e6040830185610d8b565b61119b6060830184610e3f565b95945050505050565b600080fd5b6000601f19601f8301169050919050565b6111c3826111a9565b810181811067ffffffffffffffff821117156111e2576111e1610ff7565b5b80604052505050565b60006111f5610db5565b905061120182826111ba565b919050565b600067ffffffffffffffff82111561122157611220610ff7565b5b602082029050602081019050919050565b600080fd5b60008151905061124681610dd3565b92915050565b600061125f61125a84611206565b6111eb565b9050808382526020820190506020840283018581111561128257611281611232565b5b835b818110156112ab57806112978882611237565b845260208401935050602081019050611284565b5050509392505050565b600082601f8301126112ca576112c96111a4565b5b81516112da84826020860161124c565b91505092915050565b6000602082840312156112f9576112f8610dbf565b5b600082015167ffffffffffffffff81111561131757611316610dc4565b5b611323848285016112b5565b91505092915050565b600061010082019050611342600083018b610d8b565b61134f602083018a610d8b565b61135c6040830189610e3f565b6113696060830188610e3f565b6113766080830187610e3f565b61138360a0830186610e3f565b61139060c0830185610d8b565b61139d60e0830184610e3f565b9998505050505050505050565b6000806000606084860312156113c3576113c2610dbf565b5b60006113d186828701611237565b93505060206113e286828701611237565b92505060406113f386828701611237565b9150509250925092565b600060c0820190506114126000830189610d8b565b61141f6020830188610e3f565b61142c6040830187610e3f565b6114396060830186610e3f565b6114466080830185610d8b565b61145360a0830184610e3f565b979650505050505050565b60006040820190506114736000830185610e3f565b818103602083015261148581846110fa565b90509392505050565b60006040820190506114a36000830185610d8b565b6114b06020830184610d8b565b9392505050565b6114c081610d79565b81146114cb57600080fd5b50565b6000815190506114dd816114b7565b92915050565b6000602082840312156114f9576114f8610dbf565b5b6000611507848285016114ce565b91505092915050565b60006dffffffffffffffffffffffffffff82169050919050565b61153381611510565b811461153e57600080fd5b50565b6000815190506115508161152a565b92915050565b600063ffffffff82169050919050565b61156f81611556565b811461157a57600080fd5b50565b60008151905061158c81611566565b92915050565b6000806000606084860312156115ab576115aa610dbf565b5b60006115b986828701611541565b93505060206115ca86828701611541565b92505060406115db8682870161157d565b9150509250925092565b60006060820190506115fa6000830186610e3f565b6116076020830185610e3f565b6116146040830184610e3f565b949350505050565b60006020828403121561163257611631610dbf565b5b600061164084828501611237565b91505092915050565b600060208201905061165e6000830184610e3f565b92915050565b7f4e487b7100000000000000000000000000000000000000000000000000000000600052605160045260246000fdfea264697066735822122074c5ac16c7fa17aff6f1b0e6c2bc46f8269a10d24677eb4c251913a309c3d2db64736f6c63430008180033",
  "linkReferences": {},
  "deployedLinkReferences": {}
}