{
  "_format": "hh-sol-artifact-1",
  "contractName": "MemeCoinDeployer",
  "sourceName": "contracts/MemeCoinDeployer.sol",
  "abi": [
    {
      "inputs": [
        {
          "internalType": "address",
          "name": "formula_",
          "type": "address"
        },
        {
          "internalType": "address",
          "name": "listingManager_",
          "type": "address"
        }
      ],
      "stateMutability": "nonpayable",
      "type": "constructor"
    },
    {
      "anonymous": false,
      "inputs": [
        {
          "indexed": true,
          "internalType": "address",
          "name": "creator",
          "type": "address"
        },
        {
          "indexed": true,
          "internalType": "address",
          "name": "memecoin",
          "type": "address"
        }
      ],
      "name": "MemeCoinDeployed",
      "type": "event"
    },
    {
      "inputs": [
        {
          "internalType": "uint256",
          "name": "",
          "type": "uint256"
        }
      ],
      "name": "allMemecoins",
      "outputs": [
        {
          "internalType": "address",
          "name": "",
          "type": "address"
        }
      ],
      "stateMutability": "view",
      "type": "function"
    },
    {
      "inputs": [],
      "name": "allMemecoinsCount",
      "outputs": [
        {
          "internalType": "uint32",
          "name": "",
          "type": "uint32"
        }
      ],
      "stateMutability": "view",
      "type": "function"
    },
    {
      "inputs": [
        {
          "internalType": "uint96",
          "name": "cap",
          "type": "uint96"
        },
        {
          "internalType": "uint16",
          "name": "powerN",
          "type": "uint16"
        },
        {
          "internalType": "uint16",
          "name": "powerD",
          "type": "uint16"
        },
        {
          "internalType": "uint16",
          "name": "factorN",
          "type": "uint16"
        },
        {
          "internalType": "uint16",
          "name": "factorD",
          "type": "uint16"
        },
        {
          "internalType": "string",
          "name": "name",
          "type": "string"
        },
        {
          "internalType": "string",
          "name": "symbol",
          "type": "string"
        },
        {
          "internalType": "string",
          "name": "description",
          "type": "string"
        },
        {
          "internalType": "string",
          "name": "image",
          "type": "string"
        }
      ],
      "name": "deploy",
      "outputs": [
        {
          "internalType": "address",
          "name": "memecoin",
          "type": "address"
        }
      ],
      "stateMutability": "payable",
      "type": "function"
    },
    {
      "inputs": [],
      "name": "erc20Parameters",
      "outputs": [
        {
          "components": [
            {
              "internalType": "string",
              "name": "name",
              "type": "string"
            },
            {
              "internalType": "string",
              "name": "symbol",
              "type": "string"
            }
          ],
          "internalType": "struct IERC20ParametersPacker.ERC20Parameters",
          "name": "",
          "type": "tuple"
        }
      ],
      "stateMutability": "view",
      "type": "function"
    },
    {
      "inputs": [],
      "name": "formula",
      "outputs": [
        {
          "internalType": "address",
          "name": "",
          "type": "address"
        }
      ],
      "stateMutability": "view",
      "type": "function"
    },
    {
      "inputs": [
        {
          "internalType": "string",
          "name": "symbol",
          "type": "string"
        }
      ],
      "name": "getAddress",
      "outputs": [
        {
          "internalType": "address",
          "name": "memecoin",
          "type": "address"
        }
      ],
      "stateMutability": "view",
      "type": "function"
    },
    {
      "inputs": [
        {
          "internalType": "address",
          "name": "memecoin",
          "type": "address"
        }
      ],
      "name": "isMemeCoinLegit",
      "outputs": [
        {
          "internalType": "bool",
          "name": "",
          "type": "bool"
        }
      ],
      "stateMutability": "view",
      "type": "function"
    },
    {
      "inputs": [],
      "name": "listingManager",
      "outputs": [
        {
          "internalType": "address",
          "name": "",
          "type": "address"
        }
      ],
      "stateMutability": "view",
      "type": "function"
    },
    {
      "inputs": [],
      "name": "parameters",
      "outputs": [
        {
          "internalType": "address",
          "name": "listingManager",
          "type": "address"
        },
        {
          "internalType": "uint96",
          "name": "cap",
          "type": "uint96"
        },
        {
          "internalType": "address",
          "name": "formula",
          "type": "address"
        },
        {
          "internalType": "uint16",
          "name": "powerN",
          "type": "uint16"
        },
        {
          "internalType": "uint16",
          "name": "powerD",
          "type": "uint16"
        },
        {
          "internalType": "uint16",
          "name": "factorN",
          "type": "uint16"
        },
        {
          "internalType": "uint16",
          "name": "factorD",
          "type": "uint16"
        },
        {
          "internalType": "uint32",
          "name": "coinIndex",
          "type": "uint32"
        },
        {
          "internalType": "address",
          "name": "owner",
          "type": "address"
        },
        {
          "internalType": "string",
          "name": "description",
          "type": "string"
        },
        {
          "internalType": "string",
          "name": "image",
          "type": "string"
        }
      ],
      "stateMutability": "view",
      "type": "function"
    }
  ],
  "bytecode": "0x60c06040523480156200001157600080fd5b5060405162005f0e38038062005f0e833981810160405281019062000037919062000111565b8173ffffffffffffffffffffffffffffffffffffffff1660808173ffffffffffffffffffffffffffffffffffffffff16815250508073ffffffffffffffffffffffffffffffffffffffff1660a08173ffffffffffffffffffffffffffffffffffffffff1681525050505062000158565b600080fd5b600073ffffffffffffffffffffffffffffffffffffffff82169050919050565b6000620000d982620000ac565b9050919050565b620000eb81620000cc565b8114620000f757600080fd5b50565b6000815190506200010b81620000e0565b92915050565b600080604083850312156200012b576200012a620000a7565b5b60006200013b85828601620000fa565b92505060206200014e85828601620000fa565b9150509250929050565b60805160a051615d826200018c600039600081816102a30152610dee0152600081816102f3015261086b0152615d826000f3fe608060405260043610620000925760003560e01c8063890357301162000061578063890357301462000171578063bf40fac114620001ab578063edd1533314620001ef578063fda20c32146200021f578063fdbddd5614620002635762000092565b80632617f22514620000975780634b75f54f14620000cd5780636a94eb6514620000fd578063782d23e01462000141575b600080fd5b620000b56004803603810190620000af91906200109b565b62000293565b604051620000c491906200123b565b60405180910390f35b348015620000da57600080fd5b50620000e562000869565b604051620000f491906200123b565b60405180910390f35b3480156200010a57600080fd5b5062000129600480360381019062000123919062001289565b6200088d565b604051620001389190620012d8565b60405180910390f35b3480156200014e57600080fd5b506200015962000988565b604051620001689190620013c6565b60405180910390f35b3480156200017e57600080fd5b506200018962000ad8565b604051620001a29b9a999897969594939291906200147f565b60405180910390f35b348015620001b857600080fd5b50620001d76004803603810190620001d191906200154e565b62000d00565b604051620001e691906200123b565b60405180910390f35b348015620001fc57600080fd5b506200020762000d98565b6040516200021691906200159f565b60405180910390f35b3480156200022c57600080fd5b506200024b6004803603810190620002459190620015f7565b62000dac565b6040516200025a91906200123b565b60405180910390f35b3480156200027057600080fd5b506200027b62000dec565b6040516200028a91906200123b565b60405180910390f35b60006040518061016001604052807f000000000000000000000000000000000000000000000000000000000000000073ffffffffffffffffffffffffffffffffffffffff1681526020018b6bffffffffffffffffffffffff1681526020017f000000000000000000000000000000000000000000000000000000000000000073ffffffffffffffffffffffffffffffffffffffff1681526020018a61ffff1681526020018961ffff1681526020018861ffff1681526020018761ffff16815260200160008054906101000a900463ffffffff1663ffffffff1681526020013373ffffffffffffffffffffffffffffffffffffffff16815260200184815260200183815250600360008201518160000160006101000a81548173ffffffffffffffffffffffffffffffffffffffff021916908373ffffffffffffffffffffffffffffffffffffffff16021790555060208201518160000160146101000a8154816bffffffffffffffffffffffff02191690836bffffffffffffffffffffffff16021790555060408201518160010160006101000a81548173ffffffffffffffffffffffffffffffffffffffff021916908373ffffffffffffffffffffffffffffffffffffffff16021790555060608201518160010160146101000a81548161ffff021916908361ffff16021790555060808201518160010160166101000a81548161ffff021916908361ffff16021790555060a08201518160010160186101000a81548161ffff021916908361ffff16021790555060c082015181600101601a6101000a81548161ffff021916908361ffff16021790555060e082015181600101601c6101000a81548163ffffffff021916908363ffffffff1602179055506101008201518160020160006101000a81548173ffffffffffffffffffffffffffffffffffffffff021916908373ffffffffffffffffffffffffffffffffffffffff1602179055506101208201518160030190816200057191906200185f565b506101408201518160040190816200058a91906200185f565b5090505060405180604001604052808681526020018581525060016000820151816000019081620005bc91906200185f565b506020820151816001019081620005d491906200185f565b50905050838051906020012034604051620005ef9062000e10565b82906040518091039083f5905090508015801562000611573d6000803e3d6000fd5b5090506003600080820160006101000a81549073ffffffffffffffffffffffffffffffffffffffff02191690556000820160146101000a8154906bffffffffffffffffffffffff02191690556001820160006101000a81549073ffffffffffffffffffffffffffffffffffffffff02191690556001820160146101000a81549061ffff02191690556001820160166101000a81549061ffff02191690556001820160186101000a81549061ffff021916905560018201601a6101000a81549061ffff021916905560018201601c6101000a81549063ffffffff02191690556002820160006101000a81549073ffffffffffffffffffffffffffffffffffffffff021916905560038201600062000728919062000e1e565b6004820160006200073a919062000e1e565b505060016000808201600062000751919062000e1e565b60018201600062000763919062000e1e565b50508073ffffffffffffffffffffffffffffffffffffffff163373ffffffffffffffffffffffffffffffffffffffff167fcceb4c64f280681aded6878f548bfcbdd7092772e58d94d18d40c23c3702e60c60405160405180910390a36008819080600181540180825580915050600190039060005260206000200160009091909190916101000a81548173ffffffffffffffffffffffffffffffffffffffff021916908373ffffffffffffffffffffffffffffffffffffffff16021790555060008081819054906101000a900463ffffffff168092919060010191906101000a81548163ffffffff021916908363ffffffff160217905550509998505050505050505050565b7f000000000000000000000000000000000000000000000000000000000000000081565b60008173ffffffffffffffffffffffffffffffffffffffff16632604772c6040518163ffffffff1660e01b8152600401602060405180830381865afa925050508015620008fa57506040513d601f19601f82011682018060405250810190620008f7919062001977565b60015b62000909576000905062000983565b8273ffffffffffffffffffffffffffffffffffffffff1660088263ffffffff16815481106200093d576200093c620019a9565b5b9060005260206000200160009054906101000a900473ffffffffffffffffffffffffffffffffffffffff1673ffffffffffffffffffffffffffffffffffffffff16149150505b919050565b6200099262000e64565b6001604051806040016040529081600082018054620009b19062001658565b80601f0160208091040260200160405190810160405280929190818152602001828054620009df9062001658565b801562000a305780601f1062000a045761010080835404028352916020019162000a30565b820191906000526020600020905b81548152906001019060200180831162000a1257829003601f168201915b5050505050815260200160018201805462000a4b9062001658565b80601f016020809104026020016040519081016040528092919081815260200182805462000a799062001658565b801562000aca5780601f1062000a9e5761010080835404028352916020019162000aca565b820191906000526020600020905b81548152906001019060200180831162000aac57829003601f168201915b505050505081525050905090565b60038060000160009054906101000a900473ffffffffffffffffffffffffffffffffffffffff16908060000160149054906101000a90046bffffffffffffffffffffffff16908060010160009054906101000a900473ffffffffffffffffffffffffffffffffffffffff16908060010160149054906101000a900461ffff16908060010160169054906101000a900461ffff16908060010160189054906101000a900461ffff169080600101601a9054906101000a900461ffff169080600101601c9054906101000a900463ffffffff16908060020160009054906101000a900473ffffffffffffffffffffffffffffffffffffffff169080600301805462000be19062001658565b80601f016020809104026020016040519081016040528092919081815260200182805462000c0f9062001658565b801562000c605780601f1062000c345761010080835404028352916020019162000c60565b820191906000526020600020905b81548152906001019060200180831162000c4257829003601f168201915b50505050509080600401805462000c779062001658565b80601f016020809104026020016040519081016040528092919081815260200182805462000ca59062001658565b801562000cf65780601f1062000cca5761010080835404028352916020019162000cf6565b820191906000526020600020905b81548152906001019060200180831162000cd857829003601f168201915b505050505090508b565b6000808280519060200120905060ff60f81b30826040518060200162000d269062000e10565b6020820181038252601f19601f8201166040525060405160200162000d4c919062001a25565b6040516020818303038152906040528051906020012060405160200162000d77949392919062001b0e565b6040516020818303038152906040528051906020012060001c915050919050565b60008054906101000a900463ffffffff1681565b6008818154811062000dbd57600080fd5b906000526020600020016000915054906101000a900473ffffffffffffffffffffffffffffffffffffffff1681565b7f000000000000000000000000000000000000000000000000000000000000000081565b6141e88062001b6583390190565b50805462000e2c9062001658565b6000825580601f1062000e40575062000e61565b601f01602090049060005260206000209081019062000e60919062000e7e565b5b50565b604051806040016040528060608152602001606081525090565b5b8082111562000e9957600081600090555060010162000e7f565b5090565b6000604051905090565b600080fd5b600080fd5b60006bffffffffffffffffffffffff82169050919050565b62000ed48162000eb1565b811462000ee057600080fd5b50565b60008135905062000ef48162000ec9565b92915050565b600061ffff82169050919050565b62000f138162000efa565b811462000f1f57600080fd5b50565b60008135905062000f338162000f08565b92915050565b600080fd5b600080fd5b6000601f19601f8301169050919050565b7f4e487b7100000000000000000000000000000000000000000000000000000000600052604160045260246000fd5b62000f8e8262000f43565b810181811067ffffffffffffffff8211171562000fb05762000faf62000f54565b5b80604052505050565b600062000fc562000e9d565b905062000fd3828262000f83565b919050565b600067ffffffffffffffff82111562000ff65762000ff562000f54565b5b620010018262000f43565b9050602081019050919050565b82818337600083830152505050565b6000620010346200102e8462000fd8565b62000fb9565b90508281526020810184848401111562001053576200105262000f3e565b5b620010608482856200100e565b509392505050565b600082601f83011262001080576200107f62000f39565b5b8135620010928482602086016200101d565b91505092915050565b60008060008060008060008060006101208a8c031215620010c157620010c062000ea7565b5b6000620010d18c828d0162000ee3565b9950506020620010e48c828d0162000f22565b9850506040620010f78c828d0162000f22565b97505060606200110a8c828d0162000f22565b96505060806200111d8c828d0162000f22565b95505060a08a013567ffffffffffffffff81111562001141576200114062000eac565b5b6200114f8c828d0162001068565b94505060c08a013567ffffffffffffffff81111562001173576200117262000eac565b5b620011818c828d0162001068565b93505060e08a013567ffffffffffffffff811115620011a557620011a462000eac565b5b620011b38c828d0162001068565b9250506101008a013567ffffffffffffffff811115620011d857620011d762000eac565b5b620011e68c828d0162001068565b9150509295985092959850929598565b600073ffffffffffffffffffffffffffffffffffffffff82169050919050565b60006200122382620011f6565b9050919050565b620012358162001216565b82525050565b60006020820190506200125260008301846200122a565b92915050565b620012638162001216565b81146200126f57600080fd5b50565b600081359050620012838162001258565b92915050565b600060208284031215620012a257620012a162000ea7565b5b6000620012b28482850162001272565b91505092915050565b60008115159050919050565b620012d281620012bb565b82525050565b6000602082019050620012ef6000830184620012c7565b92915050565b600081519050919050565b600082825260208201905092915050565b60005b838110156200133157808201518184015260208101905062001314565b60008484015250505050565b60006200134a82620012f5565b62001356818562001300565b93506200136881856020860162001311565b620013738162000f43565b840191505092915050565b600060408301600083015184820360008601526200139d82826200133d565b91505060208301518482036020860152620013b982826200133d565b9150508091505092915050565b60006020820190508181036000830152620013e281846200137e565b905092915050565b620013f58162000eb1565b82525050565b620014068162000efa565b82525050565b600063ffffffff82169050919050565b62001427816200140c565b82525050565b600082825260208201905092915050565b60006200144b82620012f5565b6200145781856200142d565b93506200146981856020860162001311565b620014748162000f43565b840191505092915050565b60006101608201905062001497600083018e6200122a565b620014a6602083018d620013ea565b620014b5604083018c6200122a565b620014c4606083018b620013fb565b620014d3608083018a620013fb565b620014e260a0830189620013fb565b620014f160c0830188620013fb565b6200150060e08301876200141c565b620015106101008301866200122a565b8181036101208301526200152581856200143e565b90508181036101408301526200153c81846200143e565b90509c9b505050505050505050505050565b60006020828403121562001567576200156662000ea7565b5b600082013567ffffffffffffffff81111562001588576200158762000eac565b5b620015968482850162001068565b91505092915050565b6000602082019050620015b660008301846200141c565b92915050565b6000819050919050565b620015d181620015bc565b8114620015dd57600080fd5b50565b600081359050620015f181620015c6565b92915050565b60006020828403121562001610576200160f62000ea7565b5b60006200162084828501620015e0565b91505092915050565b7f4e487b7100000000000000000000000000000000000000000000000000000000600052602260045260246000fd5b600060028204905060018216806200167157607f821691505b60208210810362001687576200168662001629565b5b50919050565b60008190508160005260206000209050919050565b60006020601f8301049050919050565b600082821b905092915050565b600060088302620016f17fffffffffffffffffffffffffffffffffffffffffffffffffffffffffffffffff82620016b2565b620016fd8683620016b2565b95508019841693508086168417925050509392505050565b6000819050919050565b6000620017406200173a6200173484620015bc565b62001715565b620015bc565b9050919050565b6000819050919050565b6200175c836200171f565b620017746200176b8262001747565b848454620016bf565b825550505050565b600090565b6200178b6200177c565b6200179881848462001751565b505050565b5b81811015620017c057620017b460008262001781565b6001810190506200179e565b5050565b601f8211156200180f57620017d9816200168d565b620017e484620016a2565b81016020851015620017f4578190505b6200180c6200180385620016a2565b8301826200179d565b50505b505050565b600082821c905092915050565b6000620018346000198460080262001814565b1980831691505092915050565b60006200184f838362001821565b9150826002028217905092915050565b6200186a82620012f5565b67ffffffffffffffff81111562001886576200188562000f54565b5b62001892825462001658565b6200189f828285620017c4565b600060209050601f831160018114620018d75760008415620018c2578287015190505b620018ce858262001841565b8655506200193e565b601f198416620018e7866200168d565b60005b828110156200191157848901518255600182019150602085019450602081019050620018ea565b868310156200193157848901516200192d601f89168262001821565b8355505b6001600288020188555050505b505050505050565b62001951816200140c565b81146200195d57600080fd5b50565b600081519050620019718162001946565b92915050565b60006020828403121562001990576200198f62000ea7565b5b6000620019a08482850162001960565b91505092915050565b7f4e487b7100000000000000000000000000000000000000000000000000000000600052603260045260246000fd5b600081519050919050565b600081905092915050565b6000620019fb82620019d8565b62001a078185620019e3565b935062001a1981856020860162001311565b80840191505092915050565b600062001a338284620019ee565b915081905092915050565b60007fff0000000000000000000000000000000000000000000000000000000000000082169050919050565b6000819050919050565b62001a8962001a838262001a3e565b62001a6a565b82525050565b60008160601b9050919050565b600062001aa98262001a8f565b9050919050565b600062001abd8262001a9c565b9050919050565b62001ad962001ad38262001216565b62001ab0565b82525050565b6000819050919050565b6000819050919050565b62001b0862001b028262001adf565b62001ae9565b82525050565b600062001b1c828762001a74565b60018201915062001b2e828662001ac4565b60148201915062001b40828562001af3565b60208201915062001b52828462001af3565b6020820191508190509594505050505056fe610180604052620000156200033560201b60201c565b73ffffffffffffffffffffffffffffffffffffffff1663782d23e06040518163ffffffff1660e01b8152600401600060405180830381865afa15801562000060573d6000803e3d6000fd5b505050506040513d6000823e3d601f19601f820116820180604052508101906200008b919062000da8565b806000015181602001518160039081620000a6919062001044565b508060049081620000b8919062001044565b505050506000620000ce6200033560201b60201c565b90508073ffffffffffffffffffffffffffffffffffffffff1663890357306040518163ffffffff1660e01b8152600401600060405180830381865afa1580156200011c573d6000803e3d6000fd5b505050506040513d6000823e3d601f19601f8201168201806040525081019062000147919062001259565b60056000600660006007600086919050908162000165919062001044565b5085919050908162000178919062001044565b508473ffffffffffffffffffffffffffffffffffffffff166101609073ffffffffffffffffffffffffffffffffffffffff168152508563ffffffff166101409063ffffffff168152508661ffff166101209061ffff168152508761ffff166101009061ffff168152508861ffff1660e09061ffff168152508961ffff1660c09061ffff168152508a73ffffffffffffffffffffffffffffffffffffffff1660a09073ffffffffffffffffffffffffffffffffffffffff168152508b91906101000a8154816bffffffffffffffffffffffff02191690836bffffffffffffffffffffffff1602179055508a73ffffffffffffffffffffffffffffffffffffffff1660809073ffffffffffffffffffffffffffffffffffffffff1681525050505050505050505050506000600560009054906101000a90046bffffffffffffffffffffffff166bffffffffffffffffffffffff16116200030d576040517f08c379a0000000000000000000000000000000000000000000000000000000008152600401620003049062001405565b60405180910390fd5b60003411156200032e576200032d6101605160006200033d60201b60201c565b5b50620019cd565b600033905090565b60003490506000600560009054906101000a90046bffffffffffffffffffffffff166bffffffffffffffffffffffff16905060004790508181106200038a57600082820390508084039350505b60006200039e84346200047e60201b60201c565b905084811015620003e6576040517f08c379a0000000000000000000000000000000000000000000000000000000008152600401620003dd9062001477565b60405180910390fd5b620003f886826200057660201b60201c565b8573ffffffffffffffffffffffffffffffffffffffff167f94c792774c59479f7bd68442f3af3691c02123a5aabee8b6f9116d8af8aa66698286620004426200060360201b60201c565b42604051620004559493929190620014aa565b60405180910390a28247106200047657620004756200060d60201b60201c565b5b505050505050565b60008060e05160c0510161ffff16905060006101205161ffff168263ffffffff16868647030102029050600060e051610100510261ffff16905060008060a05173ffffffffffffffffffffffffffffffffffffffff166332833d51858560e051896040518563ffffffff1660e01b815260040162000500949392919062001541565b6040805180830381865afa1580156200051d573d6000803e3d6000fd5b505050506040513d601f19601f82011682018060405250810190620005439190620015fd565b91509150620005576200060360201b60201c565b670de0b6b3a76400008260ff1684901c02039550505050505092915050565b600073ffffffffffffffffffffffffffffffffffffffff168273ffffffffffffffffffffffffffffffffffffffff1603620005eb5760006040517fec442f05000000000000000000000000000000000000000000000000000000008152600401620005e2919062001655565b60405180910390fd5b620005ff600083836200086460201b60201c565b5050565b6000600254905090565b600060805190506000808273ffffffffffffffffffffffffffffffffffffffff1663bac95fff600560009054906101000a90046bffffffffffffffffffffffff166200065e62000a9460201b60201c565b6040518363ffffffff1660e01b81526004016200067d929190620016ab565b60408051808303816000875af11580156200069c573d6000803e3d6000fd5b505050506040513d601f19601f82011682018060405250810190620006c29190620016d8565b91509150620006da838284016200057660201b60201c565b8273ffffffffffffffffffffffffffffffffffffffff1663a226f279600560009054906101000a90046bffffffffffffffffffffffff166bffffffffffffffffffffffff1684846040518463ffffffff1660e01b8152600401620007409291906200171f565b6000604051808303818588803b1580156200075a57600080fd5b505af11580156200076f573d6000803e3d6000fd5b5050505050600047111562000842576000620007906200033560201b60201c565b73ffffffffffffffffffffffffffffffffffffffff1647604051620007b59062001781565b60006040518083038185875af1925050503d8060008114620007f4576040519150601f19603f3d011682016040523d82523d6000602084013e620007f9565b606091505b505090508062000840576040517f08c379a00000000000000000000000000000000000000000000000000000000081526004016200083790620017e8565b60405180910390fd5b505b600560006101000a8154906bffffffffffffffffffffffff0219169055505050565b600073ffffffffffffffffffffffffffffffffffffffff168373ffffffffffffffffffffffffffffffffffffffff1603620008ba578060026000828254620008ad919062001839565b9250508190555062000990565b60008060008573ffffffffffffffffffffffffffffffffffffffff1673ffffffffffffffffffffffffffffffffffffffff1681526020019081526020016000205490508181101562000949578381836040517fe450d38c000000000000000000000000000000000000000000000000000000008152600401620009409392919062001874565b60405180910390fd5b8181036000808673ffffffffffffffffffffffffffffffffffffffff1673ffffffffffffffffffffffffffffffffffffffff16815260200190815260200160002081905550505b600073ffffffffffffffffffffffffffffffffffffffff168273ffffffffffffffffffffffffffffffffffffffff1603620009db578060026000828254039250508190555062000a28565b806000808473ffffffffffffffffffffffffffffffffffffffff1673ffffffffffffffffffffffffffffffffffffffff168152602001908152602001600020600082825401925050819055505b8173ffffffffffffffffffffffffffffffffffffffff168373ffffffffffffffffffffffffffffffffffffffff167fddf252ad1be2c89b69c2b068fc378daa952ba7f163c4a11628f55a4df523b3ef8360405162000a879190620018b1565b60405180910390a3505050565b600080600060a05173ffffffffffffffffffffffffffffffffffffffff166332833d5162000ac76200060360201b60201c565b670de0b6b3a764000060c05160e0516040518563ffffffff1660e01b815260040162000af79493929190620018ce565b6040805180830381865afa15801562000b14573d6000803e3d6000fd5b505050506040513d601f19601f8201168201806040525081019062000b3a9190620015fd565b915091506101205161ffff166101005161ffff168260ff1684901c62000b6191906200191b565b62000b6d919062001995565b9250505090565b6000604051905090565b600080fd5b600080fd5b600080fd5b6000601f19601f8301169050919050565b7f4e487b7100000000000000000000000000000000000000000000000000000000600052604160045260246000fd5b62000bd88262000b8d565b810181811067ffffffffffffffff8211171562000bfa5762000bf962000b9e565b5b80604052505050565b600062000c0f62000b74565b905062000c1d828262000bcd565b919050565b600080fd5b600080fd5b600080fd5b600067ffffffffffffffff82111562000c4f5762000c4e62000b9e565b5b62000c5a8262000b8d565b9050602081019050919050565b60005b8381101562000c8757808201518184015260208101905062000c6a565b60008484015250505050565b600062000caa62000ca48462000c31565b62000c03565b90508281526020810184848401111562000cc95762000cc862000c2c565b5b62000cd684828562000c67565b509392505050565b600082601f83011262000cf65762000cf562000c27565b5b815162000d0884826020860162000c93565b91505092915050565b60006040828403121562000d2a5762000d2962000b88565b5b62000d36604062000c03565b9050600082015167ffffffffffffffff81111562000d595762000d5862000c22565b5b62000d678482850162000cde565b600083015250602082015167ffffffffffffffff81111562000d8e5762000d8d62000c22565b5b62000d9c8482850162000cde565b60208301525092915050565b60006020828403121562000dc15762000dc062000b7e565b5b600082015167ffffffffffffffff81111562000de25762000de162000b83565b5b62000df08482850162000d11565b91505092915050565b600081519050919050565b7f4e487b7100000000000000000000000000000000000000000000000000000000600052602260045260246000fd5b6000600282049050600182168062000e4c57607f821691505b60208210810362000e625762000e6162000e04565b5b50919050565b60008190508160005260206000209050919050565b60006020601f8301049050919050565b600082821b905092915050565b60006008830262000ecc7fffffffffffffffffffffffffffffffffffffffffffffffffffffffffffffffff8262000e8d565b62000ed8868362000e8d565b95508019841693508086168417925050509392505050565b6000819050919050565b6000819050919050565b600062000f2562000f1f62000f198462000ef0565b62000efa565b62000ef0565b9050919050565b6000819050919050565b62000f418362000f04565b62000f5962000f508262000f2c565b84845462000e9a565b825550505050565b600090565b62000f7062000f61565b62000f7d81848462000f36565b505050565b5b8181101562000fa55762000f9960008262000f66565b60018101905062000f83565b5050565b601f82111562000ff45762000fbe8162000e68565b62000fc98462000e7d565b8101602085101562000fd9578190505b62000ff162000fe88562000e7d565b83018262000f82565b50505b505050565b600082821c905092915050565b6000620010196000198460080262000ff9565b1980831691505092915050565b600062001034838362001006565b9150826002028217905092915050565b6200104f8262000df9565b67ffffffffffffffff8111156200106b576200106a62000b9e565b5b62001077825462000e33565b6200108482828562000fa9565b600060209050601f831160018114620010bc5760008415620010a7578287015190505b620010b3858262001026565b86555062001123565b601f198416620010cc8662000e68565b60005b82811015620010f657848901518255600182019150602085019450602081019050620010cf565b8683101562001116578489015162001112601f89168262001006565b8355505b6001600288020188555050505b505050505050565b600073ffffffffffffffffffffffffffffffffffffffff82169050919050565b600062001158826200112b565b9050919050565b6200116a816200114b565b81146200117657600080fd5b50565b6000815190506200118a816200115f565b92915050565b60006bffffffffffffffffffffffff82169050919050565b620011b38162001190565b8114620011bf57600080fd5b50565b600081519050620011d381620011a8565b92915050565b600061ffff82169050919050565b620011f281620011d9565b8114620011fe57600080fd5b50565b6000815190506200121281620011e7565b92915050565b600063ffffffff82169050919050565b620012338162001218565b81146200123f57600080fd5b50565b600081519050620012538162001228565b92915050565b60008060008060008060008060008060006101608c8e03121562001282576200128162000b7e565b5b6000620012928e828f0162001179565b9b50506020620012a58e828f01620011c2565b9a50506040620012b88e828f0162001179565b9950506060620012cb8e828f0162001201565b9850506080620012de8e828f0162001201565b97505060a0620012f18e828f0162001201565b96505060c0620013048e828f0162001201565b95505060e0620013178e828f0162001242565b9450506101006200132b8e828f0162001179565b9350506101208c015167ffffffffffffffff81111562001350576200134f62000b83565b5b6200135e8e828f0162000cde565b9250506101408c015167ffffffffffffffff81111562001383576200138262000b83565b5b620013918e828f0162000cde565b9150509295989b509295989b9093969950565b600082825260208201905092915050565b7f506f736974697665206361702065787065637465640000000000000000000000600082015250565b6000620013ed601583620013a4565b9150620013fa82620013b5565b602082019050919050565b600060208201905081810360008301526200142081620013de565b9050919050565b7f496e73756666696369656e74206f757470757420746f6b656e20616d6f756e74600082015250565b60006200145f602083620013a4565b91506200146c8262001427565b602082019050919050565b60006020820190508181036000830152620014928162001450565b9050919050565b620014a48162000ef0565b82525050565b6000608082019050620014c1600083018762001499565b620014d0602083018662001499565b620014df604083018562001499565b620014ee606083018462001499565b95945050505050565b600062001518620015126200150c84620011d9565b62000efa565b62001218565b9050919050565b6200152a81620014f7565b82525050565b6200153b8162001218565b82525050565b600060808201905062001558600083018762001499565b62001567602083018662001499565b6200157660408301856200151f565b62001585606083018462001530565b95945050505050565b620015998162000ef0565b8114620015a557600080fd5b50565b600081519050620015b9816200158e565b92915050565b600060ff82169050919050565b620015d781620015bf565b8114620015e357600080fd5b50565b600081519050620015f781620015cc565b92915050565b6000806040838503121562001617576200161662000b7e565b5b60006200162785828601620015a8565b92505060206200163a85828601620015e6565b9150509250929050565b6200164f816200114b565b82525050565b60006020820190506200166c600083018462001644565b92915050565b6000620016936200168d620016878462001190565b62000efa565b62000ef0565b9050919050565b620016a58162001672565b82525050565b6000604082019050620016c260008301856200169a565b620016d1602083018462001499565b9392505050565b60008060408385031215620016f257620016f162000b7e565b5b60006200170285828601620015a8565b92505060206200171585828601620015a8565b9150509250929050565b600060408201905062001736600083018562001499565b62001745602083018462001499565b9392505050565b600081905092915050565b50565b6000620017696000836200174c565b9150620017768262001757565b600082019050919050565b60006200178e826200175a565b9150819050919050565b7f4c6566746f766572207472616e73666572206661696c65640000000000000000600082015250565b6000620017d0601883620013a4565b9150620017dd8262001798565b602082019050919050565b600060208201905081810360008301526200180381620017c1565b9050919050565b7f4e487b7100000000000000000000000000000000000000000000000000000000600052601160045260246000fd5b6000620018468262000ef0565b9150620018538362000ef0565b92508282019050808211156200186e576200186d6200180a565b5b92915050565b60006060820190506200188b600083018662001644565b6200189a602083018562001499565b620018a9604083018462001499565b949350505050565b6000602082019050620018c8600083018462001499565b92915050565b6000608082019050620018e5600083018762001499565b620018f4602083018662001499565b6200190360408301856200151f565b6200191260608301846200151f565b95945050505050565b6000620019288262000ef0565b9150620019358362000ef0565b9250828202620019458162000ef0565b915082820484148315176200195f576200195e6200180a565b5b5092915050565b7f4e487b7100000000000000000000000000000000000000000000000000000000600052601260045260246000fd5b6000620019a28262000ef0565b9150620019af8362000ef0565b925082620019c257620019c162001966565b5b828204905092915050565b60805160a05160c05160e0516101005161012051610140516101605161273062001ab86000396000610b950152600061064c015260008181610a1b01528181610d4201528181610ecd01526112ab015260008181610a6501528181610d6701528181610ea801526113030152600081816108dd0152818161099001528181610a4001528181610cbe01528181610e8301528181611260015281816112e2015261136c0152600081816108fe01528181610c9d01528181610e5e015261128101526000818161094901528181610c50015261132e01526000818161101501526119b201526127306000f3fe6080604052600436106101355760003560e01c80637284e416116100ab578063a10954fe1161006f578063a10954fe14610433578063a9059cbb1461045e578063afd4c8d61461049b578063dd62ed3e146104c9578063f3ccaac014610506578063fdbddd561461053157610135565b80637284e4161461036b5780638da5cb5b1461039657806395d89b41146103c1578063a035b1fe146103ec578063a0712d681461041757610135565b8063293a7f2e116100fd578063293a7f2e14610235578063313ce5671461025e578063322d210014610289578063355274ea146102c657806369fcd4ac146102f157806370a082311461032e57610135565b806306fdde031461013a578063095ea7b31461016557806318160ddd146101a257806323b872dd146101cd5780632604772c1461020a575b600080fd5b34801561014657600080fd5b5061014f61055c565b60405161015c9190611c8a565b60405180910390f35b34801561017157600080fd5b5061018c60048036038101906101879190611d45565b6105ee565b6040516101999190611da0565b60405180910390f35b3480156101ae57600080fd5b506101b7610611565b6040516101c49190611dca565b60405180910390f35b3480156101d957600080fd5b506101f460048036038101906101ef9190611de5565b61061b565b6040516102019190611da0565b60405180910390f35b34801561021657600080fd5b5061021f61064a565b60405161022c9190611e57565b60405180910390f35b34801561024157600080fd5b5061025c60048036038101906102579190611e72565b61066e565b005b34801561026a57600080fd5b5061027361089d565b6040516102809190611ece565b60405180910390f35b34801561029557600080fd5b506102b060048036038101906102ab9190611ee9565b6108a6565b6040516102bd9190611dca565b60405180910390f35b3480156102d257600080fd5b506102db6108ba565b6040516102e89190611f3d565b60405180910390f35b3480156102fd57600080fd5b5061031860048036038101906103139190611ee9565b6108d8565b6040516103259190611dca565b60405180910390f35b34801561033a57600080fd5b5061035560048036038101906103509190611f58565b610abd565b6040516103629190611dca565b60405180910390f35b34801561037757600080fd5b50610380610b05565b60405161038d9190611c8a565b60405180910390f35b3480156103a257600080fd5b506103ab610b93565b6040516103b89190611f94565b60405180910390f35b3480156103cd57600080fd5b506103d6610bb7565b6040516103e39190611c8a565b60405180910390f35b3480156103f857600080fd5b50610401610c49565b60405161040e9190611dca565b60405180910390f35b610431600480360381019061042c9190611ee9565b610dac565b005b34801561043f57600080fd5b50610448610e2b565b6040516104559190611dca565b60405180910390f35b34801561046a57600080fd5b5061048560048036038101906104809190611d45565b610e33565b6040516104929190611da0565b60405180910390f35b3480156104a757600080fd5b506104b0610e56565b6040516104c09493929190611faf565b60405180910390f35b3480156104d557600080fd5b506104f060048036038101906104eb9190611ff4565b610efe565b6040516104fd9190611dca565b60405180910390f35b34801561051257600080fd5b5061051b610f85565b6040516105289190611c8a565b60405180910390f35b34801561053d57600080fd5b50610546611013565b6040516105539190611f94565b60405180910390f35b60606003805461056b90612063565b80601f016020809104026020016040519081016040528092919081815260200182805461059790612063565b80156105e45780601f106105b9576101008083540402835291602001916105e4565b820191906000526020600020905b8154815290600101906020018083116105c757829003601f168201915b5050505050905090565b6000806105f9611037565b905061060681858561103f565b600191505092915050565b6000600254905090565b600080610626611037565b9050610633858285611051565b61063e8585856110e5565b60019150509392505050565b7f000000000000000000000000000000000000000000000000000000000000000081565b6000600560009054906101000a90046bffffffffffffffffffffffff166bffffffffffffffffffffffff16116106d9576040517f08c379a00000000000000000000000000000000000000000000000000000000081526004016106d0906120e0565b60405180910390fd5b60006106e3610611565b905080831115610728576040517f08c379a000000000000000000000000000000000000000000000000000000000815260040161071f9061214c565b60405180910390fd5b6000610733846108d8565b905082811015610778576040517f08c379a000000000000000000000000000000000000000000000000000000000815260040161076f906121b8565b60405180910390fd5b6000610782611037565b905060008173ffffffffffffffffffffffffffffffffffffffff16836040516107aa90612209565b60006040518083038185875af1925050503d80600081146107e7576040519150601f19603f3d011682016040523d82523d6000602084013e6107ec565b606091505b5050905080610830576040517f08c379a00000000000000000000000000000000000000000000000000000000081526004016108279061226a565b60405180910390fd5b61083a82876111d9565b8173ffffffffffffffffffffffffffffffffffffffff167fb7beb3c4e3f9672320080f6d4256a20ee1ab9dd0c3f763ab3266c4e8b86bb692878561087c610611565b4260405161088d9493929190611faf565b60405180910390a2505050505050565b60006012905090565b60006108b382600061125b565b9050919050565b600560009054906101000a90046bffffffffffffffffffffffff1681565b6000807f00000000000000000000000000000000000000000000000000000000000000007f00000000000000000000000000000000000000000000000000000000000000000161ffff16905060008361092f610611565b03905060008103610944574792505050610ab8565b6000807f000000000000000000000000000000000000000000000000000000000000000073ffffffffffffffffffffffffffffffffffffffff166332833d5184670de0b6b3a7640000877f00000000000000000000000000000000000000000000000000000000000000006040518563ffffffff1660e01b81526004016109ce94939291906122d3565b6040805180830381865afa1580156109ea573d6000803e3d6000fd5b505050506040513d601f19601f82011682018060405250810190610a0e9190612359565b915091508363ffffffff167f000000000000000000000000000000000000000000000000000000000000000061ffff167f000000000000000000000000000000000000000000000000000000000000000061ffff167f000000000000000000000000000000000000000000000000000000000000000061ffff168460ff1686901c020281610a9f57610a9e612399565b5b0481610aae57610aad612399565b5b0447039450505050505b919050565b60008060008373ffffffffffffffffffffffffffffffffffffffff1673ffffffffffffffffffffffffffffffffffffffff168152602001908152602001600020549050919050565b60068054610b1290612063565b80601f0160208091040260200160405190810160405280929190818152602001828054610b3e90612063565b8015610b8b5780601f10610b6057610100808354040283529160200191610b8b565b820191906000526020600020905b815481529060010190602001808311610b6e57829003601f168201915b505050505081565b7f000000000000000000000000000000000000000000000000000000000000000081565b606060048054610bc690612063565b80601f0160208091040260200160405190810160405280929190818152602001828054610bf290612063565b8015610c3f5780601f10610c1457610100808354040283529160200191610c3f565b820191906000526020600020905b815481529060010190602001808311610c2257829003601f168201915b5050505050905090565b60008060007f000000000000000000000000000000000000000000000000000000000000000073ffffffffffffffffffffffffffffffffffffffff166332833d51610c92610611565b670de0b6b3a76400007f00000000000000000000000000000000000000000000000000000000000000007f00000000000000000000000000000000000000000000000000000000000000006040518563ffffffff1660e01b8152600401610cfc94939291906123c8565b6040805180830381865afa158015610d18573d6000803e3d6000fd5b505050506040513d601f19601f82011682018060405250810190610d3c9190612359565b915091507f000000000000000000000000000000000000000000000000000000000000000061ffff167f000000000000000000000000000000000000000000000000000000000000000061ffff168260ff1684901c610d9b919061243c565b610da5919061247e565b9250505090565b6000600560009054906101000a90046bffffffffffffffffffffffff166bffffffffffffffffffffffff1611610e17576040517f08c379a0000000000000000000000000000000000000000000000000000000008152600401610e0e906120e0565b60405180910390fd5b610e28610e22611037565b82611416565b50565b600047905090565b600080610e3e611037565b9050610e4b8185856110e5565b600191505092915050565b6000806000807f000000000000000000000000000000000000000000000000000000000000000061ffff167f000000000000000000000000000000000000000000000000000000000000000061ffff167f000000000000000000000000000000000000000000000000000000000000000061ffff167f000000000000000000000000000000000000000000000000000000000000000061ffff16935093509350935090919293565b6000600160008473ffffffffffffffffffffffffffffffffffffffff1673ffffffffffffffffffffffffffffffffffffffff16815260200190815260200160002060008373ffffffffffffffffffffffffffffffffffffffff1673ffffffffffffffffffffffffffffffffffffffff16815260200190815260200160002054905092915050565b60078054610f9290612063565b80601f0160208091040260200160405190810160405280929190818152602001828054610fbe90612063565b801561100b5780601f10610fe05761010080835404028352916020019161100b565b820191906000526020600020905b815481529060010190602001808311610fee57829003601f168201915b505050505081565b7f000000000000000000000000000000000000000000000000000000000000000081565b600033905090565b61104c8383836001611530565b505050565b600061105d8484610efe565b90507fffffffffffffffffffffffffffffffffffffffffffffffffffffffffffffffff81146110df57818110156110cf578281836040517ffb8f41b20000000000000000000000000000000000000000000000000000000081526004016110c6939291906124af565b60405180910390fd5b6110de84848484036000611530565b5b50505050565b600073ffffffffffffffffffffffffffffffffffffffff168373ffffffffffffffffffffffffffffffffffffffff16036111575760006040517f96c6fd1e00000000000000000000000000000000000000000000000000000000815260040161114e9190611f94565b60405180910390fd5b600073ffffffffffffffffffffffffffffffffffffffff168273ffffffffffffffffffffffffffffffffffffffff16036111c95760006040517fec442f050000000000000000000000000000000000000000000000000000000081526004016111c09190611f94565b60405180910390fd5b6111d4838383611707565b505050565b600073ffffffffffffffffffffffffffffffffffffffff168273ffffffffffffffffffffffffffffffffffffffff160361124b5760006040517f96c6fd1e0000000000000000000000000000000000000000000000000000000081526004016112429190611f94565b60405180910390fd5b61125782600083611707565b5050565b6000807f00000000000000000000000000000000000000000000000000000000000000007f00000000000000000000000000000000000000000000000000000000000000000161ffff16905060007f000000000000000000000000000000000000000000000000000000000000000061ffff168263ffffffff1686864703010202905060007f00000000000000000000000000000000000000000000000000000000000000007f00000000000000000000000000000000000000000000000000000000000000000261ffff1690506000807f000000000000000000000000000000000000000000000000000000000000000073ffffffffffffffffffffffffffffffffffffffff166332833d5185857f0000000000000000000000000000000000000000000000000000000000000000896040518563ffffffff1660e01b81526004016113ab94939291906124e6565b6040805180830381865afa1580156113c7573d6000803e3d6000fd5b505050506040513d601f19601f820116820180604052508101906113eb9190612359565b915091506113f7610611565b670de0b6b3a76400008260ff1684901c02039550505050505092915050565b60003490506000600560009054906101000a90046bffffffffffffffffffffffff166bffffffffffffffffffffffff169050600047905081811061146257600082820390508084039350505b600061146e843461125b565b9050848110156114b3576040517f08c379a00000000000000000000000000000000000000000000000000000000081526004016114aa90612577565b60405180910390fd5b6114bd868261192c565b8573ffffffffffffffffffffffffffffffffffffffff167f94c792774c59479f7bd68442f3af3691c02123a5aabee8b6f9116d8af8aa666982866114ff610611565b426040516115109493929190611faf565b60405180910390a2824710611528576115276119ae565b5b505050505050565b600073ffffffffffffffffffffffffffffffffffffffff168473ffffffffffffffffffffffffffffffffffffffff16036115a25760006040517fe602df050000000000000000000000000000000000000000000000000000000081526004016115999190611f94565b60405180910390fd5b600073ffffffffffffffffffffffffffffffffffffffff168373ffffffffffffffffffffffffffffffffffffffff16036116145760006040517f94280d6200000000000000000000000000000000000000000000000000000000815260040161160b9190611f94565b60405180910390fd5b81600160008673ffffffffffffffffffffffffffffffffffffffff1673ffffffffffffffffffffffffffffffffffffffff16815260200190815260200160002060008573ffffffffffffffffffffffffffffffffffffffff1673ffffffffffffffffffffffffffffffffffffffff168152602001908152602001600020819055508015611701578273ffffffffffffffffffffffffffffffffffffffff168473ffffffffffffffffffffffffffffffffffffffff167f8c5be1e5ebec7d5bd14f71427d1e84f3dd0314c0f7b2291e5b200ac8c7c3b925846040516116f89190611dca565b60405180910390a35b50505050565b600073ffffffffffffffffffffffffffffffffffffffff168373ffffffffffffffffffffffffffffffffffffffff160361175957806002600082825461174d9190612597565b9250508190555061182c565b60008060008573ffffffffffffffffffffffffffffffffffffffff1673ffffffffffffffffffffffffffffffffffffffff168152602001908152602001600020549050818110156117e5578381836040517fe450d38c0000000000000000000000000000000000000000000000000000000081526004016117dc939291906124af565b60405180910390fd5b8181036000808673ffffffffffffffffffffffffffffffffffffffff1673ffffffffffffffffffffffffffffffffffffffff16815260200190815260200160002081905550505b600073ffffffffffffffffffffffffffffffffffffffff168273ffffffffffffffffffffffffffffffffffffffff160361187557806002600082825403925050819055506118c2565b806000808473ffffffffffffffffffffffffffffffffffffffff1673ffffffffffffffffffffffffffffffffffffffff168152602001908152602001600020600082825401925050819055505b8173ffffffffffffffffffffffffffffffffffffffff168373ffffffffffffffffffffffffffffffffffffffff167fddf252ad1be2c89b69c2b068fc378daa952ba7f163c4a11628f55a4df523b3ef8360405161191f9190611dca565b60405180910390a3505050565b600073ffffffffffffffffffffffffffffffffffffffff168273ffffffffffffffffffffffffffffffffffffffff160361199e5760006040517fec442f050000000000000000000000000000000000000000000000000000000081526004016119959190611f94565b60405180910390fd5b6119aa60008383611707565b5050565b60007f000000000000000000000000000000000000000000000000000000000000000090506000808273ffffffffffffffffffffffffffffffffffffffff1663bac95fff600560009054906101000a90046bffffffffffffffffffffffff16611a15610c49565b6040518363ffffffff1660e01b8152600401611a329291906125fc565b60408051808303816000875af1158015611a50573d6000803e3d6000fd5b505050506040513d601f19601f82011682018060405250810190611a749190612625565b91509150611a848382840161192c565b8273ffffffffffffffffffffffffffffffffffffffff1663a226f279600560009054906101000a90046bffffffffffffffffffffffff166bffffffffffffffffffffffff1684846040518463ffffffff1660e01b8152600401611ae8929190612665565b6000604051808303818588803b158015611b0157600080fd5b505af1158015611b15573d6000803e3d6000fd5b50505050506000471115611bd8576000611b2d611037565b73ffffffffffffffffffffffffffffffffffffffff1647604051611b5090612209565b60006040518083038185875af1925050503d8060008114611b8d576040519150601f19603f3d011682016040523d82523d6000602084013e611b92565b606091505b5050905080611bd6576040517f08c379a0000000000000000000000000000000000000000000000000000000008152600401611bcd906126da565b60405180910390fd5b505b600560006101000a8154906bffffffffffffffffffffffff0219169055505050565b600081519050919050565b600082825260208201905092915050565b60005b83811015611c34578082015181840152602081019050611c19565b60008484015250505050565b6000601f19601f8301169050919050565b6000611c5c82611bfa565b611c668185611c05565b9350611c76818560208601611c16565b611c7f81611c40565b840191505092915050565b60006020820190508181036000830152611ca48184611c51565b905092915050565b600080fd5b600073ffffffffffffffffffffffffffffffffffffffff82169050919050565b6000611cdc82611cb1565b9050919050565b611cec81611cd1565b8114611cf757600080fd5b50565b600081359050611d0981611ce3565b92915050565b6000819050919050565b611d2281611d0f565b8114611d2d57600080fd5b50565b600081359050611d3f81611d19565b92915050565b60008060408385031215611d5c57611d5b611cac565b5b6000611d6a85828601611cfa565b9250506020611d7b85828601611d30565b9150509250929050565b60008115159050919050565b611d9a81611d85565b82525050565b6000602082019050611db56000830184611d91565b92915050565b611dc481611d0f565b82525050565b6000602082019050611ddf6000830184611dbb565b92915050565b600080600060608486031215611dfe57611dfd611cac565b5b6000611e0c86828701611cfa565b9350506020611e1d86828701611cfa565b9250506040611e2e86828701611d30565b9150509250925092565b600063ffffffff82169050919050565b611e5181611e38565b82525050565b6000602082019050611e6c6000830184611e48565b92915050565b60008060408385031215611e8957611e88611cac565b5b6000611e9785828601611d30565b9250506020611ea885828601611d30565b9150509250929050565b600060ff82169050919050565b611ec881611eb2565b82525050565b6000602082019050611ee36000830184611ebf565b92915050565b600060208284031215611eff57611efe611cac565b5b6000611f0d84828501611d30565b91505092915050565b60006bffffffffffffffffffffffff82169050919050565b611f3781611f16565b82525050565b6000602082019050611f526000830184611f2e565b92915050565b600060208284031215611f6e57611f6d611cac565b5b6000611f7c84828501611cfa565b91505092915050565b611f8e81611cd1565b82525050565b6000602082019050611fa96000830184611f85565b92915050565b6000608082019050611fc46000830187611dbb565b611fd16020830186611dbb565b611fde6040830185611dbb565b611feb6060830184611dbb565b95945050505050565b6000806040838503121561200b5761200a611cac565b5b600061201985828601611cfa565b925050602061202a85828601611cfa565b9150509250929050565b7f4e487b7100000000000000000000000000000000000000000000000000000000600052602260045260246000fd5b6000600282049050600182168061207b57607f821691505b60208210810361208e5761208d612034565b5b50919050565b7f416c7265616479206c6973746564000000000000000000000000000000000000600082015250565b60006120ca600e83611c05565b91506120d582612094565b602082019050919050565b600060208201905081810360008301526120f9816120bd565b9050919050565b7f52657469726520416d6f756e74204578636565647320537570706c7900000000600082015250565b6000612136601c83611c05565b915061214182612100565b602082019050919050565b6000602082019050818103600083015261216581612129565b9050919050565b7f496e73756666696369656e74206f75747075742045544820616d6f756e740000600082015250565b60006121a2601e83611c05565b91506121ad8261216c565b602082019050919050565b600060208201905081810360008301526121d181612195565b9050919050565b600081905092915050565b50565b60006121f36000836121d8565b91506121fe826121e3565b600082019050919050565b6000612214826121e6565b9150819050919050565b7f455448207472616e73666572206661696c656400000000000000000000000000600082015250565b6000612254601383611c05565b915061225f8261221e565b602082019050919050565b6000602082019050818103600083015261228381612247565b9050919050565b600061ffff82169050919050565b6000819050919050565b60006122bd6122b86122b38461228a565b612298565b611e38565b9050919050565b6122cd816122a2565b82525050565b60006080820190506122e86000830187611dbb565b6122f56020830186611dbb565b6123026040830185611e48565b61230f60608301846122c4565b95945050505050565b60008151905061232781611d19565b92915050565b61233681611eb2565b811461234157600080fd5b50565b6000815190506123538161232d565b92915050565b600080604083850312156123705761236f611cac565b5b600061237e85828601612318565b925050602061238f85828601612344565b9150509250929050565b7f4e487b7100000000000000000000000000000000000000000000000000000000600052601260045260246000fd5b60006080820190506123dd6000830187611dbb565b6123ea6020830186611dbb565b6123f760408301856122c4565b61240460608301846122c4565b95945050505050565b7f4e487b7100000000000000000000000000000000000000000000000000000000600052601160045260246000fd5b600061244782611d0f565b915061245283611d0f565b925082820261246081611d0f565b915082820484148315176124775761247661240d565b5b5092915050565b600061248982611d0f565b915061249483611d0f565b9250826124a4576124a3612399565b5b828204905092915050565b60006060820190506124c46000830186611f85565b6124d16020830185611dbb565b6124de6040830184611dbb565b949350505050565b60006080820190506124fb6000830187611dbb565b6125086020830186611dbb565b61251560408301856122c4565b6125226060830184611e48565b95945050505050565b7f496e73756666696369656e74206f757470757420746f6b656e20616d6f756e74600082015250565b6000612561602083611c05565b915061256c8261252b565b602082019050919050565b6000602082019050818103600083015261259081612554565b9050919050565b60006125a282611d0f565b91506125ad83611d0f565b92508282019050808211156125c5576125c461240d565b5b92915050565b60006125e66125e16125dc84611f16565b612298565b611d0f565b9050919050565b6125f6816125cb565b82525050565b600060408201905061261160008301856125ed565b61261e6020830184611dbb565b9392505050565b6000806040838503121561263c5761263b611cac565b5b600061264a85828601612318565b925050602061265b85828601612318565b9150509250929050565b600060408201905061267a6000830185611dbb565b6126876020830184611dbb565b9392505050565b7f4c6566746f766572207472616e73666572206661696c65640000000000000000600082015250565b60006126c4601883611c05565b91506126cf8261268e565b602082019050919050565b600060208201905081810360008301526126f3816126b7565b905091905056fea2646970667358221220d943afa744daaf2d00e034ab3c4c3bafd9cc7331f3723adb74705b6ea9dace2264736f6c63430008180033a2646970667358221220cf63dd120e52e9a7a1692317c113e6eabd9f3022c5fcd8228d8b88b62c2e455f64736f6c63430008180033",
  "linkReferences": {},
  "deployedLinkReferences": {}
}