{
  "_format": "hh-sol-artifact-1",
  "contractName": "MemezFactory",
  "sourceName": "contracts/MemezFactory.sol",
  "abi": [
    {
      "inputs": [
        {
          "internalType": "address",
          "name": "formula_",
          "type": "address"
        },
        {
          "internalType": "address",
          "name": "listingManager_",
          "type": "address"
        }
      ],
      "stateMutability": "nonpayable",
      "type": "constructor"
    },
    {
      "anonymous": false,
      "inputs": [
        {
          "indexed": true,
          "internalType": "address",
          "name": "account",
          "type": "address"
        },
        {
          "indexed": true,
          "internalType": "string",
          "name": "nickname",
          "type": "string"
        },
        {
          "indexed": false,
          "internalType": "string",
          "name": "profilePicture",
          "type": "string"
        }
      ],
      "name": "AccountInfoUpdated",
      "type": "event"
    },
    {
      "anonymous": false,
      "inputs": [
        {
          "indexed": true,
          "internalType": "address",
          "name": "creator",
          "type": "address"
        },
        {
          "indexed": true,
          "internalType": "address",
          "name": "memecoin",
          "type": "address"
        }
      ],
      "name": "MemeCoinDeployed",
      "type": "event"
    },
    {
      "inputs": [
        {
          "internalType": "address",
          "name": "",
          "type": "address"
        }
      ],
      "name": "accounts",
      "outputs": [
        {
          "internalType": "string",
          "name": "nickname",
          "type": "string"
        },
        {
          "internalType": "string",
          "name": "profilePicture",
          "type": "string"
        },
        {
          "internalType": "uint256",
          "name": "createdMemecoinsCount",
          "type": "uint256"
        }
      ],
      "stateMutability": "view",
      "type": "function"
    },
    {
      "inputs": [
        {
          "internalType": "uint256",
          "name": "",
          "type": "uint256"
        }
      ],
      "name": "allMemecoins",
      "outputs": [
        {
          "internalType": "address",
          "name": "",
          "type": "address"
        }
      ],
      "stateMutability": "view",
      "type": "function"
    },
    {
      "inputs": [],
      "name": "allMemecoinsCount",
      "outputs": [
        {
          "internalType": "uint32",
          "name": "",
          "type": "uint32"
        }
      ],
      "stateMutability": "view",
      "type": "function"
    },
    {
      "inputs": [
        {
          "internalType": "uint96",
          "name": "cap",
          "type": "uint96"
        },
        {
          "internalType": "uint16",
          "name": "powerN",
          "type": "uint16"
        },
        {
          "internalType": "uint16",
          "name": "powerD",
          "type": "uint16"
        },
        {
          "internalType": "uint16",
          "name": "factorN",
          "type": "uint16"
        },
        {
          "internalType": "uint16",
          "name": "factorD",
          "type": "uint16"
        },
        {
          "internalType": "string",
          "name": "name",
          "type": "string"
        },
        {
          "internalType": "string",
          "name": "symbol",
          "type": "string"
        },
        {
          "internalType": "string",
          "name": "description",
          "type": "string"
        },
        {
          "internalType": "string",
          "name": "image",
          "type": "string"
        }
      ],
      "name": "deploy",
      "outputs": [
        {
          "internalType": "address",
          "name": "memecoin",
          "type": "address"
        }
      ],
      "stateMutability": "payable",
      "type": "function"
    },
    {
      "inputs": [],
      "name": "erc20Parameters",
      "outputs": [
        {
          "components": [
            {
              "internalType": "string",
              "name": "name",
              "type": "string"
            },
            {
              "internalType": "string",
              "name": "symbol",
              "type": "string"
            }
          ],
          "internalType": "struct IERC20ParametersPacker.ERC20Parameters",
          "name": "",
          "type": "tuple"
        }
      ],
      "stateMutability": "view",
      "type": "function"
    },
    {
      "inputs": [],
      "name": "formula",
      "outputs": [
        {
          "internalType": "address",
          "name": "",
          "type": "address"
        }
      ],
      "stateMutability": "view",
      "type": "function"
    },
    {
      "inputs": [
        {
          "internalType": "string",
          "name": "symbol",
          "type": "string"
        }
      ],
      "name": "getAddress",
      "outputs": [
        {
          "internalType": "address",
          "name": "memecoin",
          "type": "address"
        }
      ],
      "stateMutability": "view",
      "type": "function"
    },
    {
      "inputs": [
        {
          "internalType": "address",
          "name": "memecoin",
          "type": "address"
        }
      ],
      "name": "isMemeCoinLegit",
      "outputs": [
        {
          "internalType": "bool",
          "name": "",
          "type": "bool"
        }
      ],
      "stateMutability": "view",
      "type": "function"
    },
    {
      "inputs": [],
      "name": "listingManager",
      "outputs": [
        {
          "internalType": "address",
          "name": "",
          "type": "address"
        }
      ],
      "stateMutability": "view",
      "type": "function"
    },
    {
      "inputs": [
        {
          "internalType": "address",
          "name": "",
          "type": "address"
        },
        {
          "internalType": "uint256",
          "name": "",
          "type": "uint256"
        }
      ],
      "name": "memecoinsByCreators",
      "outputs": [
        {
          "internalType": "address",
          "name": "",
          "type": "address"
        }
      ],
      "stateMutability": "view",
      "type": "function"
    },
    {
      "inputs": [
        {
          "internalType": "string",
          "name": "",
          "type": "string"
        }
      ],
      "name": "nicknamesToAccounts",
      "outputs": [
        {
          "internalType": "address",
          "name": "",
          "type": "address"
        }
      ],
      "stateMutability": "view",
      "type": "function"
    },
    {
      "inputs": [],
      "name": "parameters",
      "outputs": [
        {
          "internalType": "address",
          "name": "listingManager",
          "type": "address"
        },
        {
          "internalType": "uint96",
          "name": "cap",
          "type": "uint96"
        },
        {
          "internalType": "address",
          "name": "formula",
          "type": "address"
        },
        {
          "internalType": "uint16",
          "name": "powerN",
          "type": "uint16"
        },
        {
          "internalType": "uint16",
          "name": "powerD",
          "type": "uint16"
        },
        {
          "internalType": "uint16",
          "name": "factorN",
          "type": "uint16"
        },
        {
          "internalType": "uint16",
          "name": "factorD",
          "type": "uint16"
        },
        {
          "internalType": "uint32",
          "name": "coinIndex",
          "type": "uint32"
        },
        {
          "internalType": "address",
          "name": "owner",
          "type": "address"
        },
        {
          "internalType": "string",
          "name": "description",
          "type": "string"
        },
        {
          "internalType": "string",
          "name": "image",
          "type": "string"
        }
      ],
      "stateMutability": "view",
      "type": "function"
    },
    {
      "inputs": [
        {
          "internalType": "string",
          "name": "nickname",
          "type": "string"
        },
        {
          "internalType": "string",
          "name": "profilePicture",
          "type": "string"
        }
      ],
      "name": "updateAccountInfo",
      "outputs": [],
      "stateMutability": "nonpayable",
      "type": "function"
    }
  ],
  "bytecode": "0x60c06040523480156200001157600080fd5b50604051620068d1380380620068d1833981810160405281019062000037919062000115565b81818173ffffffffffffffffffffffffffffffffffffffff1660808173ffffffffffffffffffffffffffffffffffffffff16815250508073ffffffffffffffffffffffffffffffffffffffff1660a08173ffffffffffffffffffffffffffffffffffffffff1681525050505050506200015c565b600080fd5b600073ffffffffffffffffffffffffffffffffffffffff82169050919050565b6000620000dd82620000b0565b9050919050565b620000ef81620000d0565b8114620000fb57600080fd5b50565b6000815190506200010f81620000e4565b92915050565b600080604083850312156200012f576200012e620000ab565b5b60006200013f85828601620000fe565b92505060206200015285828601620000fe565b9150509250929050565b60805160a0516167416200019060003960008181610f4c0152610f7e01526000818161059e0152610fce01526167416000f3fe608060405260043610620000d45760003560e01c806389035730116200008b578063edd153331162000061578063edd1533314620002e9578063f9e59f651462000319578063fda20c32146200035d578063fdbddd5614620003a157620000d4565b806389035730146200023d578063bf40fac11462000277578063c7f1752514620002bb57620000d4565b806316a8864614620000d95780632617f225146200011d5780634b75f54f14620001535780635e5c06e214620001835780636a94eb6514620001c9578063782d23e0146200020d575b600080fd5b348015620000e657600080fd5b50620001056004803603810190620000ff919062001685565b620003d1565b604051620001149190620016dd565b60405180910390f35b6200013b6004803603810190620001359190620018e4565b62000420565b6040516200014a9190620016dd565b60405180910390f35b3480156200016057600080fd5b506200016b6200059c565b6040516200017a9190620016dd565b60405180910390f35b3480156200019057600080fd5b50620001af6004803603810190620001a9919062001a3f565b620005c0565b604051620001c09392919062001b0b565b60405180910390f35b348015620001d657600080fd5b50620001f56004803603810190620001ef919062001a3f565b6200070a565b60405162000204919062001b73565b60405180910390f35b3480156200021a57600080fd5b506200022562000805565b60405162000234919062001c2a565b60405180910390f35b3480156200024a57600080fd5b506200025562000955565b6040516200026e9b9a9998979695949392919062001c91565b60405180910390f35b3480156200028457600080fd5b50620002a360048036038101906200029d919062001d60565b62000b7d565b604051620002b29190620016dd565b60405180910390f35b348015620002c857600080fd5b50620002e76004803603810190620002e1919062001db1565b62000c15565b005b348015620002f657600080fd5b506200030162000ead565b60405162000310919062001e36565b60405180910390f35b3480156200032657600080fd5b506200034560048036038101906200033f919062001d60565b62000ec1565b604051620003549190620016dd565b60405180910390f35b3480156200036a57600080fd5b5062000389600480360381019062000383919062001e53565b62000f0a565b604051620003989190620016dd565b60405180910390f35b348015620003ae57600080fd5b50620003b962000f4a565b604051620003c89190620016dd565b60405180910390f35b600b6020528160005260406000208181548110620003ee57600080fd5b906000526020600020016000915091509054906101000a900473ffffffffffffffffffffffffffffffffffffffff1681565b6000806200042e8562000b7d565b73ffffffffffffffffffffffffffffffffffffffff163b1462000488576040517f08c379a00000000000000000000000000000000000000000000000000000000081526004016200047f9062001ed5565b60405180910390fd5b6200049b8a8a8a8a8a8a8a8a8a62000f6e565b9050600960003373ffffffffffffffffffffffffffffffffffffffff1673ffffffffffffffffffffffffffffffffffffffff16815260200190815260200160002060020160008154809291906001019190505550600b60003373ffffffffffffffffffffffffffffffffffffffff1673ffffffffffffffffffffffffffffffffffffffff168152602001908152602001600020819080600181540180825580915050600190039060005260206000200160009091909190916101000a81548173ffffffffffffffffffffffffffffffffffffffff021916908373ffffffffffffffffffffffffffffffffffffffff1602179055509998505050505050505050565b7f000000000000000000000000000000000000000000000000000000000000000081565b6009602052806000526040600020600091509050806000018054620005e59062001f26565b80601f0160208091040260200160405190810160405280929190818152602001828054620006139062001f26565b8015620006645780601f10620006385761010080835404028352916020019162000664565b820191906000526020600020905b8154815290600101906020018083116200064657829003601f168201915b5050505050908060010180546200067b9062001f26565b80601f0160208091040260200160405190810160405280929190818152602001828054620006a99062001f26565b8015620006fa5780601f10620006ce57610100808354040283529160200191620006fa565b820191906000526020600020905b815481529060010190602001808311620006dc57829003601f168201915b5050505050908060020154905083565b60008173ffffffffffffffffffffffffffffffffffffffff16632604772c6040518163ffffffff1660e01b8152600401602060405180830381865afa9250505080156200077757506040513d601f19601f8201168201806040525081019062000774919062001f8c565b60015b62000786576000905062000800565b8273ffffffffffffffffffffffffffffffffffffffff1660088263ffffffff1681548110620007ba57620007b962001fbe565b5b9060005260206000200160009054906101000a900473ffffffffffffffffffffffffffffffffffffffff1673ffffffffffffffffffffffffffffffffffffffff16149150505b919050565b6200080f62001544565b60016040518060400160405290816000820180546200082e9062001f26565b80601f01602080910402602001604051908101604052809291908181526020018280546200085c9062001f26565b8015620008ad5780601f106200088157610100808354040283529160200191620008ad565b820191906000526020600020905b8154815290600101906020018083116200088f57829003601f168201915b50505050508152602001600182018054620008c89062001f26565b80601f0160208091040260200160405190810160405280929190818152602001828054620008f69062001f26565b8015620009475780601f106200091b5761010080835404028352916020019162000947565b820191906000526020600020905b8154815290600101906020018083116200092957829003601f168201915b505050505081525050905090565b60038060000160009054906101000a900473ffffffffffffffffffffffffffffffffffffffff16908060000160149054906101000a90046bffffffffffffffffffffffff16908060010160009054906101000a900473ffffffffffffffffffffffffffffffffffffffff16908060010160149054906101000a900461ffff16908060010160169054906101000a900461ffff16908060010160189054906101000a900461ffff169080600101601a9054906101000a900461ffff169080600101601c9054906101000a900463ffffffff16908060020160009054906101000a900473ffffffffffffffffffffffffffffffffffffffff169080600301805462000a5e9062001f26565b80601f016020809104026020016040519081016040528092919081815260200182805462000a8c9062001f26565b801562000add5780601f1062000ab15761010080835404028352916020019162000add565b820191906000526020600020905b81548152906001019060200180831162000abf57829003601f168201915b50505050509080600401805462000af49062001f26565b80601f016020809104026020016040519081016040528092919081815260200182805462000b229062001f26565b801562000b735780601f1062000b475761010080835404028352916020019162000b73565b820191906000526020600020905b81548152906001019060200180831162000b5557829003601f168201915b505050505090508b565b6000808280519060200120905060ff60f81b30826040518060200162000ba3906200155e565b6020820181038252601f19601f8201166040525060405160200162000bc991906200203a565b6040516020818303038152906040528051906020012060405160200162000bf4949392919062002123565b6040516020818303038152906040528051906020012060001c915050919050565b600073ffffffffffffffffffffffffffffffffffffffff16600a8360405162000c3f9190620021bb565b908152602001604051809103902060009054906101000a900473ffffffffffffffffffffffffffffffffffffffff1673ffffffffffffffffffffffffffffffffffffffff16148062000cfc57503373ffffffffffffffffffffffffffffffffffffffff16600a8360405162000cb59190620021bb565b908152602001604051809103902060009054906101000a900473ffffffffffffffffffffffffffffffffffffffff1673ffffffffffffffffffffffffffffffffffffffff16145b62000d3e576040517f08c379a000000000000000000000000000000000000000000000000000000000815260040162000d359062002224565b60405180910390fd5b81600960003373ffffffffffffffffffffffffffffffffffffffff1673ffffffffffffffffffffffffffffffffffffffff168152602001908152602001600020600001908162000d8f919062002418565b5080600960003373ffffffffffffffffffffffffffffffffffffffff1673ffffffffffffffffffffffffffffffffffffffff168152602001908152602001600020600101908162000de1919062002418565b5033600a8360405162000df59190620021bb565b908152602001604051809103902060006101000a81548173ffffffffffffffffffffffffffffffffffffffff021916908373ffffffffffffffffffffffffffffffffffffffff1602179055508160405162000e519190620021bb565b60405180910390203373ffffffffffffffffffffffffffffffffffffffff167f4ef985a94267da3f7f443f08c8b91352196e51b6ff864b17a681bedd1d52727f8360405162000ea19190620024ff565b60405180910390a35050565b60008054906101000a900463ffffffff1681565b600a818051602081018201805184825260208301602085012081835280955050505050506000915054906101000a900473ffffffffffffffffffffffffffffffffffffffff1681565b6008818154811062000f1b57600080fd5b906000526020600020016000915054906101000a900473ffffffffffffffffffffffffffffffffffffffff1681565b7f000000000000000000000000000000000000000000000000000000000000000081565b60006040518061016001604052807f000000000000000000000000000000000000000000000000000000000000000073ffffffffffffffffffffffffffffffffffffffff1681526020018b6bffffffffffffffffffffffff1681526020017f000000000000000000000000000000000000000000000000000000000000000073ffffffffffffffffffffffffffffffffffffffff1681526020018a61ffff1681526020018961ffff1681526020018861ffff1681526020018761ffff16815260200160008054906101000a900463ffffffff1663ffffffff1681526020013373ffffffffffffffffffffffffffffffffffffffff16815260200184815260200183815250600360008201518160000160006101000a81548173ffffffffffffffffffffffffffffffffffffffff021916908373ffffffffffffffffffffffffffffffffffffffff16021790555060208201518160000160146101000a8154816bffffffffffffffffffffffff02191690836bffffffffffffffffffffffff16021790555060408201518160010160006101000a81548173ffffffffffffffffffffffffffffffffffffffff021916908373ffffffffffffffffffffffffffffffffffffffff16021790555060608201518160010160146101000a81548161ffff021916908361ffff16021790555060808201518160010160166101000a81548161ffff021916908361ffff16021790555060a08201518160010160186101000a81548161ffff021916908361ffff16021790555060c082015181600101601a6101000a81548161ffff021916908361ffff16021790555060e082015181600101601c6101000a81548163ffffffff021916908363ffffffff1602179055506101008201518160020160006101000a81548173ffffffffffffffffffffffffffffffffffffffff021916908373ffffffffffffffffffffffffffffffffffffffff1602179055506101208201518160030190816200124c919062002418565b5061014082015181600401908162001265919062002418565b509050506040518060400160405280868152602001858152506001600082015181600001908162001297919062002418565b506020820151816001019081620012af919062002418565b50905050838051906020012034604051620012ca906200155e565b82906040518091039083f59050905080158015620012ec573d6000803e3d6000fd5b5090506003600080820160006101000a81549073ffffffffffffffffffffffffffffffffffffffff02191690556000820160146101000a8154906bffffffffffffffffffffffff02191690556001820160006101000a81549073ffffffffffffffffffffffffffffffffffffffff02191690556001820160146101000a81549061ffff02191690556001820160166101000a81549061ffff02191690556001820160186101000a81549061ffff021916905560018201601a6101000a81549061ffff021916905560018201601c6101000a81549063ffffffff02191690556002820160006101000a81549073ffffffffffffffffffffffffffffffffffffffff02191690556003820160006200140391906200156c565b6004820160006200141591906200156c565b50506001600080820160006200142c91906200156c565b6001820160006200143e91906200156c565b50508073ffffffffffffffffffffffffffffffffffffffff163373ffffffffffffffffffffffffffffffffffffffff167fcceb4c64f280681aded6878f548bfcbdd7092772e58d94d18d40c23c3702e60c60405160405180910390a36008819080600181540180825580915050600190039060005260206000200160009091909190916101000a81548173ffffffffffffffffffffffffffffffffffffffff021916908373ffffffffffffffffffffffffffffffffffffffff16021790555060008081819054906101000a900463ffffffff168092919060010191906101000a81548163ffffffff021916908363ffffffff160217905550509998505050505050505050565b604051806040016040528060608152602001606081525090565b6141e8806200252483390190565b5080546200157a9062001f26565b6000825580601f106200158e5750620015af565b601f016020900490600052602060002090810190620015ae9190620015b2565b5b50565b5b80821115620015cd576000816000905550600101620015b3565b5090565b6000604051905090565b600080fd5b600080fd5b600073ffffffffffffffffffffffffffffffffffffffff82169050919050565b60006200161282620015e5565b9050919050565b620016248162001605565b81146200163057600080fd5b50565b600081359050620016448162001619565b92915050565b6000819050919050565b6200165f816200164a565b81146200166b57600080fd5b50565b6000813590506200167f8162001654565b92915050565b600080604083850312156200169f576200169e620015db565b5b6000620016af8582860162001633565b9250506020620016c2858286016200166e565b9150509250929050565b620016d78162001605565b82525050565b6000602082019050620016f46000830184620016cc565b92915050565b60006bffffffffffffffffffffffff82169050919050565b6200171d81620016fa565b81146200172957600080fd5b50565b6000813590506200173d8162001712565b92915050565b600061ffff82169050919050565b6200175c8162001743565b81146200176857600080fd5b50565b6000813590506200177c8162001751565b92915050565b600080fd5b600080fd5b6000601f19601f8301169050919050565b7f4e487b7100000000000000000000000000000000000000000000000000000000600052604160045260246000fd5b620017d7826200178c565b810181811067ffffffffffffffff82111715620017f957620017f86200179d565b5b80604052505050565b60006200180e620015d1565b90506200181c8282620017cc565b919050565b600067ffffffffffffffff8211156200183f576200183e6200179d565b5b6200184a826200178c565b9050602081019050919050565b82818337600083830152505050565b60006200187d620018778462001821565b62001802565b9050828152602081018484840111156200189c576200189b62001787565b5b620018a984828562001857565b509392505050565b600082601f830112620018c957620018c862001782565b5b8135620018db84826020860162001866565b91505092915050565b60008060008060008060008060006101208a8c0312156200190a5762001909620015db565b5b60006200191a8c828d016200172c565b99505060206200192d8c828d016200176b565b9850506040620019408c828d016200176b565b9750506060620019538c828d016200176b565b9650506080620019668c828d016200176b565b95505060a08a013567ffffffffffffffff8111156200198a5762001989620015e0565b5b620019988c828d01620018b1565b94505060c08a013567ffffffffffffffff811115620019bc57620019bb620015e0565b5b620019ca8c828d01620018b1565b93505060e08a013567ffffffffffffffff811115620019ee57620019ed620015e0565b5b620019fc8c828d01620018b1565b9250506101008a013567ffffffffffffffff81111562001a215762001a20620015e0565b5b62001a2f8c828d01620018b1565b9150509295985092959850929598565b60006020828403121562001a585762001a57620015db565b5b600062001a688482850162001633565b91505092915050565b600081519050919050565b600082825260208201905092915050565b60005b8381101562001aad57808201518184015260208101905062001a90565b60008484015250505050565b600062001ac68262001a71565b62001ad2818562001a7c565b935062001ae481856020860162001a8d565b62001aef816200178c565b840191505092915050565b62001b05816200164a565b82525050565b6000606082019050818103600083015262001b27818662001ab9565b9050818103602083015262001b3d818562001ab9565b905062001b4e604083018462001afa565b949350505050565b60008115159050919050565b62001b6d8162001b56565b82525050565b600060208201905062001b8a600083018462001b62565b92915050565b600082825260208201905092915050565b600062001bae8262001a71565b62001bba818562001b90565b935062001bcc81856020860162001a8d565b62001bd7816200178c565b840191505092915050565b6000604083016000830151848203600086015262001c01828262001ba1565b9150506020830151848203602086015262001c1d828262001ba1565b9150508091505092915050565b6000602082019050818103600083015262001c46818462001be2565b905092915050565b62001c5981620016fa565b82525050565b62001c6a8162001743565b82525050565b600063ffffffff82169050919050565b62001c8b8162001c70565b82525050565b60006101608201905062001ca9600083018e620016cc565b62001cb8602083018d62001c4e565b62001cc7604083018c620016cc565b62001cd6606083018b62001c5f565b62001ce5608083018a62001c5f565b62001cf460a083018962001c5f565b62001d0360c083018862001c5f565b62001d1260e083018762001c80565b62001d22610100830186620016cc565b81810361012083015262001d37818562001ab9565b905081810361014083015262001d4e818462001ab9565b90509c9b505050505050505050505050565b60006020828403121562001d795762001d78620015db565b5b600082013567ffffffffffffffff81111562001d9a5762001d99620015e0565b5b62001da884828501620018b1565b91505092915050565b6000806040838503121562001dcb5762001dca620015db565b5b600083013567ffffffffffffffff81111562001dec5762001deb620015e0565b5b62001dfa85828601620018b1565b925050602083013567ffffffffffffffff81111562001e1e5762001e1d620015e0565b5b62001e2c85828601620018b1565b9150509250929050565b600060208201905062001e4d600083018462001c80565b92915050565b60006020828403121562001e6c5762001e6b620015db565b5b600062001e7c848285016200166e565b91505092915050565b7f53796d626f6c20697320616c7265616479207573656400000000000000000000600082015250565b600062001ebd60168362001a7c565b915062001eca8262001e85565b602082019050919050565b6000602082019050818103600083015262001ef08162001eae565b9050919050565b7f4e487b7100000000000000000000000000000000000000000000000000000000600052602260045260246000fd5b6000600282049050600182168062001f3f57607f821691505b60208210810362001f555762001f5462001ef7565b5b50919050565b62001f668162001c70565b811462001f7257600080fd5b50565b60008151905062001f868162001f5b565b92915050565b60006020828403121562001fa55762001fa4620015db565b5b600062001fb58482850162001f75565b91505092915050565b7f4e487b7100000000000000000000000000000000000000000000000000000000600052603260045260246000fd5b600081519050919050565b600081905092915050565b6000620020108262001fed565b6200201c818562001ff8565b93506200202e81856020860162001a8d565b80840191505092915050565b600062002048828462002003565b915081905092915050565b60007fff0000000000000000000000000000000000000000000000000000000000000082169050919050565b6000819050919050565b6200209e620020988262002053565b6200207f565b82525050565b60008160601b9050919050565b6000620020be82620020a4565b9050919050565b6000620020d282620020b1565b9050919050565b620020ee620020e88262001605565b620020c5565b82525050565b6000819050919050565b6000819050919050565b6200211d6200211782620020f4565b620020fe565b82525050565b600062002131828762002089565b600182019150620021438286620020d9565b60148201915062002155828562002108565b60208201915062002167828462002108565b60208201915081905095945050505050565b600081905092915050565b6000620021918262001a71565b6200219d818562002179565b9350620021af81856020860162001a8d565b80840191505092915050565b6000620021c9828462002184565b915081905092915050565b7f4e69636b6e616d65206578697374730000000000000000000000000000000000600082015250565b60006200220c600f8362001a7c565b91506200221982620021d4565b602082019050919050565b600060208201905081810360008301526200223f81620021fd565b9050919050565b60008190508160005260206000209050919050565b60006020601f8301049050919050565b600082821b905092915050565b600060088302620022aa7fffffffffffffffffffffffffffffffffffffffffffffffffffffffffffffffff826200226b565b620022b686836200226b565b95508019841693508086168417925050509392505050565b6000819050919050565b6000620022f9620022f3620022ed846200164a565b620022ce565b6200164a565b9050919050565b6000819050919050565b6200231583620022d8565b6200232d620023248262002300565b84845462002278565b825550505050565b600090565b6200234462002335565b620023518184846200230a565b505050565b5b8181101562002379576200236d6000826200233a565b60018101905062002357565b5050565b601f821115620023c857620023928162002246565b6200239d846200225b565b81016020851015620023ad578190505b620023c5620023bc856200225b565b83018262002356565b50505b505050565b600082821c905092915050565b6000620023ed60001984600802620023cd565b1980831691505092915050565b6000620024088383620023da565b9150826002028217905092915050565b620024238262001a71565b67ffffffffffffffff8111156200243f576200243e6200179d565b5b6200244b825462001f26565b620024588282856200237d565b600060209050601f8311600181146200249057600084156200247b578287015190505b620024878582620023fa565b865550620024f7565b601f198416620024a08662002246565b60005b82811015620024ca57848901518255600182019150602085019450602081019050620024a3565b86831015620024ea5784890151620024e6601f891682620023da565b8355505b6001600288020188555050505b505050505050565b600060208201905081810360008301526200251b818462001ab9565b90509291505056fe610180604052620000156200033560201b60201c565b73ffffffffffffffffffffffffffffffffffffffff1663782d23e06040518163ffffffff1660e01b8152600401600060405180830381865afa15801562000060573d6000803e3d6000fd5b505050506040513d6000823e3d601f19601f820116820180604052508101906200008b919062000da8565b806000015181602001518160039081620000a6919062001044565b508060049081620000b8919062001044565b505050506000620000ce6200033560201b60201c565b90508073ffffffffffffffffffffffffffffffffffffffff1663890357306040518163ffffffff1660e01b8152600401600060405180830381865afa1580156200011c573d6000803e3d6000fd5b505050506040513d6000823e3d601f19601f8201168201806040525081019062000147919062001259565b60056000600660006007600086919050908162000165919062001044565b5085919050908162000178919062001044565b508473ffffffffffffffffffffffffffffffffffffffff166101609073ffffffffffffffffffffffffffffffffffffffff168152508563ffffffff166101409063ffffffff168152508661ffff166101209061ffff168152508761ffff166101009061ffff168152508861ffff1660e09061ffff168152508961ffff1660c09061ffff168152508a73ffffffffffffffffffffffffffffffffffffffff1660a09073ffffffffffffffffffffffffffffffffffffffff168152508b91906101000a8154816bffffffffffffffffffffffff02191690836bffffffffffffffffffffffff1602179055508a73ffffffffffffffffffffffffffffffffffffffff1660809073ffffffffffffffffffffffffffffffffffffffff1681525050505050505050505050506000600560009054906101000a90046bffffffffffffffffffffffff166bffffffffffffffffffffffff16116200030d576040517f08c379a0000000000000000000000000000000000000000000000000000000008152600401620003049062001405565b60405180910390fd5b60003411156200032e576200032d6101605160006200033d60201b60201c565b5b50620019cd565b600033905090565b60003490506000600560009054906101000a90046bffffffffffffffffffffffff166bffffffffffffffffffffffff16905060004790508181106200038a57600082820390508084039350505b60006200039e84346200047e60201b60201c565b905084811015620003e6576040517f08c379a0000000000000000000000000000000000000000000000000000000008152600401620003dd9062001477565b60405180910390fd5b620003f886826200057660201b60201c565b8573ffffffffffffffffffffffffffffffffffffffff167f94c792774c59479f7bd68442f3af3691c02123a5aabee8b6f9116d8af8aa66698286620004426200060360201b60201c565b42604051620004559493929190620014aa565b60405180910390a28247106200047657620004756200060d60201b60201c565b5b505050505050565b60008060e05160c0510161ffff16905060006101205161ffff168263ffffffff16868647030102029050600060e051610100510261ffff16905060008060a05173ffffffffffffffffffffffffffffffffffffffff166332833d51858560e051896040518563ffffffff1660e01b815260040162000500949392919062001541565b6040805180830381865afa1580156200051d573d6000803e3d6000fd5b505050506040513d601f19601f82011682018060405250810190620005439190620015fd565b91509150620005576200060360201b60201c565b670de0b6b3a76400008260ff1684901c02039550505050505092915050565b600073ffffffffffffffffffffffffffffffffffffffff168273ffffffffffffffffffffffffffffffffffffffff1603620005eb5760006040517fec442f05000000000000000000000000000000000000000000000000000000008152600401620005e2919062001655565b60405180910390fd5b620005ff600083836200086460201b60201c565b5050565b6000600254905090565b600060805190506000808273ffffffffffffffffffffffffffffffffffffffff1663bac95fff600560009054906101000a90046bffffffffffffffffffffffff166200065e62000a9460201b60201c565b6040518363ffffffff1660e01b81526004016200067d929190620016ab565b60408051808303816000875af11580156200069c573d6000803e3d6000fd5b505050506040513d601f19601f82011682018060405250810190620006c29190620016d8565b91509150620006da838284016200057660201b60201c565b8273ffffffffffffffffffffffffffffffffffffffff1663a226f279600560009054906101000a90046bffffffffffffffffffffffff166bffffffffffffffffffffffff1684846040518463ffffffff1660e01b8152600401620007409291906200171f565b6000604051808303818588803b1580156200075a57600080fd5b505af11580156200076f573d6000803e3d6000fd5b5050505050600047111562000842576000620007906200033560201b60201c565b73ffffffffffffffffffffffffffffffffffffffff1647604051620007b59062001781565b60006040518083038185875af1925050503d8060008114620007f4576040519150601f19603f3d011682016040523d82523d6000602084013e620007f9565b606091505b505090508062000840576040517f08c379a00000000000000000000000000000000000000000000000000000000081526004016200083790620017e8565b60405180910390fd5b505b600560006101000a8154906bffffffffffffffffffffffff0219169055505050565b600073ffffffffffffffffffffffffffffffffffffffff168373ffffffffffffffffffffffffffffffffffffffff1603620008ba578060026000828254620008ad919062001839565b9250508190555062000990565b60008060008573ffffffffffffffffffffffffffffffffffffffff1673ffffffffffffffffffffffffffffffffffffffff1681526020019081526020016000205490508181101562000949578381836040517fe450d38c000000000000000000000000000000000000000000000000000000008152600401620009409392919062001874565b60405180910390fd5b8181036000808673ffffffffffffffffffffffffffffffffffffffff1673ffffffffffffffffffffffffffffffffffffffff16815260200190815260200160002081905550505b600073ffffffffffffffffffffffffffffffffffffffff168273ffffffffffffffffffffffffffffffffffffffff1603620009db578060026000828254039250508190555062000a28565b806000808473ffffffffffffffffffffffffffffffffffffffff1673ffffffffffffffffffffffffffffffffffffffff168152602001908152602001600020600082825401925050819055505b8173ffffffffffffffffffffffffffffffffffffffff168373ffffffffffffffffffffffffffffffffffffffff167fddf252ad1be2c89b69c2b068fc378daa952ba7f163c4a11628f55a4df523b3ef8360405162000a879190620018b1565b60405180910390a3505050565b600080600060a05173ffffffffffffffffffffffffffffffffffffffff166332833d5162000ac76200060360201b60201c565b670de0b6b3a764000060c05160e0516040518563ffffffff1660e01b815260040162000af79493929190620018ce565b6040805180830381865afa15801562000b14573d6000803e3d6000fd5b505050506040513d601f19601f8201168201806040525081019062000b3a9190620015fd565b915091506101205161ffff166101005161ffff168260ff1684901c62000b6191906200191b565b62000b6d919062001995565b9250505090565b6000604051905090565b600080fd5b600080fd5b600080fd5b6000601f19601f8301169050919050565b7f4e487b7100000000000000000000000000000000000000000000000000000000600052604160045260246000fd5b62000bd88262000b8d565b810181811067ffffffffffffffff8211171562000bfa5762000bf962000b9e565b5b80604052505050565b600062000c0f62000b74565b905062000c1d828262000bcd565b919050565b600080fd5b600080fd5b600080fd5b600067ffffffffffffffff82111562000c4f5762000c4e62000b9e565b5b62000c5a8262000b8d565b9050602081019050919050565b60005b8381101562000c8757808201518184015260208101905062000c6a565b60008484015250505050565b600062000caa62000ca48462000c31565b62000c03565b90508281526020810184848401111562000cc95762000cc862000c2c565b5b62000cd684828562000c67565b509392505050565b600082601f83011262000cf65762000cf562000c27565b5b815162000d0884826020860162000c93565b91505092915050565b60006040828403121562000d2a5762000d2962000b88565b5b62000d36604062000c03565b9050600082015167ffffffffffffffff81111562000d595762000d5862000c22565b5b62000d678482850162000cde565b600083015250602082015167ffffffffffffffff81111562000d8e5762000d8d62000c22565b5b62000d9c8482850162000cde565b60208301525092915050565b60006020828403121562000dc15762000dc062000b7e565b5b600082015167ffffffffffffffff81111562000de25762000de162000b83565b5b62000df08482850162000d11565b91505092915050565b600081519050919050565b7f4e487b7100000000000000000000000000000000000000000000000000000000600052602260045260246000fd5b6000600282049050600182168062000e4c57607f821691505b60208210810362000e625762000e6162000e04565b5b50919050565b60008190508160005260206000209050919050565b60006020601f8301049050919050565b600082821b905092915050565b60006008830262000ecc7fffffffffffffffffffffffffffffffffffffffffffffffffffffffffffffffff8262000e8d565b62000ed8868362000e8d565b95508019841693508086168417925050509392505050565b6000819050919050565b6000819050919050565b600062000f2562000f1f62000f198462000ef0565b62000efa565b62000ef0565b9050919050565b6000819050919050565b62000f418362000f04565b62000f5962000f508262000f2c565b84845462000e9a565b825550505050565b600090565b62000f7062000f61565b62000f7d81848462000f36565b505050565b5b8181101562000fa55762000f9960008262000f66565b60018101905062000f83565b5050565b601f82111562000ff45762000fbe8162000e68565b62000fc98462000e7d565b8101602085101562000fd9578190505b62000ff162000fe88562000e7d565b83018262000f82565b50505b505050565b600082821c905092915050565b6000620010196000198460080262000ff9565b1980831691505092915050565b600062001034838362001006565b9150826002028217905092915050565b6200104f8262000df9565b67ffffffffffffffff8111156200106b576200106a62000b9e565b5b62001077825462000e33565b6200108482828562000fa9565b600060209050601f831160018114620010bc5760008415620010a7578287015190505b620010b3858262001026565b86555062001123565b601f198416620010cc8662000e68565b60005b82811015620010f657848901518255600182019150602085019450602081019050620010cf565b8683101562001116578489015162001112601f89168262001006565b8355505b6001600288020188555050505b505050505050565b600073ffffffffffffffffffffffffffffffffffffffff82169050919050565b600062001158826200112b565b9050919050565b6200116a816200114b565b81146200117657600080fd5b50565b6000815190506200118a816200115f565b92915050565b60006bffffffffffffffffffffffff82169050919050565b620011b38162001190565b8114620011bf57600080fd5b50565b600081519050620011d381620011a8565b92915050565b600061ffff82169050919050565b620011f281620011d9565b8114620011fe57600080fd5b50565b6000815190506200121281620011e7565b92915050565b600063ffffffff82169050919050565b620012338162001218565b81146200123f57600080fd5b50565b600081519050620012538162001228565b92915050565b60008060008060008060008060008060006101608c8e03121562001282576200128162000b7e565b5b6000620012928e828f0162001179565b9b50506020620012a58e828f01620011c2565b9a50506040620012b88e828f0162001179565b9950506060620012cb8e828f0162001201565b9850506080620012de8e828f0162001201565b97505060a0620012f18e828f0162001201565b96505060c0620013048e828f0162001201565b95505060e0620013178e828f0162001242565b9450506101006200132b8e828f0162001179565b9350506101208c015167ffffffffffffffff81111562001350576200134f62000b83565b5b6200135e8e828f0162000cde565b9250506101408c015167ffffffffffffffff81111562001383576200138262000b83565b5b620013918e828f0162000cde565b9150509295989b509295989b9093969950565b600082825260208201905092915050565b7f506f736974697665206361702065787065637465640000000000000000000000600082015250565b6000620013ed601583620013a4565b9150620013fa82620013b5565b602082019050919050565b600060208201905081810360008301526200142081620013de565b9050919050565b7f496e73756666696369656e74206f757470757420746f6b656e20616d6f756e74600082015250565b60006200145f602083620013a4565b91506200146c8262001427565b602082019050919050565b60006020820190508181036000830152620014928162001450565b9050919050565b620014a48162000ef0565b82525050565b6000608082019050620014c1600083018762001499565b620014d0602083018662001499565b620014df604083018562001499565b620014ee606083018462001499565b95945050505050565b600062001518620015126200150c84620011d9565b62000efa565b62001218565b9050919050565b6200152a81620014f7565b82525050565b6200153b8162001218565b82525050565b600060808201905062001558600083018762001499565b62001567602083018662001499565b6200157660408301856200151f565b62001585606083018462001530565b95945050505050565b620015998162000ef0565b8114620015a557600080fd5b50565b600081519050620015b9816200158e565b92915050565b600060ff82169050919050565b620015d781620015bf565b8114620015e357600080fd5b50565b600081519050620015f781620015cc565b92915050565b6000806040838503121562001617576200161662000b7e565b5b60006200162785828601620015a8565b92505060206200163a85828601620015e6565b9150509250929050565b6200164f816200114b565b82525050565b60006020820190506200166c600083018462001644565b92915050565b6000620016936200168d620016878462001190565b62000efa565b62000ef0565b9050919050565b620016a58162001672565b82525050565b6000604082019050620016c260008301856200169a565b620016d1602083018462001499565b9392505050565b60008060408385031215620016f257620016f162000b7e565b5b60006200170285828601620015a8565b92505060206200171585828601620015a8565b9150509250929050565b600060408201905062001736600083018562001499565b62001745602083018462001499565b9392505050565b600081905092915050565b50565b6000620017696000836200174c565b9150620017768262001757565b600082019050919050565b60006200178e826200175a565b9150819050919050565b7f4c6566746f766572207472616e73666572206661696c65640000000000000000600082015250565b6000620017d0601883620013a4565b9150620017dd8262001798565b602082019050919050565b600060208201905081810360008301526200180381620017c1565b9050919050565b7f4e487b7100000000000000000000000000000000000000000000000000000000600052601160045260246000fd5b6000620018468262000ef0565b9150620018538362000ef0565b92508282019050808211156200186e576200186d6200180a565b5b92915050565b60006060820190506200188b600083018662001644565b6200189a602083018562001499565b620018a9604083018462001499565b949350505050565b6000602082019050620018c8600083018462001499565b92915050565b6000608082019050620018e5600083018762001499565b620018f4602083018662001499565b6200190360408301856200151f565b6200191260608301846200151f565b95945050505050565b6000620019288262000ef0565b9150620019358362000ef0565b9250828202620019458162000ef0565b915082820484148315176200195f576200195e6200180a565b5b5092915050565b7f4e487b7100000000000000000000000000000000000000000000000000000000600052601260045260246000fd5b6000620019a28262000ef0565b9150620019af8362000ef0565b925082620019c257620019c162001966565b5b828204905092915050565b60805160a05160c05160e0516101005161012051610140516101605161273062001ab86000396000610b950152600061064c015260008181610a1b01528181610d4201528181610ecd01526112ab015260008181610a6501528181610d6701528181610ea801526113030152600081816108dd0152818161099001528181610a4001528181610cbe01528181610e8301528181611260015281816112e2015261136c0152600081816108fe01528181610c9d01528181610e5e015261128101526000818161094901528181610c50015261132e01526000818161101501526119b201526127306000f3fe6080604052600436106101355760003560e01c80637284e416116100ab578063a10954fe1161006f578063a10954fe14610433578063a9059cbb1461045e578063afd4c8d61461049b578063dd62ed3e146104c9578063f3ccaac014610506578063fdbddd561461053157610135565b80637284e4161461036b5780638da5cb5b1461039657806395d89b41146103c1578063a035b1fe146103ec578063a0712d681461041757610135565b8063293a7f2e116100fd578063293a7f2e14610235578063313ce5671461025e578063322d210014610289578063355274ea146102c657806369fcd4ac146102f157806370a082311461032e57610135565b806306fdde031461013a578063095ea7b31461016557806318160ddd146101a257806323b872dd146101cd5780632604772c1461020a575b600080fd5b34801561014657600080fd5b5061014f61055c565b60405161015c9190611c8a565b60405180910390f35b34801561017157600080fd5b5061018c60048036038101906101879190611d45565b6105ee565b6040516101999190611da0565b60405180910390f35b3480156101ae57600080fd5b506101b7610611565b6040516101c49190611dca565b60405180910390f35b3480156101d957600080fd5b506101f460048036038101906101ef9190611de5565b61061b565b6040516102019190611da0565b60405180910390f35b34801561021657600080fd5b5061021f61064a565b60405161022c9190611e57565b60405180910390f35b34801561024157600080fd5b5061025c60048036038101906102579190611e72565b61066e565b005b34801561026a57600080fd5b5061027361089d565b6040516102809190611ece565b60405180910390f35b34801561029557600080fd5b506102b060048036038101906102ab9190611ee9565b6108a6565b6040516102bd9190611dca565b60405180910390f35b3480156102d257600080fd5b506102db6108ba565b6040516102e89190611f3d565b60405180910390f35b3480156102fd57600080fd5b5061031860048036038101906103139190611ee9565b6108d8565b6040516103259190611dca565b60405180910390f35b34801561033a57600080fd5b5061035560048036038101906103509190611f58565b610abd565b6040516103629190611dca565b60405180910390f35b34801561037757600080fd5b50610380610b05565b60405161038d9190611c8a565b60405180910390f35b3480156103a257600080fd5b506103ab610b93565b6040516103b89190611f94565b60405180910390f35b3480156103cd57600080fd5b506103d6610bb7565b6040516103e39190611c8a565b60405180910390f35b3480156103f857600080fd5b50610401610c49565b60405161040e9190611dca565b60405180910390f35b610431600480360381019061042c9190611ee9565b610dac565b005b34801561043f57600080fd5b50610448610e2b565b6040516104559190611dca565b60405180910390f35b34801561046a57600080fd5b5061048560048036038101906104809190611d45565b610e33565b6040516104929190611da0565b60405180910390f35b3480156104a757600080fd5b506104b0610e56565b6040516104c09493929190611faf565b60405180910390f35b3480156104d557600080fd5b506104f060048036038101906104eb9190611ff4565b610efe565b6040516104fd9190611dca565b60405180910390f35b34801561051257600080fd5b5061051b610f85565b6040516105289190611c8a565b60405180910390f35b34801561053d57600080fd5b50610546611013565b6040516105539190611f94565b60405180910390f35b60606003805461056b90612063565b80601f016020809104026020016040519081016040528092919081815260200182805461059790612063565b80156105e45780601f106105b9576101008083540402835291602001916105e4565b820191906000526020600020905b8154815290600101906020018083116105c757829003601f168201915b5050505050905090565b6000806105f9611037565b905061060681858561103f565b600191505092915050565b6000600254905090565b600080610626611037565b9050610633858285611051565b61063e8585856110e5565b60019150509392505050565b7f000000000000000000000000000000000000000000000000000000000000000081565b6000600560009054906101000a90046bffffffffffffffffffffffff166bffffffffffffffffffffffff16116106d9576040517f08c379a00000000000000000000000000000000000000000000000000000000081526004016106d0906120e0565b60405180910390fd5b60006106e3610611565b905080831115610728576040517f08c379a000000000000000000000000000000000000000000000000000000000815260040161071f9061214c565b60405180910390fd5b6000610733846108d8565b905082811015610778576040517f08c379a000000000000000000000000000000000000000000000000000000000815260040161076f906121b8565b60405180910390fd5b6000610782611037565b905060008173ffffffffffffffffffffffffffffffffffffffff16836040516107aa90612209565b60006040518083038185875af1925050503d80600081146107e7576040519150601f19603f3d011682016040523d82523d6000602084013e6107ec565b606091505b5050905080610830576040517f08c379a00000000000000000000000000000000000000000000000000000000081526004016108279061226a565b60405180910390fd5b61083a82876111d9565b8173ffffffffffffffffffffffffffffffffffffffff167fb7beb3c4e3f9672320080f6d4256a20ee1ab9dd0c3f763ab3266c4e8b86bb692878561087c610611565b4260405161088d9493929190611faf565b60405180910390a2505050505050565b60006012905090565b60006108b382600061125b565b9050919050565b600560009054906101000a90046bffffffffffffffffffffffff1681565b6000807f00000000000000000000000000000000000000000000000000000000000000007f00000000000000000000000000000000000000000000000000000000000000000161ffff16905060008361092f610611565b03905060008103610944574792505050610ab8565b6000807f000000000000000000000000000000000000000000000000000000000000000073ffffffffffffffffffffffffffffffffffffffff166332833d5184670de0b6b3a7640000877f00000000000000000000000000000000000000000000000000000000000000006040518563ffffffff1660e01b81526004016109ce94939291906122d3565b6040805180830381865afa1580156109ea573d6000803e3d6000fd5b505050506040513d601f19601f82011682018060405250810190610a0e9190612359565b915091508363ffffffff167f000000000000000000000000000000000000000000000000000000000000000061ffff167f000000000000000000000000000000000000000000000000000000000000000061ffff167f000000000000000000000000000000000000000000000000000000000000000061ffff168460ff1686901c020281610a9f57610a9e612399565b5b0481610aae57610aad612399565b5b0447039450505050505b919050565b60008060008373ffffffffffffffffffffffffffffffffffffffff1673ffffffffffffffffffffffffffffffffffffffff168152602001908152602001600020549050919050565b60068054610b1290612063565b80601f0160208091040260200160405190810160405280929190818152602001828054610b3e90612063565b8015610b8b5780601f10610b6057610100808354040283529160200191610b8b565b820191906000526020600020905b815481529060010190602001808311610b6e57829003601f168201915b505050505081565b7f000000000000000000000000000000000000000000000000000000000000000081565b606060048054610bc690612063565b80601f0160208091040260200160405190810160405280929190818152602001828054610bf290612063565b8015610c3f5780601f10610c1457610100808354040283529160200191610c3f565b820191906000526020600020905b815481529060010190602001808311610c2257829003601f168201915b5050505050905090565b60008060007f000000000000000000000000000000000000000000000000000000000000000073ffffffffffffffffffffffffffffffffffffffff166332833d51610c92610611565b670de0b6b3a76400007f00000000000000000000000000000000000000000000000000000000000000007f00000000000000000000000000000000000000000000000000000000000000006040518563ffffffff1660e01b8152600401610cfc94939291906123c8565b6040805180830381865afa158015610d18573d6000803e3d6000fd5b505050506040513d601f19601f82011682018060405250810190610d3c9190612359565b915091507f000000000000000000000000000000000000000000000000000000000000000061ffff167f000000000000000000000000000000000000000000000000000000000000000061ffff168260ff1684901c610d9b919061243c565b610da5919061247e565b9250505090565b6000600560009054906101000a90046bffffffffffffffffffffffff166bffffffffffffffffffffffff1611610e17576040517f08c379a0000000000000000000000000000000000000000000000000000000008152600401610e0e906120e0565b60405180910390fd5b610e28610e22611037565b82611416565b50565b600047905090565b600080610e3e611037565b9050610e4b8185856110e5565b600191505092915050565b6000806000807f000000000000000000000000000000000000000000000000000000000000000061ffff167f000000000000000000000000000000000000000000000000000000000000000061ffff167f000000000000000000000000000000000000000000000000000000000000000061ffff167f000000000000000000000000000000000000000000000000000000000000000061ffff16935093509350935090919293565b6000600160008473ffffffffffffffffffffffffffffffffffffffff1673ffffffffffffffffffffffffffffffffffffffff16815260200190815260200160002060008373ffffffffffffffffffffffffffffffffffffffff1673ffffffffffffffffffffffffffffffffffffffff16815260200190815260200160002054905092915050565b60078054610f9290612063565b80601f0160208091040260200160405190810160405280929190818152602001828054610fbe90612063565b801561100b5780601f10610fe05761010080835404028352916020019161100b565b820191906000526020600020905b815481529060010190602001808311610fee57829003601f168201915b505050505081565b7f000000000000000000000000000000000000000000000000000000000000000081565b600033905090565b61104c8383836001611530565b505050565b600061105d8484610efe565b90507fffffffffffffffffffffffffffffffffffffffffffffffffffffffffffffffff81146110df57818110156110cf578281836040517ffb8f41b20000000000000000000000000000000000000000000000000000000081526004016110c6939291906124af565b60405180910390fd5b6110de84848484036000611530565b5b50505050565b600073ffffffffffffffffffffffffffffffffffffffff168373ffffffffffffffffffffffffffffffffffffffff16036111575760006040517f96c6fd1e00000000000000000000000000000000000000000000000000000000815260040161114e9190611f94565b60405180910390fd5b600073ffffffffffffffffffffffffffffffffffffffff168273ffffffffffffffffffffffffffffffffffffffff16036111c95760006040517fec442f050000000000000000000000000000000000000000000000000000000081526004016111c09190611f94565b60405180910390fd5b6111d4838383611707565b505050565b600073ffffffffffffffffffffffffffffffffffffffff168273ffffffffffffffffffffffffffffffffffffffff160361124b5760006040517f96c6fd1e0000000000000000000000000000000000000000000000000000000081526004016112429190611f94565b60405180910390fd5b61125782600083611707565b5050565b6000807f00000000000000000000000000000000000000000000000000000000000000007f00000000000000000000000000000000000000000000000000000000000000000161ffff16905060007f000000000000000000000000000000000000000000000000000000000000000061ffff168263ffffffff1686864703010202905060007f00000000000000000000000000000000000000000000000000000000000000007f00000000000000000000000000000000000000000000000000000000000000000261ffff1690506000807f000000000000000000000000000000000000000000000000000000000000000073ffffffffffffffffffffffffffffffffffffffff166332833d5185857f0000000000000000000000000000000000000000000000000000000000000000896040518563ffffffff1660e01b81526004016113ab94939291906124e6565b6040805180830381865afa1580156113c7573d6000803e3d6000fd5b505050506040513d601f19601f820116820180604052508101906113eb9190612359565b915091506113f7610611565b670de0b6b3a76400008260ff1684901c02039550505050505092915050565b60003490506000600560009054906101000a90046bffffffffffffffffffffffff166bffffffffffffffffffffffff169050600047905081811061146257600082820390508084039350505b600061146e843461125b565b9050848110156114b3576040517f08c379a00000000000000000000000000000000000000000000000000000000081526004016114aa90612577565b60405180910390fd5b6114bd868261192c565b8573ffffffffffffffffffffffffffffffffffffffff167f94c792774c59479f7bd68442f3af3691c02123a5aabee8b6f9116d8af8aa666982866114ff610611565b426040516115109493929190611faf565b60405180910390a2824710611528576115276119ae565b5b505050505050565b600073ffffffffffffffffffffffffffffffffffffffff168473ffffffffffffffffffffffffffffffffffffffff16036115a25760006040517fe602df050000000000000000000000000000000000000000000000000000000081526004016115999190611f94565b60405180910390fd5b600073ffffffffffffffffffffffffffffffffffffffff168373ffffffffffffffffffffffffffffffffffffffff16036116145760006040517f94280d6200000000000000000000000000000000000000000000000000000000815260040161160b9190611f94565b60405180910390fd5b81600160008673ffffffffffffffffffffffffffffffffffffffff1673ffffffffffffffffffffffffffffffffffffffff16815260200190815260200160002060008573ffffffffffffffffffffffffffffffffffffffff1673ffffffffffffffffffffffffffffffffffffffff168152602001908152602001600020819055508015611701578273ffffffffffffffffffffffffffffffffffffffff168473ffffffffffffffffffffffffffffffffffffffff167f8c5be1e5ebec7d5bd14f71427d1e84f3dd0314c0f7b2291e5b200ac8c7c3b925846040516116f89190611dca565b60405180910390a35b50505050565b600073ffffffffffffffffffffffffffffffffffffffff168373ffffffffffffffffffffffffffffffffffffffff160361175957806002600082825461174d9190612597565b9250508190555061182c565b60008060008573ffffffffffffffffffffffffffffffffffffffff1673ffffffffffffffffffffffffffffffffffffffff168152602001908152602001600020549050818110156117e5578381836040517fe450d38c0000000000000000000000000000000000000000000000000000000081526004016117dc939291906124af565b60405180910390fd5b8181036000808673ffffffffffffffffffffffffffffffffffffffff1673ffffffffffffffffffffffffffffffffffffffff16815260200190815260200160002081905550505b600073ffffffffffffffffffffffffffffffffffffffff168273ffffffffffffffffffffffffffffffffffffffff160361187557806002600082825403925050819055506118c2565b806000808473ffffffffffffffffffffffffffffffffffffffff1673ffffffffffffffffffffffffffffffffffffffff168152602001908152602001600020600082825401925050819055505b8173ffffffffffffffffffffffffffffffffffffffff168373ffffffffffffffffffffffffffffffffffffffff167fddf252ad1be2c89b69c2b068fc378daa952ba7f163c4a11628f55a4df523b3ef8360405161191f9190611dca565b60405180910390a3505050565b600073ffffffffffffffffffffffffffffffffffffffff168273ffffffffffffffffffffffffffffffffffffffff160361199e5760006040517fec442f050000000000000000000000000000000000000000000000000000000081526004016119959190611f94565b60405180910390fd5b6119aa60008383611707565b5050565b60007f000000000000000000000000000000000000000000000000000000000000000090506000808273ffffffffffffffffffffffffffffffffffffffff1663bac95fff600560009054906101000a90046bffffffffffffffffffffffff16611a15610c49565b6040518363ffffffff1660e01b8152600401611a329291906125fc565b60408051808303816000875af1158015611a50573d6000803e3d6000fd5b505050506040513d601f19601f82011682018060405250810190611a749190612625565b91509150611a848382840161192c565b8273ffffffffffffffffffffffffffffffffffffffff1663a226f279600560009054906101000a90046bffffffffffffffffffffffff166bffffffffffffffffffffffff1684846040518463ffffffff1660e01b8152600401611ae8929190612665565b6000604051808303818588803b158015611b0157600080fd5b505af1158015611b15573d6000803e3d6000fd5b50505050506000471115611bd8576000611b2d611037565b73ffffffffffffffffffffffffffffffffffffffff1647604051611b5090612209565b60006040518083038185875af1925050503d8060008114611b8d576040519150601f19603f3d011682016040523d82523d6000602084013e611b92565b606091505b5050905080611bd6576040517f08c379a0000000000000000000000000000000000000000000000000000000008152600401611bcd906126da565b60405180910390fd5b505b600560006101000a8154906bffffffffffffffffffffffff0219169055505050565b600081519050919050565b600082825260208201905092915050565b60005b83811015611c34578082015181840152602081019050611c19565b60008484015250505050565b6000601f19601f8301169050919050565b6000611c5c82611bfa565b611c668185611c05565b9350611c76818560208601611c16565b611c7f81611c40565b840191505092915050565b60006020820190508181036000830152611ca48184611c51565b905092915050565b600080fd5b600073ffffffffffffffffffffffffffffffffffffffff82169050919050565b6000611cdc82611cb1565b9050919050565b611cec81611cd1565b8114611cf757600080fd5b50565b600081359050611d0981611ce3565b92915050565b6000819050919050565b611d2281611d0f565b8114611d2d57600080fd5b50565b600081359050611d3f81611d19565b92915050565b60008060408385031215611d5c57611d5b611cac565b5b6000611d6a85828601611cfa565b9250506020611d7b85828601611d30565b9150509250929050565b60008115159050919050565b611d9a81611d85565b82525050565b6000602082019050611db56000830184611d91565b92915050565b611dc481611d0f565b82525050565b6000602082019050611ddf6000830184611dbb565b92915050565b600080600060608486031215611dfe57611dfd611cac565b5b6000611e0c86828701611cfa565b9350506020611e1d86828701611cfa565b9250506040611e2e86828701611d30565b9150509250925092565b600063ffffffff82169050919050565b611e5181611e38565b82525050565b6000602082019050611e6c6000830184611e48565b92915050565b60008060408385031215611e8957611e88611cac565b5b6000611e9785828601611d30565b9250506020611ea885828601611d30565b9150509250929050565b600060ff82169050919050565b611ec881611eb2565b82525050565b6000602082019050611ee36000830184611ebf565b92915050565b600060208284031215611eff57611efe611cac565b5b6000611f0d84828501611d30565b91505092915050565b60006bffffffffffffffffffffffff82169050919050565b611f3781611f16565b82525050565b6000602082019050611f526000830184611f2e565b92915050565b600060208284031215611f6e57611f6d611cac565b5b6000611f7c84828501611cfa565b91505092915050565b611f8e81611cd1565b82525050565b6000602082019050611fa96000830184611f85565b92915050565b6000608082019050611fc46000830187611dbb565b611fd16020830186611dbb565b611fde6040830185611dbb565b611feb6060830184611dbb565b95945050505050565b6000806040838503121561200b5761200a611cac565b5b600061201985828601611cfa565b925050602061202a85828601611cfa565b9150509250929050565b7f4e487b7100000000000000000000000000000000000000000000000000000000600052602260045260246000fd5b6000600282049050600182168061207b57607f821691505b60208210810361208e5761208d612034565b5b50919050565b7f416c7265616479206c6973746564000000000000000000000000000000000000600082015250565b60006120ca600e83611c05565b91506120d582612094565b602082019050919050565b600060208201905081810360008301526120f9816120bd565b9050919050565b7f52657469726520416d6f756e74204578636565647320537570706c7900000000600082015250565b6000612136601c83611c05565b915061214182612100565b602082019050919050565b6000602082019050818103600083015261216581612129565b9050919050565b7f496e73756666696369656e74206f75747075742045544820616d6f756e740000600082015250565b60006121a2601e83611c05565b91506121ad8261216c565b602082019050919050565b600060208201905081810360008301526121d181612195565b9050919050565b600081905092915050565b50565b60006121f36000836121d8565b91506121fe826121e3565b600082019050919050565b6000612214826121e6565b9150819050919050565b7f455448207472616e73666572206661696c656400000000000000000000000000600082015250565b6000612254601383611c05565b915061225f8261221e565b602082019050919050565b6000602082019050818103600083015261228381612247565b9050919050565b600061ffff82169050919050565b6000819050919050565b60006122bd6122b86122b38461228a565b612298565b611e38565b9050919050565b6122cd816122a2565b82525050565b60006080820190506122e86000830187611dbb565b6122f56020830186611dbb565b6123026040830185611e48565b61230f60608301846122c4565b95945050505050565b60008151905061232781611d19565b92915050565b61233681611eb2565b811461234157600080fd5b50565b6000815190506123538161232d565b92915050565b600080604083850312156123705761236f611cac565b5b600061237e85828601612318565b925050602061238f85828601612344565b9150509250929050565b7f4e487b7100000000000000000000000000000000000000000000000000000000600052601260045260246000fd5b60006080820190506123dd6000830187611dbb565b6123ea6020830186611dbb565b6123f760408301856122c4565b61240460608301846122c4565b95945050505050565b7f4e487b7100000000000000000000000000000000000000000000000000000000600052601160045260246000fd5b600061244782611d0f565b915061245283611d0f565b925082820261246081611d0f565b915082820484148315176124775761247661240d565b5b5092915050565b600061248982611d0f565b915061249483611d0f565b9250826124a4576124a3612399565b5b828204905092915050565b60006060820190506124c46000830186611f85565b6124d16020830185611dbb565b6124de6040830184611dbb565b949350505050565b60006080820190506124fb6000830187611dbb565b6125086020830186611dbb565b61251560408301856122c4565b6125226060830184611e48565b95945050505050565b7f496e73756666696369656e74206f757470757420746f6b656e20616d6f756e74600082015250565b6000612561602083611c05565b915061256c8261252b565b602082019050919050565b6000602082019050818103600083015261259081612554565b9050919050565b60006125a282611d0f565b91506125ad83611d0f565b92508282019050808211156125c5576125c461240d565b5b92915050565b60006125e66125e16125dc84611f16565b612298565b611d0f565b9050919050565b6125f6816125cb565b82525050565b600060408201905061261160008301856125ed565b61261e6020830184611dbb565b9392505050565b6000806040838503121561263c5761263b611cac565b5b600061264a85828601612318565b925050602061265b85828601612318565b9150509250929050565b600060408201905061267a6000830185611dbb565b6126876020830184611dbb565b9392505050565b7f4c6566746f766572207472616e73666572206661696c65640000000000000000600082015250565b60006126c4601883611c05565b91506126cf8261268e565b602082019050919050565b600060208201905081810360008301526126f3816126b7565b905091905056fea2646970667358221220d943afa744daaf2d00e034ab3c4c3bafd9cc7331f3723adb74705b6ea9dace2264736f6c63430008180033a2646970667358221220fe29d54c0733a823144457591cbdd7894ba72a43466e364a90212057a28a4da064736f6c63430008180033",
  "linkReferences": {},
  "deployedLinkReferences": {}
}