{
  "_format": "hh-sol-artifact-1",
  "contractName": "MockMEMEZ",
  "sourceName": "contracts/MockMEMEZ.sol",
  "abi": [
    {
      "inputs": [],
      "stateMutability": "nonpayable",
      "type": "constructor"
    },
    {
      "inputs": [
        {
          "internalType": "address",
          "name": "spender",
          "type": "address"
        },
        {
          "internalType": "uint256",
          "name": "allowance",
          "type": "uint256"
        },
        {
          "internalType": "uint256",
          "name": "needed",
          "type": "uint256"
        }
      ],
      "name": "ERC20InsufficientAllowance",
      "type": "error"
    },
    {
      "inputs": [
        {
          "internalType": "address",
          "name": "sender",
          "type": "address"
        },
        {
          "internalType": "uint256",
          "name": "balance",
          "type": "uint256"
        },
        {
          "internalType": "uint256",
          "name": "needed",
          "type": "uint256"
        }
      ],
      "name": "ERC20InsufficientBalance",
      "type": "error"
    },
    {
      "inputs": [
        {
          "internalType": "address",
          "name": "approver",
          "type": "address"
        }
      ],
      "name": "ERC20InvalidApprover",
      "type": "error"
    },
    {
      "inputs": [
        {
          "internalType": "address",
          "name": "receiver",
          "type": "address"
        }
      ],
      "name": "ERC20InvalidReceiver",
      "type": "error"
    },
    {
      "inputs": [
        {
          "internalType": "address",
          "name": "sender",
          "type": "address"
        }
      ],
      "name": "ERC20InvalidSender",
      "type": "error"
    },
    {
      "inputs": [
        {
          "internalType": "address",
          "name": "spender",
          "type": "address"
        }
      ],
      "name": "ERC20InvalidSpender",
      "type": "error"
    },
    {
      "anonymous": false,
      "inputs": [
        {
          "indexed": true,
          "internalType": "address",
          "name": "owner",
          "type": "address"
        },
        {
          "indexed": true,
          "internalType": "address",
          "name": "spender",
          "type": "address"
        },
        {
          "indexed": false,
          "internalType": "uint256",
          "name": "value",
          "type": "uint256"
        }
      ],
      "name": "Approval",
      "type": "event"
    },
    {
      "anonymous": false,
      "inputs": [
        {
          "indexed": true,
          "internalType": "address",
          "name": "from",
          "type": "address"
        },
        {
          "indexed": true,
          "internalType": "address",
          "name": "to",
          "type": "address"
        },
        {
          "indexed": false,
          "internalType": "uint256",
          "name": "value",
          "type": "uint256"
        }
      ],
      "name": "Transfer",
      "type": "event"
    },
    {
      "inputs": [
        {
          "internalType": "address",
          "name": "owner",
          "type": "address"
        },
        {
          "internalType": "address",
          "name": "spender",
          "type": "address"
        }
      ],
      "name": "allowance",
      "outputs": [
        {
          "internalType": "uint256",
          "name": "",
          "type": "uint256"
        }
      ],
      "stateMutability": "view",
      "type": "function"
    },
    {
      "inputs": [
        {
          "internalType": "address",
          "name": "spender",
          "type": "address"
        },
        {
          "internalType": "uint256",
          "name": "value",
          "type": "uint256"
        }
      ],
      "name": "approve",
      "outputs": [
        {
          "internalType": "bool",
          "name": "",
          "type": "bool"
        }
      ],
      "stateMutability": "nonpayable",
      "type": "function"
    },
    {
      "inputs": [
        {
          "internalType": "address",
          "name": "account",
          "type": "address"
        }
      ],
      "name": "balanceOf",
      "outputs": [
        {
          "internalType": "uint256",
          "name": "",
          "type": "uint256"
        }
      ],
      "stateMutability": "view",
      "type": "function"
    },
    {
      "inputs": [],
      "name": "decimals",
      "outputs": [
        {
          "internalType": "uint8",
          "name": "",
          "type": "uint8"
        }
      ],
      "stateMutability": "view",
      "type": "function"
    },
    {
      "inputs": [
        {
          "internalType": "uint256",
          "name": "amount",
          "type": "uint256"
        }
      ],
      "name": "list",
      "outputs": [],
      "stateMutability": "payable",
      "type": "function"
    },
    {
      "inputs": [],
      "name": "name",
      "outputs": [
        {
          "internalType": "string",
          "name": "",
          "type": "string"
        }
      ],
      "stateMutability": "view",
      "type": "function"
    },
    {
      "inputs": [],
      "name": "symbol",
      "outputs": [
        {
          "internalType": "string",
          "name": "",
          "type": "string"
        }
      ],
      "stateMutability": "view",
      "type": "function"
    },
    {
      "inputs": [],
      "name": "totalSupply",
      "outputs": [
        {
          "internalType": "uint256",
          "name": "",
          "type": "uint256"
        }
      ],
      "stateMutability": "view",
      "type": "function"
    },
    {
      "inputs": [
        {
          "internalType": "address",
          "name": "to",
          "type": "address"
        },
        {
          "internalType": "uint256",
          "name": "value",
          "type": "uint256"
        }
      ],
      "name": "transfer",
      "outputs": [
        {
          "internalType": "bool",
          "name": "",
          "type": "bool"
        }
      ],
      "stateMutability": "nonpayable",
      "type": "function"
    },
    {
      "inputs": [
        {
          "internalType": "address",
          "name": "from",
          "type": "address"
        },
        {
          "internalType": "address",
          "name": "to",
          "type": "address"
        },
        {
          "internalType": "uint256",
          "name": "value",
          "type": "uint256"
        }
      ],
      "name": "transferFrom",
      "outputs": [
        {
          "internalType": "bool",
          "name": "",
          "type": "bool"
        }
      ],
      "stateMutability": "nonpayable",
      "type": "function"
    }
  ],
  "bytecode": "0x60806040523480156200001157600080fd5b506040518060400160405280600b81526020017f4d454d455a20546f6b656e0000000000000000000000000000000000000000008152506040518060400160405280600581526020017f4d454d455a00000000000000000000000000000000000000000000000000000081525081600390816200008f919062000324565b508060049081620000a1919062000324565b5050506200040b565b600081519050919050565b7f4e487b7100000000000000000000000000000000000000000000000000000000600052604160045260246000fd5b7f4e487b7100000000000000000000000000000000000000000000000000000000600052602260045260246000fd5b600060028204905060018216806200012c57607f821691505b602082108103620001425762000141620000e4565b5b50919050565b60008190508160005260206000209050919050565b60006020601f8301049050919050565b600082821b905092915050565b600060088302620001ac7fffffffffffffffffffffffffffffffffffffffffffffffffffffffffffffffff826200016d565b620001b886836200016d565b95508019841693508086168417925050509392505050565b6000819050919050565b6000819050919050565b600062000205620001ff620001f984620001d0565b620001da565b620001d0565b9050919050565b6000819050919050565b6200022183620001e4565b6200023962000230826200020c565b8484546200017a565b825550505050565b600090565b6200025062000241565b6200025d81848462000216565b505050565b5b8181101562000285576200027960008262000246565b60018101905062000263565b5050565b601f821115620002d4576200029e8162000148565b620002a9846200015d565b81016020851015620002b9578190505b620002d1620002c8856200015d565b83018262000262565b50505b505050565b600082821c905092915050565b6000620002f960001984600802620002d9565b1980831691505092915050565b6000620003148383620002e6565b9150826002028217905092915050565b6200032f82620000aa565b67ffffffffffffffff8111156200034b576200034a620000b5565b5b62000357825462000113565b6200036482828562000289565b600060209050601f8311600181146200039c576000841562000387578287015190505b62000393858262000306565b86555062000403565b601f198416620003ac8662000148565b60005b82811015620003d657848901518255600182019150602085019450602081019050620003af565b86831015620003f65784890151620003f2601f891682620002e6565b8355505b6001600288020188555050505b505050505050565b611127806200041b6000396000f3fe6080604052600436106100915760003560e01c806370a082311161005957806370a082311461019157806380c9419e146101ce57806395d89b41146101ea578063a9059cbb14610215578063dd62ed3e1461025257610091565b806306fdde0314610096578063095ea7b3146100c157806318160ddd146100fe57806323b872dd14610129578063313ce56714610166575b600080fd5b3480156100a257600080fd5b506100ab61028f565b6040516100b89190610c85565b60405180910390f35b3480156100cd57600080fd5b506100e860048036038101906100e39190610d40565b610321565b6040516100f59190610d9b565b60405180910390f35b34801561010a57600080fd5b50610113610344565b6040516101209190610dc5565b60405180910390f35b34801561013557600080fd5b50610150600480360381019061014b9190610de0565b61034e565b60405161015d9190610d9b565b60405180910390f35b34801561017257600080fd5b5061017b61037d565b6040516101889190610e4f565b60405180910390f35b34801561019d57600080fd5b506101b860048036038101906101b39190610e6a565b610386565b6040516101c59190610dc5565b60405180910390f35b6101e860048036038101906101e39190610e97565b6103ce565b005b3480156101f657600080fd5b506101ff610499565b60405161020c9190610c85565b60405180910390f35b34801561022157600080fd5b5061023c60048036038101906102379190610d40565b61052b565b6040516102499190610d9b565b60405180910390f35b34801561025e57600080fd5b5061027960048036038101906102749190610ec4565b61054e565b6040516102869190610dc5565b60405180910390f35b60606003805461029e90610f33565b80601f01602080910402602001604051908101604052809291908181526020018280546102ca90610f33565b80156103175780601f106102ec57610100808354040283529160200191610317565b820191906000526020600020905b8154815290600101906020018083116102fa57829003601f168201915b5050505050905090565b60008061032c6105d5565b90506103398185856105dd565b600191505092915050565b6000600254905090565b6000806103596105d5565b90506103668582856105ef565b610371858585610683565b60019150509392505050565b60006012905090565b60008060008373ffffffffffffffffffffffffffffffffffffffff1673ffffffffffffffffffffffffffffffffffffffff168152602001908152602001600020549050919050565b6103d83082610777565b6103f7307339cd4db6460d8b5961f73e997e86ddbb7ca4d5f6836105dd565b7339cd4db6460d8b5961f73e997e86ddbb7ca4d5f673ffffffffffffffffffffffffffffffffffffffff1663f305d71947308485476000426040518863ffffffff1660e01b815260040161045096959493929190610f73565b60606040518083038185885af115801561046e573d6000803e3d6000fd5b50505050506040513d601f19601f820116820180604052508101906104939190610fe9565b50505050565b6060600480546104a890610f33565b80601f01602080910402602001604051908101604052809291908181526020018280546104d490610f33565b80156105215780601f106104f657610100808354040283529160200191610521565b820191906000526020600020905b81548152906001019060200180831161050457829003601f168201915b5050505050905090565b6000806105366105d5565b9050610543818585610683565b600191505092915050565b6000600160008473ffffffffffffffffffffffffffffffffffffffff1673ffffffffffffffffffffffffffffffffffffffff16815260200190815260200160002060008373ffffffffffffffffffffffffffffffffffffffff1673ffffffffffffffffffffffffffffffffffffffff16815260200190815260200160002054905092915050565b600033905090565b6105ea83838360016107f9565b505050565b60006105fb848461054e565b90507fffffffffffffffffffffffffffffffffffffffffffffffffffffffffffffffff811461067d578181101561066d578281836040517ffb8f41b20000000000000000000000000000000000000000000000000000000081526004016106649392919061103c565b60405180910390fd5b61067c848484840360006107f9565b5b50505050565b600073ffffffffffffffffffffffffffffffffffffffff168373ffffffffffffffffffffffffffffffffffffffff16036106f55760006040517f96c6fd1e0000000000000000000000000000000000000000000000000000000081526004016106ec9190611073565b60405180910390fd5b600073ffffffffffffffffffffffffffffffffffffffff168273ffffffffffffffffffffffffffffffffffffffff16036107675760006040517fec442f0500000000000000000000000000000000000000000000000000000000815260040161075e9190611073565b60405180910390fd5b6107728383836109d0565b505050565b600073ffffffffffffffffffffffffffffffffffffffff168273ffffffffffffffffffffffffffffffffffffffff16036107e95760006040517fec442f050000000000000000000000000000000000000000000000000000000081526004016107e09190611073565b60405180910390fd5b6107f5600083836109d0565b5050565b600073ffffffffffffffffffffffffffffffffffffffff168473ffffffffffffffffffffffffffffffffffffffff160361086b5760006040517fe602df050000000000000000000000000000000000000000000000000000000081526004016108629190611073565b60405180910390fd5b600073ffffffffffffffffffffffffffffffffffffffff168373ffffffffffffffffffffffffffffffffffffffff16036108dd5760006040517f94280d620000000000000000000000000000000000000000000000000000000081526004016108d49190611073565b60405180910390fd5b81600160008673ffffffffffffffffffffffffffffffffffffffff1673ffffffffffffffffffffffffffffffffffffffff16815260200190815260200160002060008573ffffffffffffffffffffffffffffffffffffffff1673ffffffffffffffffffffffffffffffffffffffff1681526020019081526020016000208190555080156109ca578273ffffffffffffffffffffffffffffffffffffffff168473ffffffffffffffffffffffffffffffffffffffff167f8c5be1e5ebec7d5bd14f71427d1e84f3dd0314c0f7b2291e5b200ac8c7c3b925846040516109c19190610dc5565b60405180910390a35b50505050565b600073ffffffffffffffffffffffffffffffffffffffff168373ffffffffffffffffffffffffffffffffffffffff1603610a22578060026000828254610a1691906110bd565b92505081905550610af5565b60008060008573ffffffffffffffffffffffffffffffffffffffff1673ffffffffffffffffffffffffffffffffffffffff16815260200190815260200160002054905081811015610aae578381836040517fe450d38c000000000000000000000000000000000000000000000000000000008152600401610aa59392919061103c565b60405180910390fd5b8181036000808673ffffffffffffffffffffffffffffffffffffffff1673ffffffffffffffffffffffffffffffffffffffff16815260200190815260200160002081905550505b600073ffffffffffffffffffffffffffffffffffffffff168273ffffffffffffffffffffffffffffffffffffffff1603610b3e5780600260008282540392505081905550610b8b565b806000808473ffffffffffffffffffffffffffffffffffffffff1673ffffffffffffffffffffffffffffffffffffffff168152602001908152602001600020600082825401925050819055505b8173ffffffffffffffffffffffffffffffffffffffff168373ffffffffffffffffffffffffffffffffffffffff167fddf252ad1be2c89b69c2b068fc378daa952ba7f163c4a11628f55a4df523b3ef83604051610be89190610dc5565b60405180910390a3505050565b600081519050919050565b600082825260208201905092915050565b60005b83811015610c2f578082015181840152602081019050610c14565b60008484015250505050565b6000601f19601f8301169050919050565b6000610c5782610bf5565b610c618185610c00565b9350610c71818560208601610c11565b610c7a81610c3b565b840191505092915050565b60006020820190508181036000830152610c9f8184610c4c565b905092915050565b600080fd5b600073ffffffffffffffffffffffffffffffffffffffff82169050919050565b6000610cd782610cac565b9050919050565b610ce781610ccc565b8114610cf257600080fd5b50565b600081359050610d0481610cde565b92915050565b6000819050919050565b610d1d81610d0a565b8114610d2857600080fd5b50565b600081359050610d3a81610d14565b92915050565b60008060408385031215610d5757610d56610ca7565b5b6000610d6585828601610cf5565b9250506020610d7685828601610d2b565b9150509250929050565b60008115159050919050565b610d9581610d80565b82525050565b6000602082019050610db06000830184610d8c565b92915050565b610dbf81610d0a565b82525050565b6000602082019050610dda6000830184610db6565b92915050565b600080600060608486031215610df957610df8610ca7565b5b6000610e0786828701610cf5565b9350506020610e1886828701610cf5565b9250506040610e2986828701610d2b565b9150509250925092565b600060ff82169050919050565b610e4981610e33565b82525050565b6000602082019050610e646000830184610e40565b92915050565b600060208284031215610e8057610e7f610ca7565b5b6000610e8e84828501610cf5565b91505092915050565b600060208284031215610ead57610eac610ca7565b5b6000610ebb84828501610d2b565b91505092915050565b60008060408385031215610edb57610eda610ca7565b5b6000610ee985828601610cf5565b9250506020610efa85828601610cf5565b9150509250929050565b7f4e487b7100000000000000000000000000000000000000000000000000000000600052602260045260246000fd5b60006002820490506001821680610f4b57607f821691505b602082108103610f5e57610f5d610f04565b5b50919050565b610f6d81610ccc565b82525050565b600060c082019050610f886000830189610f64565b610f956020830188610db6565b610fa26040830187610db6565b610faf6060830186610db6565b610fbc6080830185610f64565b610fc960a0830184610db6565b979650505050505050565b600081519050610fe381610d14565b92915050565b60008060006060848603121561100257611001610ca7565b5b600061101086828701610fd4565b935050602061102186828701610fd4565b925050604061103286828701610fd4565b9150509250925092565b60006060820190506110516000830186610f64565b61105e6020830185610db6565b61106b6040830184610db6565b949350505050565b60006020820190506110886000830184610f64565b92915050565b7f4e487b7100000000000000000000000000000000000000000000000000000000600052601160045260246000fd5b60006110c882610d0a565b91506110d383610d0a565b92508282019050808211156110eb576110ea61108e565b5b9291505056fea2646970667358221220f975cdadcfe9b7e4adab6053d3b8a22d2f0684ed00b93d05d4b4a7464fc43e8364736f6c63430008180033",
  "linkReferences": {},
  "deployedLinkReferences": {}
}