{
  "_format": "hh-sol-artifact-1",
  "contractName": "Power",
  "sourceName": "contracts/Power.sol",
  "abi": [
    {
      "inputs": [],
      "name": "init",
      "outputs": [],
      "stateMutability": "nonpayable",
      "type": "function"
    },
    {
      "inputs": [
        {
          "internalType": "uint256",
          "name": "_baseN",
          "type": "uint256"
        },
        {
          "internalType": "uint256",
          "name": "_baseD",
          "type": "uint256"
        },
        {
          "internalType": "uint32",
          "name": "_expN",
          "type": "uint32"
        },
        {
          "internalType": "uint32",
          "name": "_expD",
          "type": "uint32"
        }
      ],
      "name": "power",
      "outputs": [
        {
          "internalType": "uint256",
          "name": "",
          "type": "uint256"
        },
        {
          "internalType": "uint8",
          "name": "",
          "type": "uint8"
        }
      ],
      "stateMutability": "view",
      "type": "function"
    }
  ],
  "bytecode": "0x608060405234801561001057600080fd5b50612f10806100206000396000f3fe608060405234801561001057600080fd5b50600436106100365760003560e01c806332833d511461003b578063e1c7392a1461006c575b600080fd5b61005560048036038101906100509190612bc2565b610076565b604051610063929190612c54565b60405180910390f35b61007461018a565b005b600080700200000000000000000000000000000000861061009657600080fd5b600080866f80000000000000000000000000000000896100b69190612cac565b6100c09190612d1d565b905070015bf0a8b1457695355fb8ac404e7a79e38110156100eb576100e481610194565b91506100f7565b6100f48161090d565b91505b60008563ffffffff168763ffffffff16846101129190612cac565b61011c9190612d1d565b905070080000000000000000000000000000000081101561014e5761014081610a67565b607f94509450505050610181565b60006101598261126b565b905061017781607f61016b9190612d4e565b60ff1683901c82611345565b8195509550505050505b94509492505050565b610192611a54565b565b6000806000905060008060006fd3094c70f034de4b96ff7d5b6f99fcd8861061020f576f40000000000000000000000000000000846101d39190612d83565b93506fd3094c70f034de4b96ff7d5b6f99fcd86f80000000000000000000000000000000876102029190612cac565b61020c9190612d1d565b95505b6fa45af1e1f40c333b3de1db4dd55f29a7861061027e576f20000000000000000000000000000000846102429190612d83565b93506fa45af1e1f40c333b3de1db4dd55f29a76f80000000000000000000000000000000876102719190612cac565b61027b9190612d1d565b95505b6f910b022db7ae67ce76b441c27035c6a186106102ed576f10000000000000000000000000000000846102b19190612d83565b93506f910b022db7ae67ce76b441c27035c6a16f80000000000000000000000000000000876102e09190612cac565b6102ea9190612d1d565b95505b6f88415abbe9a76bead8d00cf112e4d4a8861061035c576f08000000000000000000000000000000846103209190612d83565b93506f88415abbe9a76bead8d00cf112e4d4a86f800000000000000000000000000000008761034f9190612cac565b6103599190612d1d565b95505b6f84102b00893f64c705e841d5d4064bd386106103cb576f040000000000000000000000000000008461038f9190612d83565b93506f84102b00893f64c705e841d5d4064bd36f80000000000000000000000000000000876103be9190612cac565b6103c89190612d1d565b95505b6f8204055aaef1c8bd5c3259f4822735a2861061043a576f02000000000000000000000000000000846103fe9190612d83565b93506f8204055aaef1c8bd5c3259f4822735a26f800000000000000000000000000000008761042d9190612cac565b6104379190612d1d565b95505b6f810100ab00222d861931c15e39b44e9986106104a9576f010000000000000000000000000000008461046d9190612d83565b93506f810100ab00222d861931c15e39b44e996f800000000000000000000000000000008761049c9190612cac565b6104a69190612d1d565b95505b6f808040155aabbbe9451521693554f7338610610517576e800000000000000000000000000000846104db9190612d83565b93506f808040155aabbbe9451521693554f7336f800000000000000000000000000000008761050a9190612cac565b6105149190612d1d565b95505b6f80000000000000000000000000000000866105339190612db7565b92508291506f8000000000000000000000000000000083846105559190612cac565b61055f9190612d1d565b9050700100000000000000000000000000000000837001000000000000000000000000000000006105909190612db7565b8361059b9190612cac565b6105a59190612d1d565b846105b09190612d83565b93506f8000000000000000000000000000000081836105cf9190612cac565b6105d99190612d1d565b9150700200000000000000000000000000000000836faaaaaaaaaaaaaaaaaaaaaaaaaaaaaaaa6106099190612db7565b836106149190612cac565b61061e9190612d1d565b846106299190612d83565b93506f8000000000000000000000000000000081836106489190612cac565b6106529190612d1d565b9150700300000000000000000000000000000000836f999999999999999999999999999999996106829190612db7565b8361068d9190612cac565b6106979190612d1d565b846106a29190612d83565b93506f8000000000000000000000000000000081836106c19190612cac565b6106cb9190612d1d565b9150700400000000000000000000000000000000836f924924924924924924924924924924926106fb9190612db7565b836107069190612cac565b6107109190612d1d565b8461071b9190612d83565b93506f80000000000000000000000000000000818361073a9190612cac565b6107449190612d1d565b9150700500000000000000000000000000000000836f8e38e38e38e38e38e38e38e38e38e38e6107749190612db7565b8361077f9190612cac565b6107899190612d1d565b846107949190612d83565b93506f8000000000000000000000000000000081836107b39190612cac565b6107bd9190612d1d565b9150700600000000000000000000000000000000836f8ba2e8ba2e8ba2e8ba2e8ba2e8ba2e8b6107ed9190612db7565b836107f89190612cac565b6108029190612d1d565b8461080d9190612d83565b93506f80000000000000000000000000000000818361082c9190612cac565b6108369190612d1d565b9150700700000000000000000000000000000000836f89d89d89d89d89d89d89d89d89d89d896108669190612db7565b836108719190612cac565b61087b9190612d1d565b846108869190612d83565b93506f8000000000000000000000000000000081836108a59190612cac565b6108af9190612d1d565b9150700800000000000000000000000000000000836f888888888888888888888888888888886108df9190612db7565b836108ea9190612cac565b6108f49190612d1d565b846108ff9190612d83565b935083945050505050919050565b6000806000905070010000000000000000000000000000000083106109805760006109526f800000000000000000000000000000008561094d9190612d1d565b612ac6565b90508060ff1684901c93506f800000000000000000000000000000008160ff1661097c9190612cac565b9150505b6f80000000000000000000000000000000831115610a28576000607f90505b60008160ff161115610a26576f8000000000000000000000000000000084856109c89190612cac565b6109d29190612d1d565b93507001000000000000000000000000000000008410610a1557600184901c9350600181610a009190612d4e565b60ff166001901b82610a129190612d83565b91505b80610a1f90612deb565b905061099f565b505b6f05b9de1d10bf4103d647b0955897ba806f03f80fe03f80fe03f80fe03f80fe03f882610a559190612cac565b610a5f9190612d1d565b915050919050565b600080600090506000806f1000000000000000000000000000000085610a8d9190612e14565b91508190506f800000000000000000000000000000008282610aaf9190612cac565b610ab99190612d1d565b90506710e1b3be415a000081610acf9190612cac565b83610ada9190612d83565b92506f800000000000000000000000000000008282610af99190612cac565b610b039190612d1d565b90506705a0913f6b1e000081610b199190612cac565b83610b249190612d83565b92506f800000000000000000000000000000008282610b439190612cac565b610b4d9190612d1d565b9050670168244fdac7800081610b639190612cac565b83610b6e9190612d83565b92506f800000000000000000000000000000008282610b8d9190612cac565b610b979190612d1d565b9050664807432bc1800081610bac9190612cac565b83610bb79190612d83565b92506f800000000000000000000000000000008282610bd69190612cac565b610be09190612d1d565b9050660c0135dca0400081610bf59190612cac565b83610c009190612d83565b92506f800000000000000000000000000000008282610c1f9190612cac565b610c299190612d1d565b90506601b707b1cdc00081610c3e9190612cac565b83610c499190612d83565b92506f800000000000000000000000000000008282610c689190612cac565b610c729190612d1d565b90506536e0f639b80081610c869190612cac565b83610c919190612d83565b92506f800000000000000000000000000000008282610cb09190612cac565b610cba9190612d1d565b9050650618fee9f80081610cce9190612cac565b83610cd99190612d83565b92506f800000000000000000000000000000008282610cf89190612cac565b610d029190612d1d565b9050649c197dcc0081610d159190612cac565b83610d209190612d83565b92506f800000000000000000000000000000008282610d3f9190612cac565b610d499190612d1d565b9050640e30dce40081610d5c9190612cac565b83610d679190612d83565b92506f800000000000000000000000000000008282610d869190612cac565b610d909190612d1d565b905064012ebd130081610da39190612cac565b83610dae9190612d83565b92506f800000000000000000000000000000008282610dcd9190612cac565b610dd79190612d1d565b90506317499f0081610de99190612cac565b83610df49190612d83565b92506f800000000000000000000000000000008282610e139190612cac565b610e1d9190612d1d565b90506301a9d48081610e2f9190612cac565b83610e3a9190612d83565b92506f800000000000000000000000000000008282610e599190612cac565b610e639190612d1d565b9050621c638081610e749190612cac565b83610e7f9190612d83565b92506f800000000000000000000000000000008282610e9e9190612cac565b610ea89190612d1d565b90506201c63881610eb99190612cac565b83610ec49190612d83565b92506f800000000000000000000000000000008282610ee39190612cac565b610eed9190612d1d565b9050611ab881610efd9190612cac565b83610f089190612d83565b92506f800000000000000000000000000000008282610f279190612cac565b610f319190612d1d565b905061017c81610f419190612cac565b83610f4c9190612d83565b92506f800000000000000000000000000000008282610f6b9190612cac565b610f759190612d1d565b9050601481610f849190612cac565b83610f8f9190612d83565b92506f800000000000000000000000000000008282610fae9190612cac565b610fb89190612d1d565b9050600181610fc79190612cac565b83610fd29190612d83565b92506f80000000000000000000000000000000826721c3677c82b4000085610ffa9190612d1d565b6110049190612d83565b61100e9190612d83565b925060006f100000000000000000000000000000008616146110665770018ebef9eac820ae8682b9793ac6d1e7767001c3d6a24ed82218787d624d3e5eba95f9846110599190612cac565b6110639190612d1d565b92505b60006f200000000000000000000000000000008616146110bc577001368b2fc6f9609fe7aceb46aa619baed470018ebef9eac820ae8682b9793ac6d1e778846110af9190612cac565b6110b99190612d1d565b92505b60006f40000000000000000000000000000000861614611111576fbc5ab1b16779be3575bd8f0520a9f21f7001368b2fc6f9609fe7aceb46aa619baed5846111049190612cac565b61110e9190612d1d565b92505b60006f80000000000000000000000000000000861614611165576f454aaa8efe072e7f6ddbab84b40a55c96fbc5ab1b16779be3575bd8f0520a9f21e846111589190612cac565b6111629190612d1d565b92505b60007001000000000000000000000000000000008616146111ba576f0960aadc109e7a3bf4578099615711ea6f454aaa8efe072e7f6ddbab84b40a55c5846111ad9190612cac565b6111b79190612d1d565b92505b600070020000000000000000000000000000000086161461120e576e2bf84208204f5977f9a8cf01fdce3d6f0960aadc109e7a3bf4578099615711d7846112019190612cac565b61120b9190612d1d565b92505b6000700400000000000000000000000000000000861614611260576d03c6ab775dd0b95b4cbee7e65d116e2bf84208204f5977f9a8cf01fdc307846112539190612cac565b61125d9190612d1d565b92505b829350505050919050565b600080602090506000607f90505b8060ff1660018361128a9190612e45565b60ff1610156112e0576000600282846112a39190612e45565b6112ad9190612e7a565b90508460008260ff16608081106112c7576112c6612eab565b5b0154106112d6578092506112da565b8091505b50611279565b8360008260ff16608081106112f8576112f7612eab565b5b015410611309578092505050611340565b8360008360ff166080811061132157611320612eab565b5b015410611332578192505050611340565b600061133d57600080fd5b50505b919050565b60008083905060008360ff16858361135d9190612cac565b901c91506f03442c4e6074a82f1797f72ac00000008261137d9190612cac565b816113889190612d83565b90508360ff16858361139a9190612cac565b901c91506f0116b96f757c380fb287fd0e40000000826113ba9190612cac565b816113c59190612d83565b90508360ff1685836113d79190612cac565b901c91506e45ae5bdd5f0e03eca1ff4390000000826113f69190612cac565b816114019190612d83565b90508360ff1685836114139190612cac565b901c91506e0defabf91302cd95b9ffda50000000826114329190612cac565b8161143d9190612d83565b90508360ff16858361144f9190612cac565b901c91506e02529ca9832b22439efff9b80000008261146e9190612cac565b816114799190612d83565b90508360ff16858361148b9190612cac565b901c91506d54f1cf12bd04e516b6da88000000826114a99190612cac565b816114b49190612d83565b90508360ff1685836114c69190612cac565b901c91506d0a9e39e257a09ca2d6db51000000826114e49190612cac565b816114ef9190612d83565b90508360ff1685836115019190612cac565b901c91506d012e066e7b839fa050c3090000008261151f9190612cac565b8161152a9190612d83565b90508360ff16858361153c9190612cac565b901c91506c1e33d7d926c329a1ad1a800000826115599190612cac565b816115649190612d83565b90508360ff1685836115769190612cac565b901c91506c02bee513bdb4a6b19b5f800000826115939190612cac565b8161159e9190612d83565b90508360ff1685836115b09190612cac565b901c91506b3a9316fa79b88eccf2a00000826115cc9190612cac565b816115d79190612d83565b90508360ff1685836115e99190612cac565b901c91506b048177ebe1fa812375200000826116059190612cac565b816116109190612d83565b90508360ff1685836116229190612cac565b901c91506a5263fe90242dcbacf000008261163d9190612cac565b816116489190612d83565b90508360ff16858361165a9190612cac565b901c91506a057e22099c030d94100000826116759190612cac565b816116809190612d83565b90508360ff1685836116929190612cac565b901c91506957e22099c030d9410000826116ac9190612cac565b816116b79190612d83565b90508360ff1685836116c99190612cac565b901c915069052b6b54569976310000826116e39190612cac565b816116ee9190612d83565b90508360ff1685836117009190612cac565b901c9150684985f67696bf748000826117199190612cac565b816117249190612d83565b90508360ff1685836117369190612cac565b901c91506803dea12ea99e4980008261174f9190612cac565b8161175a9190612d83565b90508360ff16858361176c9190612cac565b901c91506731880f2214b6e000826117849190612cac565b8161178f9190612d83565b90508360ff1685836117a19190612cac565b901c915067025bcff56eb36000826117b99190612cac565b816117c49190612d83565b90508360ff1685836117d69190612cac565b901c9150661b722e10ab1000826117ed9190612cac565b816117f89190612d83565b90508360ff16858361180a9190612cac565b901c91506601317c70077000826118219190612cac565b8161182c9190612d83565b90508360ff16858361183e9190612cac565b901c9150650cba84aafa00826118549190612cac565b8161185f9190612d83565b90508360ff1685836118719190612cac565b901c91506482573a0a00826118869190612cac565b816118919190612d83565b90508360ff1685836118a39190612cac565b901c91506405035ad900826118b89190612cac565b816118c39190612d83565b90508360ff1685836118d59190612cac565b901c9150632f881b00826118e99190612cac565b816118f49190612d83565b90508360ff1685836119069190612cac565b901c91506301b293408261191a9190612cac565b816119259190612d83565b90508360ff1685836119379190612cac565b901c9150620efc408261194a9190612cac565b816119559190612d83565b90508360ff1685836119679190612cac565b901c9150617fe0826119799190612cac565b816119849190612d83565b90508360ff1685836119969190612cac565b901c9150610420826119a89190612cac565b816119b39190612d83565b90508360ff1685836119c59190612cac565b901c91506021826119d69190612cac565b816119e19190612d83565b90508360ff1685836119f39190612cac565b901c9150600182611a049190612cac565b81611a0f9190612d83565b90508360ff166001901b856f0688589cc0e9505e2f2fee558000000083611a369190612d1d565b611a409190612d83565b611a4a9190612d83565b9250505092915050565b701c35fedd14ffffffffffffffffffffffff6000602060808110611a7b57611a7a612eab565b5b0181905550701b0ce43b323fffffffffffffffffffffff6000602160808110611aa757611aa6612eab565b5b01819055507019f0028ec1ffffffffffffffffffffffff6000602260808110611ad357611ad2612eab565b5b01819055507018ded91f0e7fffffffffffffffffffffff6000602360808110611aff57611afe612eab565b5b01819055507017d8ec7f0417ffffffffffffffffffffff6000602460808110611b2b57611b2a612eab565b5b01819055507016ddc6556cdbffffffffffffffffffffff6000602560808110611b5757611b56612eab565b5b01819055507015ecf52776a1ffffffffffffffffffffff6000602660808110611b8357611b82612eab565b5b01819055507015060c256cb2ffffffffffffffffffffff6000602760808110611baf57611bae612eab565b5b0181905550701428a2f98d72ffffffffffffffffffffff6000602860808110611bdb57611bda612eab565b5b01819055507013545598e5c23fffffffffffffffffffff6000602960808110611c0757611c06612eab565b5b0181905550701288c4161ce1dfffffffffffffffffffff6000602a60808110611c3357611c32612eab565b5b01819055507011c592761c666fffffffffffffffffffff6000602b60808110611c5f57611c5e612eab565b5b018190555070110a688680a757ffffffffffffffffffff6000602c60808110611c8b57611c8a612eab565b5b0181905550701056f1b5bedf77ffffffffffffffffffff6000602d60808110611cb757611cb6612eab565b5b0181905550700faadceceeff8bffffffffffffffffffff6000602e60808110611ce357611ce2612eab565b5b0181905550700f05dc6b27edadffffffffffffffffffff6000602f60808110611d0f57611d0e612eab565b5b0181905550700e67a5a25da4107fffffffffffffffffff6000603060808110611d3b57611d3a612eab565b5b0181905550700dcff115b14eedffffffffffffffffffff6000603160808110611d6757611d66612eab565b5b0181905550700d3e7a392431239fffffffffffffffffff6000603260808110611d9357611d92612eab565b5b0181905550700cb2ff529eb71e4fffffffffffffffffff6000603360808110611dbf57611dbe612eab565b5b0181905550700c2d415c3db974afffffffffffffffffff6000603460808110611deb57611dea612eab565b5b0181905550700bad03e7d883f69bffffffffffffffffff6000603560808110611e1757611e16612eab565b5b0181905550700b320d03b2c343d5ffffffffffffffffff6000603660808110611e4357611e42612eab565b5b0181905550700abc25204e02828dffffffffffffffffff6000603760808110611e6f57611e6e612eab565b5b0181905550700a4b16f74ee4bb207fffffffffffffffff6000603860808110611e9b57611e9a612eab565b5b01819055507009deaf736ac1f569ffffffffffffffffff6000603960808110611ec757611ec6612eab565b5b0181905550700976bd9952c7aa957fffffffffffffffff6000603a60808110611ef357611ef2612eab565b5b01819055507009131271922eaa606fffffffffffffffff6000603b60808110611f1f57611f1e612eab565b5b01819055507008b380f3558668c46fffffffffffffffff6000603c60808110611f4b57611f4a612eab565b5b0181905550700857ddf0117efa215bffffffffffffffff6000603d60808110611f7757611f76612eab565b5b01819055507007ffffffffffffffffffffffffffffffff6000603e60808110611fa357611fa2612eab565b5b01819055507007abbf6f6abb9d087fffffffffffffffff6000603f60808110611fcf57611fce612eab565b5b018190555070075af62cbac95f7dfa7fffffffffffffff6000604060808110611ffb57611ffa612eab565b5b018190555070070d7fb7452e187ac13fffffffffffffff600060416080811061202757612026612eab565b5b01819055507006c3390ecc8af379295fffffffffffffff600060426080811061205357612052612eab565b5b018190555070067c00a3b07ffc01fd6fffffffffffffff600060436080811061207f5761207e612eab565b5b0181905550700637b647c39cbb9d3d27ffffffffffffff60006044608081106120ab576120aa612eab565b5b01819055507005f63b1fc104dbd39587ffffffffffffff60006045608081106120d7576120d6612eab565b5b01819055507005b771955b36e12f7235ffffffffffffff600060466080811061210357612102612eab565b5b018190555070057b3d49dda84556d6f6ffffffffffffff600060476080811061212f5761212e612eab565b5b018190555070054183095b2c8ececf30ffffffffffffff600060486080811061215b5761215a612eab565b5b018190555070050a28be635ca2b888f77fffffffffffff600060496080811061218757612186612eab565b5b01819055507004d5156639708c9db33c3fffffffffffff6000604a608081106121b3576121b2612eab565b5b01819055507004a23105873875bd52dfdfffffffffffff6000604b608081106121df576121de612eab565b5b0181905550700471649d87199aa990756fffffffffffff6000604c6080811061220b5761220a612eab565b5b01819055507004429a21a029d4c1457cfbffffffffffff6000604d6080811061223757612236612eab565b5b0181905550700415bc6d6fb7dd71af2cb3ffffffffffff6000604e6080811061226357612262612eab565b5b01819055507003eab73b3bbfe282243ce1ffffffffffff6000604f6080811061228f5761228e612eab565b5b01819055507003c1771ac9fb6b4c18e229ffffffffffff60006050608081106122bb576122ba612eab565b5b0181905550700399e96897690418f785257fffffffffff60006051608081106122e7576122e6612eab565b5b0181905550700373fc456c53bb779bf0ea9fffffffffff600060526080811061231357612312612eab565b5b018190555070034f9e8e490c48e67e6ab8bfffffffffff600060536080811061233f5761233e612eab565b5b018190555070032cbfd4a7adc790560b3337ffffffffff600060546080811061236b5761236a612eab565b5b018190555070030b50570f6e5d2acca94613ffffffffff600060556080811061239757612396612eab565b5b01819055507002eb40f9f620fda6b56c2861ffffffffff60006056608081106123c3576123c2612eab565b5b01819055507002cc8340ecb0d0f520a6af58ffffffffff60006057608081106123ef576123ee612eab565b5b01819055507002af09481380a0a35cf1ba02ffffffffff600060586080811061241b5761241a612eab565b5b0181905550700292c5bdd3b92ec810287b1b3fffffffff600060596080811061244757612446612eab565b5b0181905550700277abdcdab07d5a77ac6d6b9fffffffff6000605a6080811061247357612472612eab565b5b018190555070025daf6654b1eaa55fd64df5efffffffff6000605b6080811061249f5761249e612eab565b5b0181905550700244c49c648baa98192dce88b7ffffffff6000605c608081106124cb576124ca612eab565b5b018190555070022ce03cd5619a311b2471268bffffffff6000605d608081106124f7576124f6612eab565b5b0181905550700215f77c045fbe885654a44a0fffffffff6000605e6080811061252357612522612eab565b5b01819055507001ffffffffffffffffffffffffffffffff6000605f6080811061254f5761254e612eab565b5b01819055507001eaefdbdaaee7421fc4d3ede5ffffffff600060606080811061257b5761257a612eab565b5b01819055507001d6bd8b2eb257df7e8ca57b09bfffffff60006061608081106125a7576125a6612eab565b5b01819055507001c35fedd14b861eb0443f7f133fffffff60006062608081106125d3576125d2612eab565b5b01819055507001b0ce43b322bcde4a56e8ada5afffffff60006063608081106125ff576125fe612eab565b5b018190555070019f0028ec1fff007f5a195a39dfffffff600060646080811061262b5761262a612eab565b5b018190555070018ded91f0e72ee74f49b15ba527ffffff600060656080811061265757612656612eab565b5b018190555070017d8ec7f04136f4e5615fd41a63ffffff600060666080811061268357612682612eab565b5b018190555070016ddc6556cdb84bdc8d12d22e6fffffff60006067608081106126af576126ae612eab565b5b018190555070015ecf52776a1155b5bd8395814f7fffff60006068608081106126db576126da612eab565b5b018190555070015060c256cb23b3b3cc3754cf40ffffff600060696080811061270757612706612eab565b5b01819055507001428a2f98d728ae223ddab715be3fffff6000606a6080811061273357612732612eab565b5b018190555070013545598e5c23276ccf0ede68034fffff6000606b6080811061275f5761275e612eab565b5b01819055507001288c4161ce1d6f54b7f61081194fffff6000606c6080811061278b5761278a612eab565b5b018190555070011c592761c666aa641d5a01a40f17ffff6000606d608081106127b7576127b6612eab565b5b0181905550700110a688680a7530515f3e6e6cfdcdffff6000606e608081106127e3576127e2612eab565b5b01819055507001056f1b5bedf75c6bcb2ce8aed428ffff6000606f6080811061280f5761280e612eab565b5b01819055506ffaadceceeff8a0890f3875f008277fff600060706080811061283a57612839612eab565b5b01819055506ff05dc6b27edad306388a600f6ba0bfff600060716080811061286557612864612eab565b5b01819055506fe67a5a25da41063de1495d5b18cdbfff60006072608081106128905761288f612eab565b5b01819055506fdcff115b14eedde6fc3aa5353f2e4fff60006073608081106128bb576128ba612eab565b5b01819055506fd3e7a3924312399f9aae2e0f868f8fff60006074608081106128e6576128e5612eab565b5b01819055506fcb2ff529eb71e41582cccd5a1ee26fff600060756080811061291157612910612eab565b5b01819055506fc2d415c3db974ab32a51840c0b67edff600060766080811061293c5761293b612eab565b5b01819055506fbad03e7d883f69ad5b0a186184e06bff600060776080811061296757612966612eab565b5b01819055506fb320d03b2c343d4829abd6075f0cc5ff600060786080811061299257612991612eab565b5b01819055506fabc25204e02828d73c6e80bcdb1a95bf60006079608081106129bd576129bc612eab565b5b01819055506fa4b16f74ee4bb2040a1ec6c15fbbf2df6000607a608081106129e8576129e7612eab565b5b01819055506f9deaf736ac1f569deb1b5ae3f36c130f6000607b60808110612a1357612a12612eab565b5b01819055506f976bd9952c7aa957f5937d790ef650376000607c60808110612a3e57612a3d612eab565b5b01819055506f9131271922eaa6064b73a22d0bd4f2bf6000607d60808110612a6957612a68612eab565b5b01819055506f8b380f3558668c46c91c49a2f8e967b96000607e60808110612a9457612a93612eab565b5b01819055506f857ddf0117efa215952912839f6473e66000607f60808110612abf57612abe612eab565b5b0181905550565b60008060009050610100831015612b01575b6001831115612afc57600183901c9250600181612af59190612e45565b9050612ad8565b612b42565b6000608090505b60008160ff161115612b40578060ff166001901b8410612b31578060ff1684901c935080821791505b60018160ff16901c9050612b08565b505b80915050919050565b600080fd5b6000819050919050565b612b6381612b50565b8114612b6e57600080fd5b50565b600081359050612b8081612b5a565b92915050565b600063ffffffff82169050919050565b612b9f81612b86565b8114612baa57600080fd5b50565b600081359050612bbc81612b96565b92915050565b60008060008060808587031215612bdc57612bdb612b4b565b5b6000612bea87828801612b71565b9450506020612bfb87828801612b71565b9350506040612c0c87828801612bad565b9250506060612c1d87828801612bad565b91505092959194509250565b612c3281612b50565b82525050565b600060ff82169050919050565b612c4e81612c38565b82525050565b6000604082019050612c696000830185612c29565b612c766020830184612c45565b9392505050565b7f4e487b7100000000000000000000000000000000000000000000000000000000600052601160045260246000fd5b6000612cb782612b50565b9150612cc283612b50565b9250828202612cd081612b50565b91508282048414831517612ce757612ce6612c7d565b5b5092915050565b7f4e487b7100000000000000000000000000000000000000000000000000000000600052601260045260246000fd5b6000612d2882612b50565b9150612d3383612b50565b925082612d4357612d42612cee565b5b828204905092915050565b6000612d5982612c38565b9150612d6483612c38565b9250828203905060ff811115612d7d57612d7c612c7d565b5b92915050565b6000612d8e82612b50565b9150612d9983612b50565b9250828201905080821115612db157612db0612c7d565b5b92915050565b6000612dc282612b50565b9150612dcd83612b50565b9250828203905081811115612de557612de4612c7d565b5b92915050565b6000612df682612c38565b915060008203612e0957612e08612c7d565b5b600182039050919050565b6000612e1f82612b50565b9150612e2a83612b50565b925082612e3a57612e39612cee565b5b828206905092915050565b6000612e5082612c38565b9150612e5b83612c38565b9250828201905060ff811115612e7457612e73612c7d565b5b92915050565b6000612e8582612c38565b9150612e9083612c38565b925082612ea057612e9f612cee565b5b828204905092915050565b7f4e487b7100000000000000000000000000000000000000000000000000000000600052603260045260246000fdfea2646970667358221220adf98972d4cc25e7e7344fe0960048851d7d1197a24ee927943af18f0722197864736f6c63430008180033",
  "linkReferences": {},
  "deployedLinkReferences": {}
}