{
  "_format": "hh-sol-artifact-1",
  "contractName": "MockERC20",
  "sourceName": "contracts/MockERC20.sol",
  "abi": [
    {
      "inputs": [
        {
          "internalType": "string",
          "name": "name",
          "type": "string"
        },
        {
          "internalType": "string",
          "name": "symbol",
          "type": "string"
        },
        {
          "internalType": "uint256",
          "name": "amount",
          "type": "uint256"
        }
      ],
      "stateMutability": "payable",
      "type": "constructor"
    },
    {
      "inputs": [
        {
          "internalType": "address",
          "name": "spender",
          "type": "address"
        },
        {
          "internalType": "uint256",
          "name": "allowance",
          "type": "uint256"
        },
        {
          "internalType": "uint256",
          "name": "needed",
          "type": "uint256"
        }
      ],
      "name": "ERC20InsufficientAllowance",
      "type": "error"
    },
    {
      "inputs": [
        {
          "internalType": "address",
          "name": "sender",
          "type": "address"
        },
        {
          "internalType": "uint256",
          "name": "balance",
          "type": "uint256"
        },
        {
          "internalType": "uint256",
          "name": "needed",
          "type": "uint256"
        }
      ],
      "name": "ERC20InsufficientBalance",
      "type": "error"
    },
    {
      "inputs": [
        {
          "internalType": "address",
          "name": "approver",
          "type": "address"
        }
      ],
      "name": "ERC20InvalidApprover",
      "type": "error"
    },
    {
      "inputs": [
        {
          "internalType": "address",
          "name": "receiver",
          "type": "address"
        }
      ],
      "name": "ERC20InvalidReceiver",
      "type": "error"
    },
    {
      "inputs": [
        {
          "internalType": "address",
          "name": "sender",
          "type": "address"
        }
      ],
      "name": "ERC20InvalidSender",
      "type": "error"
    },
    {
      "inputs": [
        {
          "internalType": "address",
          "name": "spender",
          "type": "address"
        }
      ],
      "name": "ERC20InvalidSpender",
      "type": "error"
    },
    {
      "anonymous": false,
      "inputs": [
        {
          "indexed": true,
          "internalType": "address",
          "name": "owner",
          "type": "address"
        },
        {
          "indexed": true,
          "internalType": "address",
          "name": "spender",
          "type": "address"
        },
        {
          "indexed": false,
          "internalType": "uint256",
          "name": "value",
          "type": "uint256"
        }
      ],
      "name": "Approval",
      "type": "event"
    },
    {
      "anonymous": false,
      "inputs": [
        {
          "indexed": true,
          "internalType": "address",
          "name": "from",
          "type": "address"
        },
        {
          "indexed": true,
          "internalType": "address",
          "name": "to",
          "type": "address"
        },
        {
          "indexed": false,
          "internalType": "uint256",
          "name": "value",
          "type": "uint256"
        }
      ],
      "name": "Transfer",
      "type": "event"
    },
    {
      "inputs": [
        {
          "internalType": "address",
          "name": "owner",
          "type": "address"
        },
        {
          "internalType": "address",
          "name": "spender",
          "type": "address"
        }
      ],
      "name": "allowance",
      "outputs": [
        {
          "internalType": "uint256",
          "name": "",
          "type": "uint256"
        }
      ],
      "stateMutability": "view",
      "type": "function"
    },
    {
      "inputs": [
        {
          "internalType": "address",
          "name": "spender",
          "type": "address"
        },
        {
          "internalType": "uint256",
          "name": "value",
          "type": "uint256"
        }
      ],
      "name": "approve",
      "outputs": [
        {
          "internalType": "bool",
          "name": "",
          "type": "bool"
        }
      ],
      "stateMutability": "nonpayable",
      "type": "function"
    },
    {
      "inputs": [
        {
          "internalType": "address",
          "name": "account",
          "type": "address"
        }
      ],
      "name": "balanceOf",
      "outputs": [
        {
          "internalType": "uint256",
          "name": "",
          "type": "uint256"
        }
      ],
      "stateMutability": "view",
      "type": "function"
    },
    {
      "inputs": [],
      "name": "decimals",
      "outputs": [
        {
          "internalType": "uint8",
          "name": "",
          "type": "uint8"
        }
      ],
      "stateMutability": "view",
      "type": "function"
    },
    {
      "inputs": [],
      "name": "name",
      "outputs": [
        {
          "internalType": "string",
          "name": "",
          "type": "string"
        }
      ],
      "stateMutability": "view",
      "type": "function"
    },
    {
      "inputs": [],
      "name": "symbol",
      "outputs": [
        {
          "internalType": "string",
          "name": "",
          "type": "string"
        }
      ],
      "stateMutability": "view",
      "type": "function"
    },
    {
      "inputs": [],
      "name": "totalSupply",
      "outputs": [
        {
          "internalType": "uint256",
          "name": "",
          "type": "uint256"
        }
      ],
      "stateMutability": "view",
      "type": "function"
    },
    {
      "inputs": [
        {
          "internalType": "address",
          "name": "to",
          "type": "address"
        },
        {
          "internalType": "uint256",
          "name": "value",
          "type": "uint256"
        }
      ],
      "name": "transfer",
      "outputs": [
        {
          "internalType": "bool",
          "name": "",
          "type": "bool"
        }
      ],
      "stateMutability": "nonpayable",
      "type": "function"
    },
    {
      "inputs": [
        {
          "internalType": "address",
          "name": "from",
          "type": "address"
        },
        {
          "internalType": "address",
          "name": "to",
          "type": "address"
        },
        {
          "internalType": "uint256",
          "name": "value",
          "type": "uint256"
        }
      ],
      "name": "transferFrom",
      "outputs": [
        {
          "internalType": "bool",
          "name": "",
          "type": "bool"
        }
      ],
      "stateMutability": "nonpayable",
      "type": "function"
    }
  ],
  "bytecode": "0x60806040526040516200186c3803806200186c83398181016040528101906200002991906200050e565b828281600390816200003c9190620007e9565b5080600490816200004e9190620007e9565b50505062000072620000656200007b60201b60201c565b826200008360201b60201c565b50505062000a07565b600033905090565b600073ffffffffffffffffffffffffffffffffffffffff168273ffffffffffffffffffffffffffffffffffffffff1603620000f85760006040517fec442f05000000000000000000000000000000000000000000000000000000008152600401620000ef919062000915565b60405180910390fd5b6200010c600083836200011060201b60201c565b5050565b600073ffffffffffffffffffffffffffffffffffffffff168373ffffffffffffffffffffffffffffffffffffffff16036200016657806002600082825462000159919062000961565b925050819055506200023c565b60008060008573ffffffffffffffffffffffffffffffffffffffff1673ffffffffffffffffffffffffffffffffffffffff16815260200190815260200160002054905081811015620001f5578381836040517fe450d38c000000000000000000000000000000000000000000000000000000008152600401620001ec93929190620009ad565b60405180910390fd5b8181036000808673ffffffffffffffffffffffffffffffffffffffff1673ffffffffffffffffffffffffffffffffffffffff16815260200190815260200160002081905550505b600073ffffffffffffffffffffffffffffffffffffffff168273ffffffffffffffffffffffffffffffffffffffff1603620002875780600260008282540392505081905550620002d4565b806000808473ffffffffffffffffffffffffffffffffffffffff1673ffffffffffffffffffffffffffffffffffffffff168152602001908152602001600020600082825401925050819055505b8173ffffffffffffffffffffffffffffffffffffffff168373ffffffffffffffffffffffffffffffffffffffff167fddf252ad1be2c89b69c2b068fc378daa952ba7f163c4a11628f55a4df523b3ef83604051620003339190620009ea565b60405180910390a3505050565b6000604051905090565b600080fd5b600080fd5b600080fd5b600080fd5b6000601f19601f8301169050919050565b7f4e487b7100000000000000000000000000000000000000000000000000000000600052604160045260246000fd5b620003a9826200035e565b810181811067ffffffffffffffff82111715620003cb57620003ca6200036f565b5b80604052505050565b6000620003e062000340565b9050620003ee82826200039e565b919050565b600067ffffffffffffffff8211156200041157620004106200036f565b5b6200041c826200035e565b9050602081019050919050565b60005b83811015620004495780820151818401526020810190506200042c565b60008484015250505050565b60006200046c6200046684620003f3565b620003d4565b9050828152602081018484840111156200048b576200048a62000359565b5b6200049884828562000429565b509392505050565b600082601f830112620004b857620004b762000354565b5b8151620004ca84826020860162000455565b91505092915050565b6000819050919050565b620004e881620004d3565b8114620004f457600080fd5b50565b6000815190506200050881620004dd565b92915050565b6000806000606084860312156200052a57620005296200034a565b5b600084015167ffffffffffffffff8111156200054b576200054a6200034f565b5b6200055986828701620004a0565b935050602084015167ffffffffffffffff8111156200057d576200057c6200034f565b5b6200058b86828701620004a0565b92505060406200059e86828701620004f7565b9150509250925092565b600081519050919050565b7f4e487b7100000000000000000000000000000000000000000000000000000000600052602260045260246000fd5b60006002820490506001821680620005fb57607f821691505b602082108103620006115762000610620005b3565b5b50919050565b60008190508160005260206000209050919050565b60006020601f8301049050919050565b600082821b905092915050565b6000600883026200067b7fffffffffffffffffffffffffffffffffffffffffffffffffffffffffffffffff826200063c565b6200068786836200063c565b95508019841693508086168417925050509392505050565b6000819050919050565b6000620006ca620006c4620006be84620004d3565b6200069f565b620004d3565b9050919050565b6000819050919050565b620006e683620006a9565b620006fe620006f582620006d1565b84845462000649565b825550505050565b600090565b6200071562000706565b62000722818484620006db565b505050565b5b818110156200074a576200073e6000826200070b565b60018101905062000728565b5050565b601f8211156200079957620007638162000617565b6200076e846200062c565b810160208510156200077e578190505b620007966200078d856200062c565b83018262000727565b50505b505050565b600082821c905092915050565b6000620007be600019846008026200079e565b1980831691505092915050565b6000620007d98383620007ab565b9150826002028217905092915050565b620007f482620005a8565b67ffffffffffffffff81111562000810576200080f6200036f565b5b6200081c8254620005e2565b620008298282856200074e565b600060209050601f8311600181146200086157600084156200084c578287015190505b620008588582620007cb565b865550620008c8565b601f198416620008718662000617565b60005b828110156200089b5784890151825560018201915060208501945060208101905062000874565b86831015620008bb5784890151620008b7601f891682620007ab565b8355505b6001600288020188555050505b505050505050565b600073ffffffffffffffffffffffffffffffffffffffff82169050919050565b6000620008fd82620008d0565b9050919050565b6200090f81620008f0565b82525050565b60006020820190506200092c600083018462000904565b92915050565b7f4e487b7100000000000000000000000000000000000000000000000000000000600052601160045260246000fd5b60006200096e82620004d3565b91506200097b83620004d3565b925082820190508082111562000996576200099562000932565b5b92915050565b620009a781620004d3565b82525050565b6000606082019050620009c4600083018662000904565b620009d360208301856200099c565b620009e260408301846200099c565b949350505050565b600060208201905062000a0160008301846200099c565b92915050565b610e558062000a176000396000f3fe608060405234801561001057600080fd5b50600436106100935760003560e01c8063313ce56711610066578063313ce5671461013457806370a082311461015257806395d89b4114610182578063a9059cbb146101a0578063dd62ed3e146101d057610093565b806306fdde0314610098578063095ea7b3146100b657806318160ddd146100e657806323b872dd14610104575b600080fd5b6100a0610200565b6040516100ad9190610aa9565b60405180910390f35b6100d060048036038101906100cb9190610b64565b610292565b6040516100dd9190610bbf565b60405180910390f35b6100ee6102b5565b6040516100fb9190610be9565b60405180910390f35b61011e60048036038101906101199190610c04565b6102bf565b60405161012b9190610bbf565b60405180910390f35b61013c6102ee565b6040516101499190610c73565b60405180910390f35b61016c60048036038101906101679190610c8e565b6102f7565b6040516101799190610be9565b60405180910390f35b61018a61033f565b6040516101979190610aa9565b60405180910390f35b6101ba60048036038101906101b59190610b64565b6103d1565b6040516101c79190610bbf565b60405180910390f35b6101ea60048036038101906101e59190610cbb565b6103f4565b6040516101f79190610be9565b60405180910390f35b60606003805461020f90610d2a565b80601f016020809104026020016040519081016040528092919081815260200182805461023b90610d2a565b80156102885780601f1061025d57610100808354040283529160200191610288565b820191906000526020600020905b81548152906001019060200180831161026b57829003601f168201915b5050505050905090565b60008061029d61047b565b90506102aa818585610483565b600191505092915050565b6000600254905090565b6000806102ca61047b565b90506102d7858285610495565b6102e2858585610529565b60019150509392505050565b60006012905090565b60008060008373ffffffffffffffffffffffffffffffffffffffff1673ffffffffffffffffffffffffffffffffffffffff168152602001908152602001600020549050919050565b60606004805461034e90610d2a565b80601f016020809104026020016040519081016040528092919081815260200182805461037a90610d2a565b80156103c75780601f1061039c576101008083540402835291602001916103c7565b820191906000526020600020905b8154815290600101906020018083116103aa57829003601f168201915b5050505050905090565b6000806103dc61047b565b90506103e9818585610529565b600191505092915050565b6000600160008473ffffffffffffffffffffffffffffffffffffffff1673ffffffffffffffffffffffffffffffffffffffff16815260200190815260200160002060008373ffffffffffffffffffffffffffffffffffffffff1673ffffffffffffffffffffffffffffffffffffffff16815260200190815260200160002054905092915050565b600033905090565b610490838383600161061d565b505050565b60006104a184846103f4565b90507fffffffffffffffffffffffffffffffffffffffffffffffffffffffffffffffff81146105235781811015610513578281836040517ffb8f41b200000000000000000000000000000000000000000000000000000000815260040161050a93929190610d6a565b60405180910390fd5b6105228484848403600061061d565b5b50505050565b600073ffffffffffffffffffffffffffffffffffffffff168373ffffffffffffffffffffffffffffffffffffffff160361059b5760006040517f96c6fd1e0000000000000000000000000000000000000000000000000000000081526004016105929190610da1565b60405180910390fd5b600073ffffffffffffffffffffffffffffffffffffffff168273ffffffffffffffffffffffffffffffffffffffff160361060d5760006040517fec442f050000000000000000000000000000000000000000000000000000000081526004016106049190610da1565b60405180910390fd5b6106188383836107f4565b505050565b600073ffffffffffffffffffffffffffffffffffffffff168473ffffffffffffffffffffffffffffffffffffffff160361068f5760006040517fe602df050000000000000000000000000000000000000000000000000000000081526004016106869190610da1565b60405180910390fd5b600073ffffffffffffffffffffffffffffffffffffffff168373ffffffffffffffffffffffffffffffffffffffff16036107015760006040517f94280d620000000000000000000000000000000000000000000000000000000081526004016106f89190610da1565b60405180910390fd5b81600160008673ffffffffffffffffffffffffffffffffffffffff1673ffffffffffffffffffffffffffffffffffffffff16815260200190815260200160002060008573ffffffffffffffffffffffffffffffffffffffff1673ffffffffffffffffffffffffffffffffffffffff1681526020019081526020016000208190555080156107ee578273ffffffffffffffffffffffffffffffffffffffff168473ffffffffffffffffffffffffffffffffffffffff167f8c5be1e5ebec7d5bd14f71427d1e84f3dd0314c0f7b2291e5b200ac8c7c3b925846040516107e59190610be9565b60405180910390a35b50505050565b600073ffffffffffffffffffffffffffffffffffffffff168373ffffffffffffffffffffffffffffffffffffffff160361084657806002600082825461083a9190610deb565b92505081905550610919565b60008060008573ffffffffffffffffffffffffffffffffffffffff1673ffffffffffffffffffffffffffffffffffffffff168152602001908152602001600020549050818110156108d2578381836040517fe450d38c0000000000000000000000000000000000000000000000000000000081526004016108c993929190610d6a565b60405180910390fd5b8181036000808673ffffffffffffffffffffffffffffffffffffffff1673ffffffffffffffffffffffffffffffffffffffff16815260200190815260200160002081905550505b600073ffffffffffffffffffffffffffffffffffffffff168273ffffffffffffffffffffffffffffffffffffffff160361096257806002600082825403925050819055506109af565b806000808473ffffffffffffffffffffffffffffffffffffffff1673ffffffffffffffffffffffffffffffffffffffff168152602001908152602001600020600082825401925050819055505b8173ffffffffffffffffffffffffffffffffffffffff168373ffffffffffffffffffffffffffffffffffffffff167fddf252ad1be2c89b69c2b068fc378daa952ba7f163c4a11628f55a4df523b3ef83604051610a0c9190610be9565b60405180910390a3505050565b600081519050919050565b600082825260208201905092915050565b60005b83811015610a53578082015181840152602081019050610a38565b60008484015250505050565b6000601f19601f8301169050919050565b6000610a7b82610a19565b610a858185610a24565b9350610a95818560208601610a35565b610a9e81610a5f565b840191505092915050565b60006020820190508181036000830152610ac38184610a70565b905092915050565b600080fd5b600073ffffffffffffffffffffffffffffffffffffffff82169050919050565b6000610afb82610ad0565b9050919050565b610b0b81610af0565b8114610b1657600080fd5b50565b600081359050610b2881610b02565b92915050565b6000819050919050565b610b4181610b2e565b8114610b4c57600080fd5b50565b600081359050610b5e81610b38565b92915050565b60008060408385031215610b7b57610b7a610acb565b5b6000610b8985828601610b19565b9250506020610b9a85828601610b4f565b9150509250929050565b60008115159050919050565b610bb981610ba4565b82525050565b6000602082019050610bd46000830184610bb0565b92915050565b610be381610b2e565b82525050565b6000602082019050610bfe6000830184610bda565b92915050565b600080600060608486031215610c1d57610c1c610acb565b5b6000610c2b86828701610b19565b9350506020610c3c86828701610b19565b9250506040610c4d86828701610b4f565b9150509250925092565b600060ff82169050919050565b610c6d81610c57565b82525050565b6000602082019050610c886000830184610c64565b92915050565b600060208284031215610ca457610ca3610acb565b5b6000610cb284828501610b19565b91505092915050565b60008060408385031215610cd257610cd1610acb565b5b6000610ce085828601610b19565b9250506020610cf185828601610b19565b9150509250929050565b7f4e487b7100000000000000000000000000000000000000000000000000000000600052602260045260246000fd5b60006002820490506001821680610d4257607f821691505b602082108103610d5557610d54610cfb565b5b50919050565b610d6481610af0565b82525050565b6000606082019050610d7f6000830186610d5b565b610d8c6020830185610bda565b610d996040830184610bda565b949350505050565b6000602082019050610db66000830184610d5b565b92915050565b7f4e487b7100000000000000000000000000000000000000000000000000000000600052601160045260246000fd5b6000610df682610b2e565b9150610e0183610b2e565b9250828201905080821115610e1957610e18610dbc565b5b9291505056fea26469706673582212205231a061b0d893dc11c903d00eac352632a3e45d9ecab24d48189f4a48f0a0e164736f6c63430008180033",
  "linkReferences": {},
  "deployedLinkReferences": {}
}